:020000040800F2
:1000000048B40020010100080501000807010008AC
:10001000090100080B0100080D01000800000000A4
:1000200000000000000000000000000011010008B6
:100030000F0100080000000053020008857200084C
:10004000598F0008616D0008F9720008456E0008BC
:10005000A70C0008416E0008990C00089D0C0008D0
:100060009F0C0008A10C0008A30C0008810C0008DC
:10007000830C0008850C0008870C0008890C000818
:100080008B0C00088D0C000869060008A17300089D
:10009000A37300087D0C00087F0C0008A50C000865
:1000A000FB72000801730008FF720008FD7200086F
:1000B000037300080573000807730008F352000873
:1000C000F1520008F7520008F55200083D7100088F
:1000D0003F710008997300089B7300089D73000826
:1000E0009B0C0008436E00089F730008000000008E
:1000F0000000000000000000000000000000000000
:1001000004480047FEE7FEE7FEE7FEE7FEE7FEE7FE
:10011000FEE700001901000800F002F800F05CF8AA
:100120000AA090E8000C82448344AAF10107DA4552
:1001300001D100F051F8AFF2090EBAE80F0013F048
:10014000010F18BFFB1A43F00103184744250100B3
:10015000642501000A444FF0000C10F8013B13F035
:10016000070408BF10F8014B1D1108BF10F8015B10
:10017000641E05D010F8016B641E01F8016BF9D103
:1001800013F0080F1EBF10F8014BAD1C0C1B09D15A
:100190006D1E58BF01F801CBFAD505E014F8016BCC
:1001A00001F8016B6D1EF9D59142D6D3704700005E
:1001B0000023002400250026103A28BF78C1FBD870
:1001C000520728BF30C148BF0B6070471FB5AFF35F
:1001D00000801FBD10B510BD00F010FA1146FFF7EA
:1001E000F5FF0FF0C5FB00F02EFAFFF7F3FF00F06C
:1001F00031FA000002480349034A044B70470000EB
:1002000048AC002048B4002048B0002048B000208E
:10021000EFF3108072B6704780F31088704724485F
:100220004FF0FF010170002080F309881D48012173
:10023000017020484FF08051016062B6FEE71D4812
:100240004FF08051016070471A484FF080510160B3
:100250007047EFF3098028B1203880E8F00F124989
:100260000968086000B50A4880475DF804EB0B4850
:100270000B490A7802700C480C490A680260106841
:1002800090E8F00F203080F309884EF0040E70479C
:10029000E3640008E95F00082E0000203000002021
:1002A00031000020330000205000002058000020C2
:1002B00022ED00E004ED00E072B6704762B67047D0
:1002C000EFF3108072B6704780F31088704740EAF1
:1002D000010310B59B070AD1042A08D310C808C926
:1002E000121F9C42F8D020BA19BA401A10BD0AB9A0
:1002F000002010BDD30701D0521C05E010F8013BCF
:1003000011F8014B1B1B07D110F8013B11F8014BF1
:100310001B1B01D1921EF1D1184610BD40EA01030A
:10032000024630B59B0710D14FF0013400E008C2FF
:1003300008C91D1B9D4315EAC41FF8D013F0FF0127
:1003400002F8011B0ED01B0AF8E711F8014B02F866
:10035000014B002C134605D011F8014B5A1C002C00
:100360001C70F2D130BD032A40F2318010F0030C32
:1003700000F0158011F8013BBCF1020F624498BFF8
:1003800011F801CB00F8013B38BF11F8013BA2F195
:10039000040298BF00F801CB38BF00F8013B11F010
:1003A000030300F06B80083AC0F0098051F8043B69
:1003B00051F804CB40F8043B40F804CBF3E7121D9E
:1003C0005CBF51F8043B40F8043BAFF30080D20718
:1003D00024BF11F8013B11F801CB48BF11F8012BE4
:1003E00024BF00F8013B00F801CB48BF00F8012B07
:1003F0007047431A28BF9A427FF6B5AF032A1044CC
:10040000114440F2218010F0030F1EBF11F8013D8E
:10041000521E00F8013D10F0030F7FF4F6AF083ACA
:10042000C0F00A8051F8043D51F804CD40F8043D75
:1004300040F804CDFFF7F3BF121D5CBF51F8043D37
:1004400040F8043DAFF30080D20724BF11F8013D0E
:1004500011F801CD48BF11F8012C24BF00F8013D6F
:1004600000F801CD48BF00F8012C704702F0FF03EF
:1004700043EA032242EA024200F05EB810B5203A95
:10048000C0F00B80B1E81850203AA0E81850B1E84D
:100490001850A0E81850BFF4F5AF5FEA027C24BF03
:1004A000B1E81850A0E8185044BF18C918C0BDE8FA
:1004B00010405FEA827C24BF51F8043B40F8043BC3
:1004C00008BF7047D20728BF31F8023B48BF11F878
:1004D000012B28BF20F8023B48BF00F8012B7047D2
:1004E0004FF0000200B5134694469646203922BFCD
:1004F000A0E80C50A0E80C50B1F12001BFF4F7AF18
:10050000090728BFA0E80C5048BF0CC05DF804EBF9
:10051000890028BF40F8042B08BF704748BF20F867
:10052000022B11F0804F18BF00F8012B7047704765
:10053000704770474FF000020429C0F0128010F09D
:10054000030C3FF4CFAFCCF1040CBCF1020F18BF89
:1005500000F8012BA8BF20F8022BA1EB0C01FFF73C
:10056000C1BF5FEAC17C24BF00F8012B00F8012B5A
:1005700048BF00F8012B7047431A28BF9A427FF604
:100580007DAF104410F0030F11441EBF11F8013D60
:10059000521E00F8013D10F0030F7FF4F6AF103A41
:1005A000C0F00A8010B531E91850103A20E918500F
:1005B000BFF4F9AFBDE81040530724BF31E908107C
:1005C00020E9081044BF51F8043D40F8043D12F002
:1005D000030F08BF7047D20728BF31F8023D48BF5C
:1005E00011F8012C28BF20F8023D48BF00F8012C6B
:1005F0007047000000487047E8AB00207546FFF7E1
:10060000F9FFAE4605006946534620F007008546CF
:1006100018B020B5FFF7EEFDBDE820404FF0000612
:100620004FF000074FF000084FF0000B21F00701DA
:10063000AC46ACE8C009ACE8C009ACE8C009ACE81D
:10064000C0098D4670470446AFF300802046FFF78F
:10065000CCFD704703494FF01800ABBE7047000057
:10066000F3FFFFFF260002007047002800DC404235
:10067000704710B500220A231146104605F060FFAE
:1006800003F050FCF6E7000030B58FB002F076FDC5
:100690004FF47F0007F0E4FE02F03EF8042007F07C
:1006A000CDFE07F0F9FA2D4CE0602D4907F0B1FEC0
:1006B000E06807F061FE01F0E9FF00F0B1FA002107
:1006C00004A800F0B7FC00250995002104A800F05B
:1006D00039FD012104A800F0ADFC0995012104A811
:1006E00000F030FD1F4800F005FD1F4806F0C0FA7D
:1006F0001E4800F07DFA1E4806F06EFC1D4806F00C
:100700000FFD1D4804F0E6FD0223E1681A028DE8A2
:100710000E0023234B220A21D72000F00BF9206181
:10072000E1680223CA228DE80E0023234B223C21DC
:10073000D72000F0FFF8606110A1206900F07CFA7A
:1007400010A1606900F078FA02F09CFB00223223CD
:100750001146104605F0F4FEF6E700000000002008
:1007600059F8000805BF0008ED6B0008E50900080E
:10077000496E000821700008955200085374617298
:10078000740000004261636B0000000070470000CD
:1007900000B585B0012005F075FC1349886003237E
:1007A0000022CDE903234FF400611048CDE9010197
:1007B00005230F4A00210F48009305F083FD032312
:1007C00000220B48CDE90323001D4FF48071CDE9D1
:1007D0000101042300F57F7200210748009305F012
:1007E00071FD05B000BD0000000000207007002072
:1007F0006C270020890600087306000870477047C0
:1008000010B505F033FF05F0FDFCFFF7C1FF0B4C01
:100810002021204601F048FA0022642311461046A8
:1008200005F08EFE2021204601F03CFA00226423D0
:100830001146104605F084FEEAE70000000C014076
:100840007047704710B506F0A5FA01F0C3F90FF034
:10085000A7F8BDE8104000F0A7BD000070B54568DE
:1008600004460146284606F0BFFD00285FD02068F8
:100870002F4A0F2818D006DC0B2823D00C280FD0C5
:100880000E284FD12DE0112802D028284AD143E06C
:100890009268002A4BD021462846BDE87040104798
:1008A000214628465268F8E7284601F0D7FD406EF9
:1008B000046801F0FFFD002C39D02846A446BDE8AD
:1008C00070406047284601F0C9FD0546683001F0D8
:1008D00031FD032105F16C0001F03AFD01F0EAFD64
:1008E00020E0E168486809680D2902D0202913D169
:1008F00005E0002810DD28460CF077FC06E0002813
:1009000004DD2846BDE870400CF06FBC2846BDE809
:10091000704002210CF07EBCE06818B90021284626
:1009200000F074F92046BDE8704007F095B870BD3E
:100930006C0100202DE9FF410AAF70CF002703951D
:100940008DE8D00000F003F804B0BDE8F081F0B508
:1009500085B00DF1280CBCE8F0004FF0000C8DE8DC
:10096000F01000F003F805B0F0BD00002DE9FF5FC6
:100970000546DDE911B4DDE90E780E4691469A464A
:1009800002F01AFC4C341549CDE90214CDE9007887
:1009900053464A463146284606F0B8FF050016D0B1
:1009A00001F05CFD04461022594606F029FF302272
:1009B0000B4904F13400FFF761FD094E0C3E30682D
:1009C000606601F077FD306841682846884703F08B
:1009D0004DFD04B02846BDE8F09F00005D0800080A
:1009E00078010020F0B504468068804987B051F84E
:1009F0002050606800287DD0032804D004287AD0D5
:100A0000102879D1AAE0E86900284FD095E80E00B7
:100A10008DE80F0004F10C010FC904F0FBF800266B
:100A200055F8260003F02BF96169E8690A1AE168B4
:100A300001442069304402F04DF96169E8690A1AFD
:100A4000E1680144A069801B02F044F9A169E869EA
:100A50000A1A21690144E068304402F0EDF9A16905
:100A6000E8690A1A216901446069801B02F0E4F90F
:100A7000761C022ED4DBA86803F001F9A069E969AD
:100A80002669431AE0684218521E3144801C02F065
:100A900013FAA169E86962690B1A21690144101A05
:100AA000401C921E02F008FAEE6913E05FF00006A7
:100AB00055F8260003F0E3F8A069831B6069821BE8
:100AC00020698119E068304402F076F9761C022E24
:100AD000EEDB0226D5E90301CDE900012169A06919
:100AE000084443106069891C821BE068304402F0AE
:100AF000B7F802E073E012E074E0D5E90501CDE952
:100B00000001A36920690121184401EB60016069BB
:100B10009B1E821BE068304402F0A2F862E020686D
:100B200001F09CFC0546206807F06FFF38B1A06813
:100B300008B1002006E0286F20B1012002E0686FB4
:100B400000B1022005EB8000C56E01F0B3FC00236C
:100B50001A462846216801F0D5FE43E0206801F0DE
:100B60007DFC866E9EB3B0F95C70A16891B30229DA
:100B700033D0022100EB8101406D0C6C03F096F83C
:100B800001F098FC204603F07AF804A802F054FA29
:100B9000BDF81010E8690144ADF81010BDF814104C
:100BA000081AADF81400BDF81200801CADF8120050
:100BB000BDF81600801EADF81600022003F0FAF80A
:100BC000304601F04BFC3A4604A901F067FF01F002
:100BD00071FC07E0FFE70121CCE70021CAE72068AC
:100BE00007F0A2FC07B00020F0BD000018030108C8
:100BF000044A0349116004494A6A48621046704732
:100C0000A80100206C010020780100204FF48072C0
:100C10000029114601D006F06DBC06F0C3BB0000F0
:100C2000034802494160034981607047A1D300082D
:100C30006C01002019D30008F8B504000E461CD042
:100C400002F0BAFA204601F009FC856E009501F029
:100C500031FC3146684604F045FA60B10098A8427C
:100C600006D0204601F0FAFB0099816601F022FCD3
:100C7000204607F07DFA03F0F9FBF8BD7047704796
:100C8000704770477047704770477047704700E083
:100C9000401E0028FCD1704770477047704770476E
:100CA00070477047704770472DE9F04104468EB099
:100CB000006800F0A9F908B1D24D01E0D14D2C3502
:100CC000606813281ED00CDC09281FD004DC002823
:100CD0007DD003287CD12AE10C287AD01028F9D1C4
:100CE0003CE1142806D0152808D0162808D01A2868
:100CF000F0D109E0E8690EB0BDE8F081286AFAE7B2
:100D0000686AF8E7A86AF6E76869F4E7206805907A
:100D10001A200690206801F0A1FB016D05A8884704
:100D2000064601F0C7FB022E0EDB95E807008DE8B2
:100D30000700D4E903023346616903F035FFE06838
:100D400087196069801B2BE0286802F098FFE16832
:100D5000E8690A18521E206901F0BCFF6269E8695F
:100D6000111A491C206901F0B5FF2769E0687F1C52
:100D7000394601F0FDFF3946606901F0F9FF686806
:100D800002F07DFFE0683946401C01F0F1FF606928
:100D90003946401E01F0ECFFE7686069BF1C801E09
:100DA0008046286802F06BFF42463946206901F010
:100DB00091FF686802F063FF20694246401C394693
:100DC00001F088FF686A02280FDDA86802E00AE1E6
:100DD000ACE0F5E002F053FF21696A6A0846831827
:100DE000891C5B1E4246384627E0296AB14226DD4F
:100DF0002069022E074600F1020801DB374401E0BA
:100E000007F10207E06801DB304401E000F1020075
:100E1000E2683B460A44A2F10102414602F04CF866
:100E2000022E02DB6069821B01E06269921E60692A
:100E3000E9693B46401A401C414602F03DF8022E4B
:100E400002DB2069064401E02669B61CA769286810
:100E50007F1E02F014FF3A463146E06801F0ECFFD5
:100E60003A463146606901F0E7FFA7696868BF1E2E
:100E700002F005FFE0683A46401C314601F0DCFF15
:100E800060693A46401E314601F0D6FFE869022803
:100E900002DC286A022821DDA86A022802DDA16995
:100EA0000F1A01E0A769BF1EA86802F0E8FEEA6910
:100EB000022A07DDE1683B460A44881C521E31467F
:100EC00001F0FAFF286A022808DD6269E8693B46FA
:100ED000101A401C921E314601F0EEFF286802F005
:100EE000CEFED4E90520E16801F0F4FE686802F066
:100EF000C6FE6269E168A069521E491C401E01F0ED
:100F0000E9FEA86A02287BDDE6686169A469B61C6F
:100F1000271AA1F102087F1CA41EA86802F0AFFEE8
:100F2000234642463946304601F0C6FF68E0E06895
:100F300000B2ADF80C00216909B2ADF80E1062697B
:100F400012B2ADF81020A3691BB2ADF812302C69B3
:100F5000ED68CDE9005401F083FE51E0E068A96935
:100F60000844ADF80C002069ADF80E006069A9696D
:100F7000401AADF81000A069ADF81200206801F029
:100F80006DFA0446006FC0B1022002F013FFB4F8FE
:100F90007C00C0F3C00004EB8000006C02F06FFE28
:100FA000606B02F083FE206F01F058FAB4F95A200A
:100FB00003A901F073FD01F07DFA01F07BFA1FE057
:100FC000E068ADF80C002069ADF80E006069ADF87E
:100FD0001000A069ADF81200A86802F050FE03A846
:100FE00001F096FF0CE0206801F038FA30F85A1F43
:100FF00041F00C01018001F05DFA206807F094FADD
:10100000002078E67802002070B505004FF000045B
:101010000DD002F0D1F8284601F020FAB0F87C009B
:10102000000700D5012401F045FA03F01FFA20461D
:1010300070BD0000022905D2034A52F821102C226B
:10104000FFF71CBA7047000028030108F0B50546F9
:1010500087B0006801F002FA0446B0F87C00ED6940
:10106000C0F3C007206F18B101F0F8F9064600E0A0
:101070000026E868009028690190A888401EADF815
:101080000800E889ADF80A002889401CADF80C007A
:10109000688AADF80E00BDF80000401CADF80000F5
:1010A000BDF80200401CADF80200BDF80400401E6F
:1010B000ADF80400606B02F0F9FDB4F95A3004AAEF
:1010C0006946304603F034FA04EB8704A06B04F061
:1010D000F3FC206C04F026FD04AB6A4602A93046FE
:1010E00006F0CCFA01F0E6F90EB101F0E3F907B031
:1010F0000020F0BD074A0649054B1160064A083B2F
:10110000D16958601B68C2E9063008467047000084
:101110006C020020380200203C02002070B504461A
:101120000D4602F049F844B1204601F097F90566F2
:1011300001F0C0F9204607F01BF8BDE8704003F04D
:1011400095B9000070B503460D4602291FD2104C18
:101150002C22194654F82500FFF790F954F8251071
:101160000220CA69022A00DAC86154F825100A6A06
:10117000022A00DA086254F825104A6A022A00DAC4
:10118000486254F825108A6A022A00DA886270BD23
:101190002803010870B505000C4613D002F00CF8C6
:1011A000284601F05BF9B0F95A10A14204D0A0F82A
:1011B0005A40284606F0DCFF01F07CF9BDE870409B
:1011C00003F054B970BD70B505000C4614D001F0A1
:1011D000F3FF284601F042F9002200EB8201521C85
:1011E0000C64022AF9D301F065F9284606F0C0FF25
:1011F000BDE8704003F03AB970BD2DE9F34F85B0FA
:101200004FF000080C46C146059801F027F9054645
:10121000C06D012186680598326890478346326820
:101220000321059890470090326802210598904765
:10123000049032680021059890470746284607F039
:10124000B7FA0190284607F0BAFA8246688E8006FF
:1012500001D5B5F95890284600F036F80646E86EF4
:1012600010B106F0ABFD80462680A4F80280A4F8F9
:1012700004B0DDE90020801A07EB0902401E931933
:10128000208103EB0802E280049BAAEB0302521EBA
:101290006281A4F80CB02082B819E781401E6082F8
:1012A00001F008F9B4F90C000290B4F910000390B1
:1012B00003AA02A9059800F037F80298A0810398C4
:1012C000208207B0BDE8F08F10B5014600204A8E9D
:1012D000920607D5B1F95400002803D1486B01F0FC
:1012E00023FF801C10BD70B588B00D46044601F088
:1012F000B5F8C06D866801F0DDF8009435B1012DB8
:1013000006D0022D0BD0032D04D10AE0162000E0F8
:101310001420019071686846884708B070BD13209A
:10132000F7E71520F5E700002DE9F04788469146DC
:10133000044601F093F8C16D05688E6801F0BAF8B3
:1013400032680021204690470646204606F0AAFC57
:1013500026E000BF01F082F8B0F900102AB2B0F91F
:101360000430891A9A1AB0F90230A3EB2543B3422C
:1013700011D1806A000607D5D9F8000088420ADB3F
:10138000491EC9F8001006E0D8F80000904202DCBF
:10139000521CC8F8002001F08DF8204606F0ACFC85
:1013A0000400D7D1BDE8F0872DE9F04397B00121C3
:1013B000080205F0D7FC01217C2005F0DFFC4FF48A
:1013C0000057ADF8007003248DF8024010268DF808
:1013D0000360DFF8B4806946404600F011FC022546
:1013E000ADF80050DFF8A4906946484600F008FCCC
:1013F0004CF23370ADF800008DF8024018208DF8E3
:1014000003006946404600F0FBFB4FF68070ADF8E4
:1014100000006946484600F0F3FB8020ADF800006C
:101420006946404600F0ECFBA802ADF800006946B2
:10143000404600F0E5FB3946404600F035FC01959A
:101440000020029005210391049005900690E90682
:1014500007910890099008210A910B960C900E9024
:101460000F9010904902119112901390149001A8BE
:101470001590169008A800F01DF80121002000F03A
:1014800007F817B0BDE8F0830014014000180140D0
:101490004FF0204202EB800021B1016841F00101D0
:1014A000016070470168024A114001607047000006
:1014B000FEFF0F0030B5D0E901121143D0E903233C
:1014C0001A43114342690368114382691143C26997
:1014D0001143026A1143426A1143826A1143C26A8C
:1014E0001143026B11434FF0204242F823108168F0
:1014F000082906D1016802EB81010B6843F0400323
:101500000B60416BD1E9003443EA04138C68CD6869
:10151000240244EA054423430C6943EA04534C691A
:10152000896943EA04630B430168491C42F821308E
:10153000C16AB1F5804F15D1816B0068D1E90034E3
:1015400043EA04138C680D69240244EA05542343DA
:101550004C69896943EA04630B4302EB8000C0F8DD
:10156000043130BD00686FF0704102EB8000C0F8BC
:10157000041130BD2DE9F0410446C56886B00F4620
:101580009046002002F086FB064625B1287910B16E
:1015900046F0020001E026F0020002F07BFB206929
:1015A000012558B1D4E902128DE82600039563881D
:1015B0002288046841463846A04719E0E06804F0F4
:1015C000CEF830B9E088012801D0002001E00B48B6
:1015D0000068A288E388A1680095CDE90410CDE9F0
:1015E00002320195638822884146384603F08EFE18
:1015F00006B03046BDE8F04102F04CBBB404002018
:101600001CB50024019401AC009400F0E5F81CBD69
:101610002DE9FF4F83B081460598109EA0EB090489
:1016200000208A460090A3EB0A0835689B4654EADE
:10163000080018D02046FFF718F807464046FFF785
:1016400014F887420BDA2046444680464846D14685
:1016500082460598CDF814B0834601200090002CF6
:1016600007DD204606E007B04846BDE8F04F00F031
:1016700037B96042A0420AD04846DDF81490059080
:101680006442C8F10008DA464FF0FF3000E0012064
:1016900083465048B8F1000F12D000BF04EBD4715C
:1016A0004FEA610501DAC5F100054A48807E78B34A
:1016B000BBF1000F02DA306820443060002775E08B
:1016C00000990029817E1FD011B10027804614E0C7
:1016D000059A07B049465046BDE8F04F03F078BF81
:1016E00028466D1C0CF05CFF30B9D8F8600009EB9F
:1016F00007014268504690477F1CA742F0DD6D1EEF
:10170000356007B0BDE8F08F19B10027804616E0BC
:1017100018E0006E059A5146036807B04846BDE8D8
:10172000F04F184728466D1C0CF03AFF30B9D8F836
:10173000601009EB07004A68514690477F1CA7429A
:10174000F0DDDCE700260EE008FB065090FBF4F12C
:1017500001EB0A00009949B11E4A09EB0601126E1D
:1017600052689047761CA642EEDDCAE7194909EB9C
:101770000603096E4A6801461846F2E708FB07505F
:1017800090FBF4F101EB0A000190316801EB0B00D2
:1017900030600CF005FF40B90098A0B10D4809EB8E
:1017A0000701006E4268019890477F1CA742E5DD63
:1017B000BBF1000F02DA3068204430603168A1EBE1
:1017C0000B0030609DE7034909EB0700096E4A688A
:1017D0000199E9E75CA600202DE9FF4788463F49CB
:1017E00007460C98097E15461E4601291DD0781B18
:1017F000A8EB060250EA02031CD0A1F10109114630
:101800000DF0E6FF00F58060824603F015FD00FB59
:1018100009F4504603F014FD00FB09F0002C0BDA2C
:10182000C4F5007189124C4209E0009041463846E7
:10183000FFF7EEFEBDE8FF8704F50074A412002850
:1018400004DAC0F500708012404202E000F500703A
:101850008012002C04DD611C01EBD171491003E002
:1018600004EBD4714910641E04EBD47253100028A9
:1018700004DD421C02EBD272521003E000EBD07286
:101880005210401E7C18ADF8004008EB0204ADF881
:101890000240FC1A00EBD0704010ADF80440A8EBF9
:1018A0000004EB1AADF80830301AADF80A006818D9
:1018B000ADF80C00B018ADF80E000023ADF80640EE
:1018C0001A460421684600F075F84146384609F08A
:1018D000BDFD3146284609F0B9FDABE75CA6002006
:1018E000064B1A7E012A05D0521E02EBD27252100C
:1018F00000F006B81A6E5268104700005CA600207F
:101900002DE9F05F0646884640F2C32050434FF46D
:101910007A7190FBF1F702FB02F002EBD27100EB5F
:10192000610B1446B118224A7F1C301B126E1368DB
:101930000A4641469847012536E000BF05FB05F001
:1019400004FB040159451ADDBC4217DD184B06EBB8
:101950000509A6EB050A1B6EA9F1010208EB0401BB
:101960001B680AF101009847114BA9F10102A8EB8D
:1019700004011B6E0AF101001B689847641E0C48A5
:1019800006EB040AA6EB0409006E08EB05015246BB
:101990000368484698470648A8EB05015246006E82
:1019A0000368484698476D1CBD42C7DDBDE8F09FFF
:1019B0005CA600202DE9FF4F40F6FF740F466642FB
:1019C00083B081469B4600210BE000BF09EB8100FC
:1019D000B0F90200A04200DA0446B04200DD06463B
:1019E000491CB942F2DB6848406900280DD0B0F9C3
:1019F0000620A2EB0B01B14200DA0E46B0F902104C
:101A0000A1EB0B00A04200DD0446B6E0DFF87CA1AC
:101A100000200546CAF800008BE0781E854201DAF6
:101A2000691C00E0002109EB850C09EB8103BCF97E
:101A30000200B3F90220A042904645D1A04517D13B
:101A400039F92520059804EB0B0C104439F92120B5
:101A5000059953184C499842096ED1F8008002DA72
:101A60001A46614602E0024661461846C0475FE0FA
:101A7000284622460023A7F1010C0AE008B1401EC7
:101A800000E0781E09EB8001B1F90210914203D108
:101A90005B1C6345F2DB2146A14249D039F92500A0
:101AA000A1EB0402A8EB0403DDF814C05A4008D4EB
:101AB000354A604404EB0B01126E136802469847E6
:101AC00036E007F04BFA33E0A04531D001DBA0420D
:101AD00003DDA0422CDBA2422ADCE04690420ADC75
:101AE0000146A04224DC9446A24221DBB8F9000062
:101AF000B3F9002009E01146A24219DC8446A04255
:101B000016DBB3F90000B8F90020631A121A5A4321
:101B1000002AACEB010302DD02EB630202E0A2EB60
:101B20006302521CACEB010192FBF1F10844C8E7DF
:101B30006D1CBD42FFF671AF0598009004EB0B00E1
:101B4000019000208046054612E01149B8F1000FCF
:101B500031F915A008D0009901EB0A0208440A499E
:101B6000096E0B680199984788F0010850466D1C72
:101B7000064909688D42E8DB641CB4427FF746AF32
:101B800007B0BDE8F08F00005CA6002064040020D0
:101B9000A0A7002010B5002002F066F86FF07F408B
:101BA00002F06DF8012002F0E9F8002002F0F4F8EC
:101BB000002002F0FFF8002002F06CF804480068F2
:101BC00002F074F8BDE81040002002F0ABB800004D
:101BD000D400002008B501217C2005F0CFF820209A
:101BE000ADF8000010208DF8030003208DF80200EE
:101BF0006946024800F004F808BD0000000C0140EE
:101C00002DE9F0410022CC7804F00F03E40601D561
:101C10008C7823430C884FF00F0714F0FF0F4FF020
:101C2000010C1BD005680CFA02F40E882640A6426F
:101C300010D1960007FA06FE25EA0E0803FA06F50B
:101C400045EA0805CE78282E01D1446102E0482EED
:101C500000D10461521C082AE5D305600A88FF2AD6
:101C60001ED94568002202F108060CFA06F40E8817
:101C70002640A64210D1960007FA06FE25EA0E0875
:101C800003FA06F545EA0805CE78282E00D144610E
:101C9000CE78482E00D10461521C082AE3D3456057
:101CA000BDE8F081416170470161704730B591B086
:101CB00005460C46202215496846FEF7DFFB13490E
:101CC0002022203108A8FEF7D9FB284600F0D8F8DA
:101CD000A8682168C16261680163A16841635DF819
:101CE0002120C0F8DC2008AA52F82120C0F8E0200A
:101CF000490707D5D0E90021C0E90012D0E9022147
:101D0000C0E90212A189818411B030BD64020108CA
:101D10002DE9F041884616461F46054600F0B0F80A
:101D2000AC684422414604F1E400FEF7A7FB2846D4
:101D3000B0472846B847286980688047A062BDE858
:101D4000F081000010B5044600F09AF8A0680A4936
:101D500000F1300001670949C16609494167094935
:101D6000C16709498167A0F10C00418821F0030196
:101D700041800649416610BD71E60008ADEA0008E1
:101D800039E600082FE3000817E3000871E50008B2
:101D900010B5044600F074F8A4680D4804F18804F6
:101DA0004FF01001A0630B48E0630B4820640B4820
:101DB00060640B48E0600B482061E06AE06454F81E
:101DC0008829204690471020A0630748E06310BD93
:101DD000BDA8000879C00008ED1D0008AF1E00086E
:101DE00011E300080DF00008481D0108F8B58468EB
:101DF0000D461746E08C80073FD5D4F8DC302046EE
:101E000098470646D4F8E0303A4629462046984797
:101E100005462069B04201DD012000E00020A169F3
:101E2000B14201DA012100E0002108436169A942C1
:101E300001DD012100E000210843E169A94201DA46
:101E4000012100E0002108430AD06068401E009094
:101E50002368D4F89C705B1E002211462046B847C8
:101E6000D4F8A0302A46314620469847D4F894103A
:101E700001B02046BDE8F0400847D4F8A030F3E7B1
:101E800070B50446806800280FD14FF49475284639
:101E900000F06CFAA06048B12A46002103F050F926
:101EA000A0680221C1840121016270BDFEE72DE915
:101EB000F84384680D461746E08C9846800740D565
:101EC000D4F8DC30204698470646D4F8E0303A464D
:101ED00029462046984705462069B04201DD012089
:101EE00000E00020A169B14201DA012100E00021F7
:101EF00008436169A94201DD012100E00021084396
:101F0000E169A94201DA012100E0002108430AD079
:101F10006068401E00902368D4F89C705B1E00220D
:101F200011462046B847D4F8A0302A46314620460C
:101F30009847D4F8982001B041462046BDE8F043C8
:101F40001047D4F8A030F2E72DE9F04FDFF824B1C4
:101F500091B04FF0FF35BBF922200692DBF81C3020
:101F6000BBF924A0DC69A189884206D3E2898242B8
:101F700003D3461AD4F8008012E0D4E90181002985
:101F80006ED00A8890426BD34D88854268D3801A00
:101F9000496880B201EB8000B0F90060B0F90250EE
:101FA000701C5DD0187EA27C014600FB02F9207CEB
:101FB0000B910790BBF92A70384603F0C9FDC0B2F7
:101FC0000E902D48A27C016806FB09800126CDE910
:101FD0000262CDE90401DBF81C00C17E807ECDE900
:101FE0000001DDE9060251460B9B03F08FF9681CE6
:101FF00018D047F0020003F0ABFD1F48A27C016837
:1020000005FB0980CDE90262CDE90401DBF81C0083
:10201000C17E807ECDE90001DDE9060251460B9BC1
:1020200003F074F9DBF81C005D46417E007E8142BE
:1020300013D9022F11D087F0040003F089FDE8695D
:10204000027EC37E857E02FB03A1437EDDE906029C
:1020500002FB0502534403F0E3FA0E9803F078FD07
:10206000BBF82210627C1144ABF8221011B0BDE81D
:10207000F08F00005CA60020B40400200348C06973
:10208000C06909B1027C0A60407C70475CA60020F0
:10209000022008807047C0698289914202D3C289B8
:1020A0008A4210D2806880B102888A420DD8438863
:1020B0008B420AD3406800EB8100A0EB8200B0F9AC
:1020C0000000002801DB012070470020704700005D
:1020D0002DE9F0432D4C034687B0E069B4F92A801E
:1020E0001946C06900F07FF800284BD0416800888D
:1020F000181A01EBC0054046AE7803F029FD814671
:102100002348012201686868CDE90226CDE904016F
:10211000E069C27E817ECDE90012037E2A78B4F99F
:102120002410B4F9220003F0F1F8E069467E077E3E
:10213000BE421CD9C07E46434743B8F1020F16D0B9
:1021400000F07FFF804600F047FF01F098FDE26954
:10215000B4F922002978D27E01FB0202B4F92410DE
:102160008B19394403F05CFA404601F088FD48467B
:1021700003F0EEFCE269B4F922006978927E01FB7B
:102180000200608407B0BDE8F08300005CA6002078
:10219000B404002030B50D4C05460B46E0692946D5
:1021A000C06900F020F800280FD041680088E46979
:1021B0002A1A012000EBC200A47E085C6043002BB9
:1021C00003D011F832106143196030BD5CA60020C5
:1021D00001200880704700B5C06900F004F80028AD
:1021E00000D0012000BD06E002888A4202D8428861
:1021F0008A4202D280680028F6D170472DE9F0416A
:1022000000250C4C2F460FE005EBC50000EB400607
:102210002069682200EB8600001D0749FEF72EF9B1
:1022200020696D1C40F82670A0688542ECDBBDE893
:10223000F08100006C0400205CA6002070B50F49FE
:102240000D480860084602F045FF0C4D6C20143D17
:10225000AC684443204600F089F8224600212861FA
:1022600002F06EFF28690028FDD04FF0FF30286093
:10227000BDE8704002F028B9DDD2000880040020DB
:1022800010B5040009D000F097FF204606F0C0FE0C
:10229000044602F0EBF8204610BD002010BD70B5DA
:1022A000054600F089FF2846FFF7EAFF040005D045
:1022B00000F00AF92A46002102F042FF02F0D6F8A7
:1022C000204670BD024A9160106001201075704771
:1022D000B800002070B504001CD000F06DFF0E4D5A
:1022E000A86A10F8341089B100EBC400416848684E
:1022F00006F050FE6869401C6861D5E90A0100EBF0
:10230000C4025160002100F83410EC62BDE8704056
:1023100002F0ACB870BD00007C000020002805D0A1
:10232000034A116B016001B14860106370470000FF
:102330007C00002010B5044600F03EFF2068FFF747
:10234000C9FF00202060BDE8104002F08FB80000F7
:1023500070B506460D46002405E000BF06EB84007C
:10236000FFF7E8FF641CAC42F8DB70BD2DE9F041DB
:1023700004460AF059FE2048E41C24F003040068D7
:10238000241DA04200D904461C4E306B054612E0C5
:1023900055F8042CA2420DD17DB1296809B16A68B3
:1023A0004A60696809B12A680A60A84220D1286891
:1023B00030631DE02D68002DEAD10BF0E5FF2046CB
:1023C0000AF05CFB070013D07868A04210DB3844A9
:1023D000051B38460BF0BAFFB0693946001BB061E7
:1023E000306A204430627868001B06F0D3FD10C5C7
:1023F0002846BDE8F0810000DCA500207C0000201C
:1024000010B500240AF010FE0C490F2001EBC002A9
:1024100052681AB101EBC000406808E0401EF5D5D3
:1024200008E04168A14200D90C46806810B180687C
:102430000028F6D1A4F10C0010BD0000DCA500209E
:10244000002130B10449896A01EBC000406841684D
:102450000C390846704700007C0000200249CA6819
:10246000521CCA6000F030B87C00002010B500F0AB
:10247000A3FEFFF7C5FF64220849B0F5800F04D919
:1024800090FBF2F44868444303E049684843B0FBDA
:10249000F2F401F0EBFF204610BD00007C000020AC
:1024A000034908610020C8600120087570470000DA
:1024B000B80000200348C16809B1491EC16000206E
:1024C000704700007C000020002805D00349896A7D
:1024D00001EBC00040680830704700007C0000201D
:1024E00010B5002420B1FFF7B9FF0488FFF7E2FF21
:1024F000204610BD70B50D46002438B1FFF7AEFF81
:10250000294600F015F80446FFF7D4FF204670BDB9
:1025100070B50C4601880025A14207D9406828B152
:10252000FFF79CFF50F82450FFF7C4FF284670BD0A
:1025300010B50024FFF7ECFF10B1FFF78FFF044642
:10254000204610BD2DE9FC5F0446894600F034FEAC
:10255000484600F083FD2C4E09EB8907824656F869
:102560002700019029484FF00108016841B9274927
:10257000C0F80080091D26480860084602F0AAFD40
:10258000214A09EB89015FEA0A0002EB81051BD0B1
:1025900001F058FB83464FF07F4001F065FB00F0EF
:1025A000BBF800221146206800F0A2FA2068428899
:1025B0000188504601F098FB46F8274085F80580D1
:1025C000584601F03FFB17E046F8274085F80580A4
:1025D0002869464618B101F07BFA0020286174B1E1
:1025E0000096E868A1684B46421AA8686168411ADB
:1025F000206801F0B9FA286148460CF04DFB01F063
:1026000035FF0198BDE8FC9FC4A600200001002012
:10261000A1D2000870B505460E46144600F0CCFD68
:10262000204600F01BFD0300174804EB840109D08D
:1026300050F8210041688068691A321A184601F082
:1026400043FB1CE000EB8104A268AA4201D00122F6
:1026500000E00022E368B34201D0012300E0002340
:102660001A430CD0236943B150F8210081684068B7
:10267000721A291A184601F04AFAC4E90256BDE84E
:10268000704001F0F3BE0000C4A600200148407C69
:1026900000F002B85CA6002010B5044600F08CFDE6
:1026A0000A4804EB840100EB810301225A7150F8BF
:1026B000210030B120460CF0EFFABDE8104001F0E7
:1026C000D5BE21460248FFF73DFFF6E7C4A600202D
:1026D000DCFB000810B5C2B2CBB2D21A02D5C2F1EF
:1026E000000212B293B2C0F30722C1F3072403FB26
:1026F00003F3121B01D5524212B2000C92B2A0EBAE
:10270000114002FB023200B2002801DA404200B25E
:1027100080B200FB002010BD10B50021084600F07B
:102720001BFD40F6FF725042BDE8104013460146C3
:10273000AFF300802DE9FC4104460D4616461F46C6
:1027400000F03AFD042003F003FA12498046086CB9
:10275000496C044406440D440F44ADF80040ADF804
:102760000460ADF80250ADF80670684606F02EF829
:1027700007E03B4632462946204602F051FF05F06D
:10278000E7FF0028F5D1404603F0E2F901F06EFEC4
:10279000BDE8FC815CA60020B0F90630B0F9042049
:1027A000B0F90210B0F90000FFF7C4BF2DE9F04105
:1027B00006460D4617461C46012B02DB0020BDE8ED
:1027C000F0811C20FFF7D2FD0028F8D00DB1056183
:1027D0000BE00A4A02EB8401C96C09B905E0114615
:1027E0000A68002AFBD1096901618461878200219E
:1027F00001604160C0E90216E1E700005CA600202C
:1028000070B51D46FFF7D2FF040001D000F00EF8AE
:10281000E068006818B9034800EB850004652046AD
:1028200070BD00005CA60020FFF778BD30B590B306
:102830008169012930DA1C4A02EB8103D96C11B994
:10284000D8642EE011464A68002AFBD106E0CA6827
:10285000C46812682468A24203DD09680029F6D121
:102860001AE0C1B1CA68C56812682D68AA420CD1C5
:10287000828A012A05D008E01146D2681268A24275
:1028800003DB0A68002AF7D129B14A6832B1106027
:102890004A68426003E0FFE7012030BDD864486029
:1028A0000160002030BD00005CA600200A4A81695A
:1028B00002EB8101CA6C824201D10268CA6441689C
:1028C00009B102680A60016809B142684A600021E2
:1028D00001604160704700005CA60020012801DB18
:1028E00000207047064901EB8000C06C04E0C1681D
:1028F00009680029F5D000680028F8D17047000069
:102900005CA600202DE9F0410D46164698460400CD
:102910000DD0FFF7A3FD00680768FFF7CBFD434626
:10292000324629462046BC46BDE8F0416047BDE836
:10293000F08170B504004FF000000BD02046FFF787
:102940008DFD00684568FFF7B5FD2046AC46BDE843
:102950007040604770BD70B504004FF000000BD0B0
:102960002046FFF77BFD00688568FFF7A3FD204642
:10297000AC46BDE87040604770BD00002DE9FC47E3
:10298000060075D000F018FC00F072FB394C81464F
:10299000B4F9228000F0ACFBA18C0746C81BA084D0
:1029A0003DE000BF47F6FF71304602F07BFA8246F9
:1029B0000146304602F04EFA0546A08D00F00300B5
:1029C00001283ED0022838D00020618C6A46081ABF
:1029D0006084ADF80000691E0844ADF80400A08CC6
:1029E000ADF80200A9F101010844ADF80600514616
:1029F000304601F039FFBDF80200A0845146304650
:102A000001F020FC064430780A281CD00D281AD08A
:102A1000BDF8000028446084307818B1761C307806
:102A20000028BFD1A08C3844A084A08D20F00300E2
:102A3000A085BDE8FC4701F019BD05EBD57040103D
:102A4000C3E72846C1E7A08D00F0030001280CD0A1
:102A500002280AD0208C608430780A28DCD1A18C2E
:102A600001EB0900A084D7E702E0A4F82280F3E795
:102A7000BDE8FC875CA6002070B506460D461446EE
:102A800000F09AFB0448458484843046FFF776FFC3
:102A9000BDE8704001F0EABC5CA6002047F6FF7379
:102AA000AFF300802DE9FC4106000D46174698461D
:102AB0001BD0002400F080FB65B1284605F074FDB2
:102AC000040007D002462946684602F058FA6846D4
:102AD00005F06AFD43463A462946304601F014FFA8
:102AE000204605F061FD01F0C1FCBDE8FC8100005D
:102AF0007CB506460D46144600F05EFB1148016C9D
:102B0000406C0D4404443188681E0844ADF804004C
:102B1000ADF800507188601E0844ADF80600ADF8AD
:102B20000240684605F052FE06E02246294630463D
:102B3000FEF720FD05F00CFE0028F6D101F096FC12
:102B40007CBD00005CA600201CB50A460146684614
:102B500002F0B3FA00F030FB2348BDF80020016C0E
:102B60000A44ADF80020BDF80220406C0244ADF8E4
:102B70000220BDF804201144ADF80410BDF8061081
:102B80000844ADF80600684605F020FE27E000BFC7
:102B9000BDF900400BE000BFBDF90210204602F075
:102BA000E3FCBDF90610204602F0DEFCA41CBDF9D2
:102BB0000400A042F0DABDF902400AE0BDF90000CD
:102BC000214602F0D1FCBDF90400214602F0CCFC04
:102BD000A41CBDF90600A042F0DA05F0B9FD0028FA
:102BE000D6D101F043FC1CBD5CA600202DE9F04FBE
:102BF00087B00446DDE910890D4616461F4600F0F1
:102C0000DBFA1549086C496C044406440D440F4432
:102C1000ADF81040ADF81460ADF81250ADF8167074
:102C200004A805F0D3FD88B1DFF830B04FF0000AFA
:102C3000CDF80CA08DE8000B33463A4621462846D5
:102C400008F03AFA05F084FD0028F1D101F00EFCFD
:102C500007B0BDE8F08F00005CA60020D155000849
:102C60002DE9F04F87B00446DDE910890D46164680
:102C70001F4600F0A1FA1549086C496C044406444B
:102C80000D440F44ADF81040ADF81460ADF812508B
:102C9000ADF8167004A805F099FD88B1DFF830B0E2
:102CA0004FF0010ACDF80CA08DE8000B3B463246F0
:102CB0002946204608F000FA05F04AFD0028F1D127
:102CC00001F0D4FB07B0BDE8F08F00005CA6002047
:102CD000195500082DE9FC4105460E46174600F03F
:102CE0006BFA104C206C616C064407440D44ADF83F
:102CF0000060ADF80470ADF80250ADF806506846BB
:102D000005F064FD07E0206E3A4629460368304628
:102D1000984705F01DFD0028F5D101F0A7FBBDE89F
:102D2000FC8100005CA600202DE9F04104460D4620
:102D300016461F4600F040FA0C49086C496C0444E2
:102D400006440D440F44002005F040FD07E03B46DB
:102D5000324629462046FEF753FC05F0F9FC0028D0
:102D6000F5D1BDE8F04101F081BB00005CA6002078
:102D70007CB506460D4600F01FFA0E4C206C06444A
:102D8000606CADF804600544ADF80060ADF8065025
:102D9000ADF80250684605F019FD06E0206E2946A0
:102DA00042683046904705F0D3FC0028F6D101F088
:102DB0005DFB7CBD5CA600202DE9FC4106460D466E
:102DC0001446984600F0F8F91A48037E016C406CEE
:102DD0008F190E195B1E054400EB0804F81AADF8B4
:102DE0000000F018ADF80400E81AADF80200E01891
:102DF000ADF80600684605F0E9FC15E032462946C4
:102E0000384602F089FB32462146384602F084FB00
:102E1000621E691C384602F0DBFB621E691C3046EC
:102E200002F0D6FB05F094FC0028E7D101F01EFB70
:102E3000BDE8FC815CA600207CB506460C46154624
:102E400000F0BAF90E48016C406C0E44044405448D
:102E5000ADF80060ADF80460ADF80240ADF8065082
:102E6000684605F0B3FC06E02A462146304602F0EB
:102E7000AFFB05F06DFC0028F6D101F0F7FA7CBD40
:102E80005CA6002010B5002400E0012400F004F846
:102E90000028FAD1204610BD064810B5006800246D
:102EA00010B1804700B1012404F070FE00B101248C
:102EB000204610BDEC0000202DE9FC4104460D46E3
:102EC00016461F4600F078F91049086C496C044416
:102ED00006440D440F44ADF80040ADF80460ADF871
:102EE0000250ADF80670684605F070FC07E03B46FE
:102EF00032462946204602F093FB05F029FC0028C3
:102F0000F5D101F0B3FABDE8FC8100005CA6002019
:102F1000B0F90630B0F90420B0F90210B0F90000A1
:102F2000FFF7CABF08B50B46002805D0009281887C
:102F30008268C08800F001F808BD10B50828029C1E
:102F400030D008DC04FB01F401280AD0022813D099
:102F5000042804D11CE0102828D020282CD00020E0
:102F600010BD04EBD30003F00701105CC1F10701B1
:102F7000C84000F0010010BD04EB93000621105C76
:102F800001EA4301C1F10601C84000F0030010BD91
:102F900004EB5300D907105C02D000F00F0010BD05
:102FA000000910BD04FB0130105C10BD481004FB8B
:102FB000003032F8100010BD881004FB003052F8C9
:102FC000200010BD034901EB8000C06CC1688A6A13
:102FD000082110475CA6002010B500F0EDF802F0C3
:102FE0004DFB02F0DDFB044601F040FA204610BD27
:102FF00010B5044600F0E0F805480021C0694268B9
:1030000020469047044601F031FA204610BD0000EA
:103010005CA6002070B504460D4600F0CDF80548CA
:103020002946C069426820469047044601F01EFACE
:10303000204670BD5CA60020002801D004F006BE2A
:10304000704710B500F0B8F802F01EFB02F0A8FBC4
:10305000044601F00BFA204610BD000001004FF0BD
:10306000000001D10148006870470000680400209A
:1030700010B500F0A1F80348C069447E01F0F6F9EC
:10308000204610BD5CA6002010B500F095F801F0B8
:10309000D9FE044601F0EAF9204610BD70B5064697
:1030A0000C46154600F088F82A462146304602F0C4
:1030B00017FB10B1002020602860BDE8704001F0CF
:1030C000D5B970B504460D4600F076F8294620467D
:1030D00001F012FFBDE8704001F0C8B910B5044618
:1030E00001F0FCFE01462046BDE8104001F0B2BEF2
:1030F00010B5002400F060F80A48818D01F00C0141
:10310000042904D0082906D00C2907D103E0C0699E
:10311000047E641E02E0C069007E440801F0A6F946
:10312000204610BD5CA60020017EC07E484370474B
:10313000034901EB8000C06C006900687047000023
:103140005CA60020034901EB8000C06C0069406868
:10315000704700005CA6002070B505460C4600F0E4
:103160002BF8284609F09CFD0546204609F09EFDF7
:1031700040EA050401F07AF9204670BD10B501F06F
:1031800059FB0B492E20087001F094F9094809F009
:10319000E5FDFFF753F802F025FB04460021084641
:1031A00000F0CEFD04F060FFFFF728F8204610BDC8
:1031B000D00000205CA6002070B5264CE06820B14D
:1031C00001F070F96168884204D001F08BF901F0D8
:1031D00069F96060E068401CE060012831D1002599
:1031E0000DE000BF01F05EF905EBC501226901EBBE
:1031F000410152F82110814205D019B36D1CA0681D
:103200008542EFDB0025206885421AD0002817DBB5
:1032100000EBC000216900EB400001EB8000001DC5
:1032200068220D49FDF72AF905EBC500216900EB7D
:10323000400001EB8001091D68220748FDF71EF9D7
:10324000256070BD05EBC50101EB410142F821008D
:10325000D9E700006C0400205CA6002010B5040033
:1032600003D10A48446D002C0FD0FFF7A5FF20467C
:10327000FFF72AF9406920B1FFF726F981688968CC
:103280008847BDE8104001F0F1B810BD5CA60020F1
:1032900001490A4600F002B801F0FFFF2DE9FC47A2
:1032A0005FEA00080D4616463AD0FFF785FF00207A
:1032B00000F0F0FC81461B48476D4046FFF704F9DB
:1032C000044600F0B1FC40F6FF70401903D1B4F998
:1032D0000450B4F906602189681E0844ADF8040062
:1032E000ADF800506189701E0844ADF80260ADF879
:1032F000060004F09DFA684605F068FA06E03246DA
:103300002946404600F0D9FA05F022FA0028F6D105
:10331000384600F03BF9484600F0BCFC01F0A6F846
:10332000BDE8FC875CA600202DE9FE4F07468846D5
:1033300091469A4600250C9EFFF73EFF1348417CBC
:1033400000EB8100C46CE0680068042803D02468A6
:10335000002CF8D100E01CB90846FFF7BFFA04467C
:103360000121E068C26A2046904750B12169009669
:10337000CDE9010153464A464146384600F090F9EE
:10338000054601F073F82846BDE8FE8F5CA60020D4
:1033900070B5050019D0FFF70FFF0C48406DA8422B
:1033A00001D100F041FC2846FFF78EF80446406941
:1033B00008B101F048F82068FFF736FA2846FEF712
:1033C00089FFBDE8704001F051B870BD5CA60020D7
:1033D0002DE9FF4F83B03F4CDDF840B00700894630
:1033E000984629D002A901A8FFF76BFEB7F9006043
:1033F000002E00DA0026B7F90250002D00DA002571
:10340000A246607C02F08AF901990144491EB7F98D
:10341000040009F0C2FE04469AF8110002F084F993
:1034200002990144491EB7F9060009F0B6FEA71B30
:103430007F1C441B641C09E000263546607C02F0BA
:103440006DF90746607C02F06FF90446B8F1000F91
:1034500001D1C4F10008002F01DD002C03DC0020A5
:1034600007B0BDE8F08F43463A4629463046CDF8CE
:1034700000B0FFF759FF5FEA000A07D000F04EF8EE
:103480008046504600F082F800271AE04946059829
:1034900088470120E4E7E11B414502DA504600F08D
:1034A0005BF83FB1EA193146504600F099F85046B2
:1034B000FFF7D4FE4946059888475046FFF7E8FED7
:1034C0004744A742E7DB5046FFF762FF002000F0C9
:1034D0005DF8C4E75CA6002070B505004FF000045D
:1034E0000DD0FFF769FE2846FEF7EEFF0068006981
:1034F0008068804702F048FD044600F0B7FF204690
:1035000070BD10B50446FFF757FE2046FEF7DCFFFE
:10351000044600F0ABFF04F1180010BD70B504467E
:103520000025FFF749FE14B90548446D24B1204633
:10353000FEF7CAFFB0F90A5000F098FF284670BDA8
:103540005CA6002010B506F041F8002803D0BDE8C5
:10355000104000F06FB810BD70B505000C4603D1E7
:103560000948456D002D0DD0FFF726FE2846FEF7D1
:10357000ABFFB0F90A10A14200DD4481BDE8704004
:1035800000F074BF70BD00005CA600202DE9F04182
:103590000546FFF711FE114C666D5DB10EB100F0EE
:1035A00043FB2846FEF790FF074604F045FA606D9E
:1035B00018B106E000F038FB0BE0D4E90201C4E9E1
:1035C000160165653868FFF731F902F033FB02F048
:1035D0009DFA00F04BFF3046BDE8F0815CA600206C
:1035E00070B504000E46154603D11148446D002CF9
:1035F0001DD0FFF7E1FD2046FEF766FF2DB2C58026
:1036000036B20446868002F081FA606958B1FEF74E
:103610005BFFB4F90810818029B1B4F90A10C180A8
:1036200009B106804580BDE8704000F01FBF70BD45
:103630005CA6002001490A4600F002B801F0FFFF35
:103640007CB506000C46154629D0FFF7B5FD30467F
:10365000FEF73AFF40F6FF71091903D1B0F90440B3
:10366000B0F906500289611E1144ADF80040ADF872
:1036700004104189681E0844ADF80600ADF80250F8
:10368000684605F0A3F806E02A462146304600F0D9
:10369000FFF805F05DF80028F6D100F0E7FE7CBDEC
:1036A0002DE9FF4F81B0DFF8D4B0DDE90E6092461E
:1036B0001C4600279BF811303A461099FFF776F820
:1036C00005004ED028698068804702F05DFC814685
:1036D0000AFB09F1C91D4FEAD108FEF7C7FEF10741
:1036E00005D1C11700EB9170801000EB4000002C59
:1036F00006DC1838B0FBF8F06442A04200DC044657
:10370000F00707D10090DDE901012346524600F0A1
:1037100013FE0746002C03DC2846FFF785F82AE055
:1037200004FB08F01830F10702D0FEF7A9FD01E014
:10373000FEF7B5FD060017D0FEF7C6FE056001993D
:1037400081800299C180A0F808A04481C0F80C8053
:10375000C0E904971098AE6028619BF81100A86139
:10376000304605B0BDE8F08F2846FFF75DF817B189
:103770003846FEF7AFFD0020F3E700005CA600200E
:103780002DE9F74F8CB090460C98FEF767FEB0F924
:1037900008100691B0F90A10089100680069D0F885
:1037A00004B0FEF787FE384C607C04EB8000C06CF0
:1037B000C1688A6A082190478146182801D34FF0D2
:1037C0002009607C04EB8000C06C0069079003C88E
:1037D0000A902E48814201D0012000E0002009908B
:1037E000002000F08FFE00284AD10026DDE90C05FC
:1037F000B2460BAB4746761C069C0093FFF781FE52
:10380000009B014604FB0AF0CDE900B301EB800206
:1038100023463946284601F025F9050030D009989D
:10382000D0B1DDE906134A46284600F050FF98B9AA
:10383000DDE906702C46D0F810C0BCF1000F05D0B1
:10384000294604233A460846E04705E00A992068DD
:10385000884701C47F1EF9D10020CDE903050590FA
:1038600001200090CDE901094146034608F1010815
:10387000069A0D9801F04AFD0898401E0890B5D1AF
:103880000FB0BDE8F08F00005CA60020E3570008F1
:1038900070B50D4616460446FEF716FE0068162162
:1038A000C068426A00209047030005D0324629468E
:1038B0002046BDE87040184770BD2DE9F0410E4626
:1038C00017460546FEF7CAFD4469FEF7F3FD284694
:1038D000FFF702FE0346082800DD34B13A463146C0
:1038E0002846BDE8F0410BF0ADBB3A4631462846CC
:1038F000BDE8F0410BF03CBD10B5002821D009B364
:103900000AB3B1F90030B2F90040A34200DB23460C
:103910000380B1F90230B2F90240A34200DB234632
:103920004380B1F90430B2F90440A34200DC2346DD
:103930008380B1F90610B2F90620914200DC1146ED
:10394000C18010BD11460A6802604968416010BD1F
:1039500000280BD003880B4403808388194481809E
:10396000418811444180C1881144C18070470000E2
:1039700070B5114D0446D5E9000188420FD10F49B9
:10398000884203D1D0E90F12406C04E0A0F10C0092
:10399000D0E9001280682160C4E9012006E090E8C7
:1039A0000E0084E80E0009F095F92860207A0028BE
:1039B00000D0012070BD00001801002030A70020B9
:1039C0000448D0E90010814201D101207047002055
:1039D0007047000018010020054A10B50349116026
:1039E0000BF0E2F9BDE8104000F0F2B9E57D000807
:1039F000F000002070B50025FFF7DEFB094CD4E98C
:103A0000000188420AD0D0E90056002109F054F99B
:103A100020603146284604F0F9FB012500F026FD20
:103A2000284670BD0C0100202DE9FC41154CDDE954
:103A30000875B4F90860864200DD3046B4F90C60C0
:103A4000964200DA3246824219DBB4F90A608E42AD
:103A500000DD3146B4F90E409C4200DA23468B4229
:103A60000DDB00E02546EC68246824B1042C02D06C
:103A70002C68002CF6D1CDE9007501F033FFBDE8CC
:103A8000FC8100005CA60020B0F90220B1F90630EC
:103A90009A4213DCB1F90220B0F906309A420DDCEB
:103AA000B0F90020B1F904309A4207DCB1F90010F6
:103AB000B0F90400814201DC01207047002070470A
:103AC000014668220148FCF7D9BC00005CA6002032
:103AD00070B504001AD0FFF76FFB20460BF01EFAFA
:103AE00020460BF073FA2046FEF7B8FC0546006846
:103AF000FEF714FCE868FEF7EDFB2046FEF7EAFB54
:103B0000FEF7D8FCBDE8704000F0B0BC70BD70B5E9
:103B100004460D461646FFF74FFB3246294620461F
:103B20000AF082FEBDE8704000F0A0BC70B5050050
:103B300018D0FFF741FB2846FEF790FC0446008BA7
:103B4000800709D4284609F0E3FA28460BF0C0F8AC
:103B5000208B40F002002083FEF7ACFCBDE87040F3
:103B600000F084BC70BD00002DE9F04704460088D9
:103B7000089F8846914620B1608810B1E0880828E7
:103B800002D90020BDE8F087E06880680028F9D0FD
:103B900007F0010200212048FEF708FE0500F1D0E1
:103BA0002088860060884643FFF706FB06F1200068
:103BB000FEF775FB06001ED03046AE60FEF74EFCE9
:103BC0000783C461A0F80480A0F80690238808EB5E
:103BD0000302521E0281628809EB0201491E4181E3
:103BE0000560FEF767FC2146304605F0BDFD30B1AB
:103BF00000F03CFCC5E72846FEF716FEF8E7B807DC
:103C000005D5304609F084FA30460BF061F800F033
:103C10002DFC3046B6E70000E8FB000868220149A9
:103C2000FCF72CBC5CA6002010B5FFF7C5FA01F02C
:103C300025FF01F0FFFF03F0FBFDBDE8104000F0A1
:103C400015BC000070B5074C0546667CFFF7B4FA5A
:103C50001DB900206074FFF7E7FF00F007FC304655
:103C600070BD00005CA6002010B50446FFF7A4FA62
:103C7000204601F021FFBDE8104000F0F7BB10B571
:103C80000446FFF799FA204601F04CFFBDE81040CA
:103C900000F0ECBB10B50446FFF78EFA204601F0A9
:103CA00057FF044600F0E2FB204610BD70B5044605
:103CB000FFF782FA0348C56904B1C46100F0D6FB7E
:103CC000284670BD5CA6002070B504460D46164619
:103CD000FFF772FA32462946204601F055FF0446A6
:103CE00000F0C4FB204670BD70B504460D46164674
:103CF000FFF762FA32462946204601F05BFF044690
:103D000000F0B4FB204670BD70B504460D46FFF7C9
:103D100053FA2946204601F079FF044600F0A6FB3D
:103D2000204670BD70B50546FFF746FA0348847E0D
:103D3000857600F09BFB204670BD00005CA600204D
:103D400070B505460C46FFF737FA0948224605804C
:103D5000084804800848417C00EB8100C06CC168C1
:103D60000B6A29469847BDE8704000F07FBB000011
:103D7000FC000020FE0000205CA6002070B5054677
:103D8000FFF71AFA0348047E057600F06FFB204621
:103D900070BD00005CA6002070B50446FFF70CFA69
:103DA0000348B0F92C50848500F060FB284670BDB4
:103DB0005CA6002070B50446FFF7FEF90348B0F991
:103DC0002A50448500F052FB284670BD5CA60020B6
:103DD00002480068002800D000477047A404002073
:103DE00002498A6802B98860FFF7F2BF0C0100201F
:103DF00070B50446FFF7E0F994B10E4D2868A04273
:103E000004D1FEF761FB8068286009E0FEF75CFBE7
:103E100005468068A042F9D1FEF756FB8068A8608D
:103E200020460BF0DDF82046FEF754FABDE870405E
:103E300000F01CBB8804002070B504460020206000
:103E40000448056825B12846FEF73EFB006920605E
:103E5000284670BD8804002070B504004FF00000B3
:103E60000D46086009D02046FEF72EFB846824B179
:103E70002046FEF729FB00692860204670BD00003F
:103E80002DE9F84FDFF890800446244FD8F8180049
:103E9000894641070A9D787C92469B4606D401F0EC
:103EA0004FFC0646787C01F057FC05E001F054FC1D
:103EB0000646787C01F044FC002794B1A0F1010093
:103EC0000646BBEB050000D54042142806DB5146F0
:103ED000B9EB0A0000D54042142804DA0120BDE8FD
:103EE000F88F701EECE70A465B4649463846009557
:103EF00009F018F90A4F5B46524647F83400494624
:103F00003046009509F00EF907EBC4014860012125
:103F10000020C8F81C10E2E73C0100205CA600204D
:103F200078A700202DE9F0475B4D5C4C0026E8693E
:103F300030B1D4E90001884210DAC5E9080111E086
:103F40006868266000F00501666010F0060F01D079
:103F500000F00500A6600120E660E8612068686264
:103F600060682862D4E90201884202DAC5E90A01E0
:103F700001E0C5E90A102878C8B100F0D9F8A846D0
:103F8000286100F0D3F82969286A81420BDBD8F850
:103F900024204046914206DC836A42699A4202DB51
:103FA000C36A9A420EDD4FF0FF3001466FE000F029
:103FB000F9F8686100F0BBF8287800F1010028707A
:103FC000BDE8F087D8F81800354D22684007687CB6
:103FD000A1EB020702D401F0B3FB01E001F0BCFB4E
:103FE000D4E90021A0F1010007FB00F7A1EB0201D9
:103FF000D8F81420A068A14697FBF1F7A2EB0004C3
:10400000D8F818004007687C02D401F0A5FB01E055
:1040100001F096FBA0F1010004FB00F4D9E90201D4
:10402000A1EB000094FBF0F4D8F818004007687C7E
:1040300017D401F085FB8146687C01F08DFBD8F830
:1040400018200146D00704D0A9EB0700A0F1010019
:1040500000E03846920702D5091B491E17E02146A9
:1040600015E001F079FB8146687C01F069FBD8F826
:104070001820D10704D0A9EB0701A1F1010100E04C
:104080003946920702D5001B401E00E020460AF088
:10409000B7FE88F8006093E73C01002078A7002075
:1040A0005CA6002001498861704700003C010020A7
:1040B000074A002806DB002904DB01231372C2E94A
:1040C000000101E000201072014800F003B8000078
:1040D000C4AB002010B504460C220749FCF7F7F8E2
:1040E000002808D0044894E80E000EC02046BDE821
:1040F0001040FFF771BC10BDDCAB002030B40A4C9F
:104100002268831A01D5C3F1000362688A1A00D5B8
:1041100052421A44022A04DDC4E9000130BCFFF710
:10412000C7BF30BC704700009C0400207047704738
:1041300070B586B000241422194901A8FCF79EF935
:10414000002501AE05E003F0DFF826F81400641C3A
:10415000E4B20A2CF7D320D1641E002500200CE025
:10416000411C36F8102036F811309A4204D926F84E
:10417000112026F810300125C8B2A042F0DB002D36
:10418000EBD1BDF80A00BDF80C100844BDF80E10C4
:1041900008440321B0FBF1F085B2284606B070BD9B
:1041A00080FB000870B586B000241422194901A8CC
:1041B000FCF764F9002501AE05E003F0C9F826F824
:1041C0001400641CE4B20A2CF7D320D1641E00252D
:1041D00000200CE0411C36F8102036F811309A42CD
:1041E00004D926F8112026F810300125C8B2A042C3
:1041F000F0DB002DEBD1BDF80A00BDF80C1008442F
:10420000BDF80E1008440321B0FBF1F085B228463A
:1042100006B070BD94FB00082DE9F041084E04463D
:104220000568306801682846884707463068416855
:1042300028468847284420603846BDE8F0810000C1
:10424000D80000202DE9F04106460C460025064F17
:1042500005E0386841683046884706440544641ED6
:10426000F7D22846BDE8F081D80000202DE9F047BC
:104270000646089D884614469946B0682246641C46
:1042800047684B4641463046B8476D1EF5D1BDE8FC
:10429000F08770B5B0F90040B0F90250091B00F189
:1042A00014040069521B02FB0040CA1800EBE10431
:1042B000521ED010B0EBE10501F007034FF0FF01F3
:1042C00002F0070221FA03F0C2F1070201FA02F13B
:1042D000CEB221780FD001436D1E04F8011B002DD2
:1042E00005DDFF2229462046FCF7C0F82C44207843
:1042F0003043207070BD30400143217070BD10B557
:10430000B0F90030B0F90240C91A00F11403006995
:10431000121B02FB003000EBE10001F00703027802
:104320008021D9400A43027010BDB0F9061002691D
:1043300051431430FCF7D4B82DE9F047804602F120
:104340000F000011460003FB06F0894615461C4687
:104350001430FDF7A4FF070012D0FEF72DFF3846FA
:10436000FEF7B2F8A0F80080A0F802908580C48023
:104370000449816001218181066100F077F83846A7
:10438000BDE8F0877C1D010870B5B0F90660B0F992
:1043900004400B6800F11405964220DD0069A34239
:1043A00002FB005000EBE30219DAA4F101044FEA2A
:1043B000E400A0EBE30512F8010B03F0070400FA98
:1043C00004F0C4B208E055B112F8014B03F1080340
:1043D000A5F1010523F00703002CF4D008E000202C
:1043E00070BD00BF4FEA44604FEA106403F101035F
:1043F0002006F7D5FF2C0AD0184605E04FEA4464A2
:104400004FEA146400F101006606F7D400E0D81DFD
:10441000C443640706D007E012F8014BFF2C0FD10C
:1044200000F108006D1EF7D5A0EB030000F10100BC
:104430000B6070BD4FEA44624FEA126400F1010064
:104440002206F7D4F0E710B50446FEF7B5FE204685
:10445000FEF73AF88189491E09B2818111B92046D7
:10446000FDF738FFBDE81040AFF300800348C16896
:10447000491EC16001D100F03FB870476C040020B4
:1044800010B54FF4E0410448FDF71CFFBDE81040B3
:104490008020FEF705B80000DC350020322002F055
:1044A00023B800000248006890F82E007047000012
:1044B0005000002010B5002001F0E4FD0149C86063
:1044C00010BD00006800002010B5012001F0DAFDE9
:1044D000034C6060002001F0B3FDA06010BD00003F
:1044E0006800002008B503486A460021406801F0D2
:1044F000EBFD08BD680000200148406801F040BEA7
:10450000680000200EB508B102AA00E000220023D6
:1045100001A9684600F04EFC0EBD000003490A697F
:1045200000B1012008611046704700002001002002
:104530002DE9F0410C461646984688B3FEF7CEFDAD
:10454000074608F00300012825D0022817D0B4F947
:10455000005000BFFEF78CFD014608F00C00042857
:104560002BD00C281DD0B4F9020035807080EA19D8
:10457000521E0844B280401EF080BDE8F081B4F9BC
:104580000400B4F90010401AC01B401C00EBD070AE
:1045900001EB6005DEE7B4F90400C51B6D1CD9E72B
:1045A00010E0B4F90600B4F90220801A401A401C49
:1045B00000EBD07002EB6000D7E7B4F90600401AB8
:1045C000401CD2E72068306060687060D5E710B5A5
:1045D000082A0DDC0346012A15D0022A4BD0042AF2
:1045E00066D004C803F8012B491EFAD1012010BD82
:1045F000102A06DC024608C822F8023B491EFAD1FE
:10460000F4E7002010BD04C8D207120E491E2DD0B9
:1046100010C8491E04F0010442EA841226D010C8D2
:10462000491E04F0010442EA44121FD010C8491E7A
:1046300004F0010442EA041218D010C8491E04F024
:10464000010442EAC40211D010C8491E04F001045A
:1046500042EA84020AD010C8491E04F0010442EA6A
:10466000440203D010C804F00104224303F8012BD4
:104670000029C8D1BAE704C89207120E491E12D009
:1046800010C8491E04F0030442EA04120BD010C8FB
:10469000491E04F0030442EA840204D010C804F066
:1046A00003042243491E03F8012B0029E3D19DE7AF
:1046B00004C81207120E491E04D010C804F00F04DB
:1046C0002243491E03F8012B0029F1D18EE72DE981
:1046D000F0411E6804460D46082A09DC0746012AF7
:1046E0001AD0022A5BD0042A7DD0082A13D18DE08B
:1046F000102A07DCD3F810C00746BCF1000F04D025
:10470000022389E00020BDE8F08101CCB04727F802
:10471000020B6D1EF9D18AE001CCB047C0074FEA09
:1047200010686D1E36D001CCB04748EA801000F00A
:10473000FF086D1E2ED001CCB04748EA401000F0B3
:10474000FF086D1E26D001CCB04748EA001000F0EB
:10475000FF086D1E1ED001CCB04748EAC00000F033
:10476000FF086D1E16D001CCB04748EA800000F06B
:10477000FF086D1E0ED001CCB04748EA400000F0A3
:10478000FF086D1E06D001CCB04740EA080000F0DB
:10479000FF086D1E07F8018B002DBDD147E001CC4D
:1047A000B04780074FEA10686D1E16D001CCB047A5
:1047B00048EA001000F0FF086D1E0ED001CCB04793
:1047C00048EA800000F0FF086D1E06D001CCB0471B
:1047D00040EA080000F0FF086D1E07F8018B002D6D
:1047E000DDD124E0FFE701CCB04700074FEA1068B5
:1047F0006D1E06D001CCB04740EA080000F0FF086B
:104800006D1E07F8018B002DEDD110E0D3F810C01C
:10481000BCF1000F05D001230A4601463846E047A7
:1048200005E001CCB04707F8010B6D1EF9D101205E
:1048300069E700000A4810B5016900290ED101217D
:104840000161FFF71DFE01F023FA05490548143107
:104850000860BDE81040084600F03CBC10BD0000F8
:10486000D000002089D200087CB5054624480E46B9
:10487000006868B1002003F0A9FF06E06A463146EF
:10488000284604F039FF03F063FF0028F6D17CBD11
:10489000106800901B4C50680190BDF80010206C0F
:1048A0000144ADF80010BDF80220616C0A44ADF877
:1048B0000220BDF804201044ADF80400BDF8060045
:1048C0000844ADF80600684603F080FF0DE000BF25
:1048D000BDF800006084BDF80200A0846A4631463D
:1048E000284604F009FF03F033FF0028F0D1608C64
:1048F000216C401A6084A08C616C401AA0847CBD3D
:10490000F80000205CA600202DE9FF4F85B00024B0
:104910000D4690469A46A146DDF814B0FEF7A8FB76
:10492000064625B1286800906868019002E0684654
:10493000FEF782FB18F00C0F02D05546012713E05A
:10494000BDF902402DE02946059800F0ABFA01467A
:104950006D1A0598FFF776FC05990844059005A89F
:1049600000F0E4FA10B97F1C002DECD108F00C0027
:10497000042804D0082802D00C2812D105E0BDF983
:10498000060007FB1604641C0BE0BDF90600BDF928
:104990000210401A07FB1600401C00EBD07001EB20
:1049A00060045546CDF814B042E02946059800F061
:1049B00079FA07460146ED1B059800F04BFA18F00E
:1049C00003010ED0012938D002290DD1BDF9041000
:1049D000BDF90020891A091A01EBD17102EB6101BE
:1049E00001E0BDF900108946164A401E4844A2F86D
:1049F0002290ADF80C00ADF808909484A019401EE8
:104A0000ADF80E00ADF80A4002AA39460598FFF746
:104A10002BFF39460598FFF715FC059908440590CA
:104A2000FEF726FB044405A800F080FA002801D117
:104A3000002DBAD109B0BDE8F08FBDF90410091AF4
:104A4000491CD0E75CA6002049B1002802DAA0EB9F
:104A5000610001E000EB610090FBF1F07047002085
:104A6000704700002DE9FF4F00208BB0044601463F
:104A70000090199891461D46016009AB002206A9D5
:104A800002A800F097F918B100200FB0BDE8F08F30
:104A90000998854200DD0546404E0795707C06EB7F
:104AA0008001C96C049109690591FEF78BFA0390A6
:104AB000707CFEF747FB3A498046884204D039496A
:104AC000884501D0012000E000200890189959F88D
:104AD000040B884783465FEA106A5AD0009858BB97
:104AE0000B9807192D48B0F90800B84202DDC61B23
:104AF000074600E000260298049900EB840000EBD2
:104B00008600CDE9000107990B980C9B42180A9288
:104B1000521E19463846FEF787FF01200090039881
:104B200018280ADA0298A91B00EB840000EB860023
:104B3000059B039A00F0A0F80EE0089860B1029877
:104B400000EB840000EB86060A98C71B41463068DC
:104B5000884701C67F1EF9D1BAF1FF0F0ED0029827
:104B6000CAF1FF0250F82410584600F075FA069971
:104B700041F8240019990120086005E0029806997F
:104B800050F8240041F82400641C6D1E9ED1069844
:104B90007BE7069941F824B0ECE700005CA6002012
:104BA000E3570008E15700082DE9F04F85B00546AE
:104BB0000EA80C46B0E8800392469B46FEF7FCFA2E
:104BC0001348016C0D440E19416CABF1010001EB6F
:104BD0000A04ADF810602044ADF80C50ADF8120096
:104BE000ADF80E4003A803F0F1FD09E08DE8800365
:104BF0005B4622463146284606F096FE03F0A8FDA5
:104C00000028F3D1FFF732FC05B0BDE8F08F0000BB
:104C10005CA600202DE9F04F87B0044610A80D4691
:104C2000B0E8000F16461F46FEF7C6FA1149086C99
:104C3000496C044406440D440F44ADF81040ADF8EF
:104C40001460ADF81250ADF8167004A803F0BEFD64
:104C500009E08DE8000F3B4632462946204606F023
:104C6000E5FE03F075FD0028F3D1FFF7FFFB07B069
:104C7000BDE8F08F5CA600202DE9F05F0C1E16DD6C
:104C80005E68014600EB8405082A12DC611E012AD9
:104C900026D0022A46D0042A68D0082A07D107194C
:104CA00017F8010DB04745F8040D641EF8D1BDE8B2
:104CB000F09F102AFBDC5F693FB12246BC46BDE88D
:104CC000F04F02235DF804EB604701EB440700BF9F
:104CD00037F8020DB04745F8040D641EF8D1E6E739
:104CE00000EBE1002D1F10F801A9814601F0070734
:104CF000802020FA07F800BF0AEA0800C7F1070180
:104D0000C840B04745F804093FB17F1E4FEA4860EC
:104D1000000E8046641EEFD1C9E7072719F801A9E4
:104D20000120F6E700EBA1002D1F01F0030710F8AA
:104D300001A981467900C02020FA01F84FF0060B46
:104D40000AEA0800ABEB4701C840B04745F8040940
:104D50003FB17F1E4FEA8860000E8046641EEFD18F
:104D6000A5E7032719F801A93846F6E700EB61002B
:104D700001272D1FA74310F801A98146B900F02093
:104D800020FA01F84FF0040B0AEA0800ABEB8701A8
:104D9000C840B04745F804093FB17F1E4FEA08708C
:104DA000000E8046641EEFD181E7012719F801A9A2
:104DB0000F20F6E72DE9F047204C0646884620698B
:104DC00091461F46002540B90120206104F11401DD
:104DD0001B480860084600F07DF9E06810B900F053
:104DE000A0FCE06007B138604EB1206830B9E068DF
:104DF0008000FDF7BBFA206000B901253060B8F1F2
:104E0000000F0AD0606830B9E0688000FDF7AEFAA4
:104E1000606000B90125C8F80000B9F1000F0AD0A0
:104E2000A06830B9E0688000FDF7A0FAA06000B982
:104E30000125C9F800002846BDE8F0875405002088
:104E4000F1D200080248C169087EC97E4843704714
:104E50005CA6002073B5114A01A90098126890471A
:104E600000240090C0B10E490025C969496959B1B3
:104E70000A684AB1019990477CBD6846FFF7CCF9B2
:104E80000546FEF7B5F804440198401E0190F4D59C
:104E9000284600F03FF8044420467CBD6004002012
:104EA0005CA6002073B50D460098002488B10A491D
:104EB000C969496959B14A684AB1294690477CBDD8
:104EC0006846FFF7A9F920B10A2802D0641CAC4259
:104ED000F6DB20467CBD00005CA6002031B5002436
:104EE000009808B905E0641C6846FFF795F90028AA
:104EF000F9D1204638BD0000044AB2F90020026012
:104F00000348B0F90000086070470000FC00002072
:104F1000FE00002038B5002469460094FEF77AF8B8
:104F20000099814200DD0C1A204638BD016811F855
:104F3000012B12B10A2A02D002E001207047016061
:104F400000207047B0F90030B1F90020934200DA38
:104F50000280B0F90230B1F90220934200DA4280B7
:104F6000B0F90430B1F90420934200DD8280B0F939
:104F70000620B1F906108A4200DDC180704770B585
:104F8000B1F90030B2F90040A34200DC23460380AF
:104F9000B1F90240B2F90250AC4200DC2C46448028
:104FA000B1F90450B2F90460B54200DB35468580A2
:104FB000B1F90610B2F90620914200DB1146C1801A
:104FC0009D4201DBA14201DA002070BD012070BDCD
:104FD00001460248407C00F003B800005CA60020B7
:104FE000F8B51C4C02460E0020684FF0010515D0A4
:104FF000012E2CD180B91046FDF770FC009030B323
:10500000C0680D21426A6846904702001FD03146B1
:105010000098904720680025401C17E001280FD118
:105020001046FDF75BFC009050B1C0680D21426A4C
:1050300068469047020003D031460098904700250B
:10504000206808B1012100E00021401A20602846B4
:10505000F8BD00005C04002070B5FF23B3EB116FB6
:105060002AD0C3B200F47F4400F47F05060E5343F8
:10507000544355435643C2F1FF00CAB202FB00320B
:1050800001F47F4303FB004301F47F04090E04FB9A
:10509000005401FB0061C2F307204FF47F4202EA93
:1050A00013224FF47F0303EA14234FF07F4410438D
:1050B00004EA01411843084370BD0B881344038080
:1050C0008B889B1A83804B8813444380C988891A34
:1050D000C18070470249CA684260C86070470000DA
:1050E000D00000202DE9F0410768064688460025DB
:1050F000384600F089F8F8B1404600F093F8441CB7
:105100003846FDF79DF9844207D13846FDF7DCF9B2
:1051100022464146FBF727F90DE02046FDF7B0F89F
:10512000040009D0FDF7D0F94146FBF7F7F8304607
:10513000FDF700F9346001252846BDE8F081000044
:1051400010B502E000F8011B521E0AB18307F9D125
:10515000930818D001EB014402F0030204EB04248D
:1051600005E0046044608460C46010301B1F042BA1
:10517000F7DA01E010C05B1E002BFBD103E000BF9B
:1051800000F8011B521E002AFAD110BD10B583078A
:1051900002D520F8021B521E530810D001EB014427
:1051A000042B08DB046044608460C46010301B1F63
:1051B000042BF7DA01E010C05B1E002BFBD1D207F5
:1051C00000D0018010BD024600204FF080414318FE
:1051D000934201D8D21A581840088908F7D170476D
:1051E00000B908A001B907A102780B789A4207D14B
:1051F00010F8012F491C002AF6D10878002800D0A9
:10520000012070470000000010B502000C464FF06E
:10521000000002D01046FDF757F92146BDE81040C6
:10522000FFF7DEBF4FF0FF3120B110F8012B491C12
:10523000002AFAD10846704700F58060AFF300807D
:1052400010B50022C0F30B00B0F5006F02DDA0F531
:1052500000600122B0F5806F01DDC0F500608311B0
:105260000B4C00F03F00C0F1400134F813004843FC
:10527000402906D004EB4303C1F140015B8803FBE6
:10528000010020308009002A00D0404210BD0000FB
:10529000EC05010810B5416804290DD004DC022991
:1052A00010D0032913D104E00A290ED010290ED101
:1052B00005E004F0C3FA0AE005F0ACFC07E006F0F4
:1052C000D6F904E004F08CFA01E006F005F90020BC
:1052D00010BD0000044A0349116004490A690861CD
:1052E00010467047D0020020D4040020DC040020C7
:1052F000704770477047704703494A7C01EB820151
:10530000C96C0969096808475CA600202DE9F04FBF
:1053100005468DB07D481E46DDF860901A9C0368F6
:105320008C4617464FF000087BB11B981999CDE9C0
:105330000440CDE90291DDE91601CDE900011C68C8
:1053400033463A466146284684E0DDE916020CEB16
:105350000601EB19491E5B1E1043012807D0C9F155
:10536000080005900020CDF808C00890CAE0DFF8DA
:10537000A081B8F90A20A2EB0C00002806DD361A3D
:10538000002E68DD9446199A00FB0244B8F90E001D
:10539000081A002802DD361A002E5CDDB8F90C0070
:1053A000181A002800DD3F1AB8F908100020A94299
:1053B0003CDD574A481B3F1AB2F908204946521BA8
:1053C0002A44B9F1080F28D007DC01290DD00229A1
:1053D00013D0B9F1040F29D117E010291FD01829D3
:1053E00020D0B9F1200F21D11CE020F0070104EBFF
:1053F000E0040D4400F0070018E020F0030104EB86
:10540000A0040D4400F0030010E020F0010104EBC3
:1054100060040D4400F0010008E0044404E004EBE3
:10542000400401E004EB800415460020002F12DD4B
:105430001B99199ACDE90401CDE90224CDE900694F
:1054400098F811003B4608EB80006246C06CC168CA
:105450004C682946A0470DB0BDE8F08F1799029817
:1054600008440C902A49401E0090B1F90A2082425B
:1054700040DC0846B0F90E10029881423ADB4FF04A
:10548000000BDA4603950A9432E000BFBBF1000F2F
:1054900005D10A984FF0080B10F8018B0A90059976
:1054A000ABEB090B38FA01F008FA09F101F0FF083B
:1054B00003D11749097C890714D4164909680A6879
:1054C0000B921B9A0AB152F82000086016990398B3
:1054D000009B4218521E029900F0A2F80D480B9949
:1054E00000680160169903980AF1010A08440390C4
:1054F000BA45CBDB0898401C08900C98029019988C
:1055000004440898B042A9DBA5E70000F800002099
:105510005CA60020B8040020F0B40C461149B1F993
:105520000A30A3421CDCB1F90E30A34218DBB1F9FA
:105530000830834200DD1846B1F90C30934200DA9E
:105540001A4682420CDB4B7C01EB83011346CD6C87
:105550002246E9688E6801462846B446F0BC60479A
:10556000F0BC70475CA600200A46174930B4B1F978
:105570000A30934225DCB1F90E30934221DBB1F9B8
:10558000083083421DDCB1F90C30834219DB097C01
:10559000CB070D494C7C01EB840107D0CB6CD9685B
:1055A000CC690146A44630BC18466047CC6C074B1A
:1055B000E1681B688D6901461B682046AC4630BC1B
:1055C000604730BC704700005CA60020B804002093
:1055D000F0B40C461149B1F9083083421CDCB1F932
:1055E0000C30834218DBB1F90A30A34200DD1C46BF
:1055F000B1F90E30934200DA1A46A2420CDB4B7C22
:1056000001EB83011346CD6C2246E968CE68014662
:105610002846B446F0BC6047F0BC70475CA600204A
:1056200038B5134CB4F90850854200DD2846B4F96A
:105630000C50954200DA2A46824217DBB4F90A5030
:105640008D4200DD2946B4F90E509D4200DA2B460A
:105650008B420BDB0093637C04EB8303DC6CE3681D
:105660001D6913460A4601462046A84738BD00007A
:105670005CA60020082107F08FB9000001480068EF
:1056800000687047B4040020014800680068704753
:10569000B804002002480921407C07F07DB90000D1
:1056A0005CA60020092107F077B910B50024204638
:1056B000FDF714F900B10124204610BD0148407CDB
:1056C00000F002B85CA6002010B5FDF707F900282D
:1056D00005D0C168CA6ABDE810400221104710BD5C
:1056E000F8B50D4616460124FDF7F8F8009058B1BC
:1056F000C0680421426A68469047030004D03246DD
:1057000029460098984700242046F8BD02480E21FB
:10571000407C07F041B900005CA60020032107F09F
:105720003BB9032007F0FDB9042107F035B90000AB
:1057300002480121407C07F02FB900005CA6002040
:10574000012107F029B9000002480221407C07F03E
:1057500023B900005CA60020022107F01DB900F06B
:1057600001B800002DE9F041002806D086681EB17E
:105770000568B5F5807F02DD0020BDE8F0810024DA
:10578000064F06E056F82400FFF7B6FD47F8240060
:10579000641CAC42F6DB0148EFE70000B8A700202C
:1057A00003494A7C01EB8201C96C096949680847D1
:1057B0005CA6002010B5084B084A00F01F01C0F39A
:1057C0004514C0F3C420595C125D185C01EB022142
:1057D00001EB004010BD0000380301085803010828
:1057E0007047704738B500F091F900242046FDF766
:1057F00075F8009048B1C0680C21426A684690472D
:10580000010026D000988847044600F025F80025BE
:105810002846FDF763F80090C8B12846FEF712FA53
:10582000042000F095F940F6FF7200211346084667
:10583000FFF7F6FE002000F08BF900980E21C068FB
:10584000426A68469047010001D000988847204688
:1058500038BD012038BD00002DE9F047FFF725FFD6
:10586000804600242AE02046FDF738F828B3204679
:10587000FEF7E8F981462046FFF7FCFE082819DC10
:105880001048114900EB8400C06C0069884211D0B7
:105890002046FFF707FF0646002509E0E8B2074665
:1058A000FFF77EFF02463946204600F057F96D1C8F
:1058B000B542F3DB4846FEF7C5F9641C4445D2DB2C
:1058C000BDE8F0875CA60020FC1D0108002906D079
:1058D000034A138820F8023B491E0029F9D170477A
:1058E000000002602DE9FF4F83B01646DDE910404D
:1058F0008B46C0684769426A7AB1012111A8904776
:1059000005000AD00698CDE9000433465A460399AB
:105910001198A84707B0BDE8F08F5748407CFDF7C5
:1059200051FB8246082801DC012005E0BAF1100F86
:1059300001DC022000E004208046002596E040467D
:10594000B8F1010F05D0022871D0B8F1040F25D1AC
:105950007CE0BAF1090F21D2DFE80AF08605213F89
:105960003F8686865900039815E001465A461198ED
:10597000B847C5F1070188404FF67F722178EA40A9
:10598000114001436D1C217004EBE50425F0070074
:10599000054109F101008146B042E6DD64E003986B
:1059A00017E001465A461198B8470621A1EB450178
:1059B00088406B004FF63F722178DA401140014376
:1059C0006D1C217004EBA50425F00300054109F1CD
:1059D00001008146B042E4DD46E0039813E0014651
:1059E0005A461198B8470421A1EB850188402178D7
:1059F000AB000F229A401140014321702C4485F0E6
:105A0000010509F101008146B042E8DD2CE0DDF836
:105A10000C9007E001465A461198B847207009F1EA
:105A2000010944444846B145F4DD1DE0FFE7DDF8D7
:105A30000C9007E001465A461198B847208009F1BA
:105A4000010944444846B145F4DD0DE0DDF80C9011
:105A500007E001465A461198B847206009F101094C
:105A600044444846B145F4DD0BF1010B06988345EB
:105A70007FF765AF4EE700005CA6002010B50D4C27
:105A8000607C04EB8000C06C04E0C16809680429F4
:105A900003D000680028F8D102E008B1FCF706FF47
:105AA00000206065034808306061BDE8104000F0E8
:105AB0002DB800005CA60020014909684968084724
:105AC000B00400200449097C490701D5034900E0DE
:105AD00003490968086070475CA60020B8040020EC
