:020000040800F2
:10000000E0B4002001010008050100080701000814
:10001000090100080B0100080D01000800000000A4
:1000200000000000000000000000000011010008B6
:100030000F0100080000000063020008C58B0008E3
:10004000A9AC0008ED830008398C0008158500086C
:100050000516000811850008F7150008FB150008B3
:10006000FD150008FF15000801160008951000088E
:1000700097100008991000089B1000089D100008B8
:100080009F100008A1100008A9080008E18C0008D2
:10009000E38C000891100008931000080316000874
:1000A0003B8C0008418C00083F8C00083D8C000808
:1000B000438C0008458C0008478C0008A3680008A2
:1000C000A1680008A7680008A56800087B8A0008E6
:1000D0007D8A0008D98C0008DB8C0008DD8C0008C4
:1000E000F915000813850008DF8C000800000000E7
:1000F0000000000000000000000000000000000000
:1001000004480047FEE7FEE7FEE7FEE7FEE7FEE7FE
:10011000FEE700001901000800F002F800F065F8A1
:100120000AA090E8000C82448344AAF10107DA4552
:1001300001D100F05AF8AFF2090EBAE80F0013F03F
:10014000010F18BFFB1A43F001031847585701006D
:10015000785701000A444FF0000C10F8013B13F0EF
:10016000070408BF10F8014B1D1108BF10F8015B10
:10017000641E05D010F8016B641E01F8016BF9D103
:1001800013F0080F1EBF10F8014BAD1C0C1B09D15A
:100190006D1E58BF01F801CBFAD505E014F8016BCC
:1001A00001F8016B6D1EF9D59142D6D3704700005E
:1001B0000023002400250026103A28BF78C1FBD870
:1001C000520728BF30C148BF0B6070471FB5AFF35F
:1001D000008000F041FB04000020002112F0EAFB47
:1001E000401C60601FBD10B510BD00F00FFB114634
:1001F000FFF7ECFF12F056FB00F044FBFFF7F3FFB4
:1002000000F048FB02480349034A044B70470000D2
:10021000E0AC0020E0B40020E0B00020E0B000201E
:10022000EFF3108072B6704780F31088704724484F
:100230004FF0FF010170002080F309881D48012163
:10024000017020484FF08051016062B6FEE71D4802
:100250004FF08051016070471A484FF080510160A3
:100260007047EFF3098028B1203880E8F00F124979
:100270000968086000B50A4880475DF804EB0B4840
:100280000B490A7802700C480C490A680260106831
:1002900090E8F00F203080F309884EF0040E70478C
:1002A000577B00085D7600085600002058000020AB
:1002B000590000205B000020780000208000002012
:1002C00022ED00E004ED00E072B6704762B67047C0
:1002D000EFF3108072B6704780F31088704770B5E6
:1002E000064600F09DF90468054630460A220021C2
:1002F00000F09CF92C6070BD40EA010310B59B072B
:100300000AD1042A08D310C808C9121F9C42F8D089
:1003100020BA19BA401A10BD0AB9002010BDD3077F
:1003200001D0521C05E010F8013B11F8014B1B1BDA
:1003300007D110F8013B11F8014B1B1B01D1921E94
:10034000F1D1184610BD40EA0103024630B59B07C3
:1003500010D14FF0013400E008C208C91D1B9D43B5
:1003600015EAC41FF8D013F0FF0102F8011B0ED0EC
:100370001B0AF8E711F8014B02F8014B002C134659
:1003800005D011F8014B5A1C002C1C70F2D130BD65
:1003900010B5431C04E010F8011B09B9C01A10BDC8
:1003A0008107F8D14FF0013202C88C1A8C4314EA4D
:1003B000C211F9D0C01A0A0601D0C01E10BD0A042D
:1003C00001D0801E10BD0902FCD0401E10BD032AC2
:1003D00040F2318010F0030C00F0158011F8013B61
:1003E000BCF1020F624498BF11F801CB00F8013B49
:1003F00038BF11F8013BA2F1040298BF00F801CB0D
:1004000038BF00F8013B11F0030300F06B80083A9D
:10041000C0F0098051F8043B51F804CB40F8043B8C
:1004200040F804CBF3E7121D5CBF51F8043B40F8E1
:10043000043BAFF30080D20724BF11F8013B11F851
:1004400001CB48BF11F8012B24BF00F8013B00F895
:1004500001CB48BF00F8012B7047431A28BF9A42CE
:100460007FF6B5AF032A1044114440F2218010F00A
:10047000030F1EBF11F8013D521E00F8013D10F0A0
:10048000030F7FF4F6AF083AC0F00A8051F8043D3C
:1004900051F804CD40F8043D40F804CDFFF7F3BF18
:1004A000121D5CBF51F8043D40F8043DAFF30080DD
:1004B000D20724BF11F8013D11F801CD48BF11F852
:1004C000012C24BF00F8013D00F801CD48BF00F821
:1004D000012C704702F0FF0343EA032242EA024282
:1004E00000F0DEB810B5203AC0F00B80B1E818502B
:1004F000203AA0E81850B1E81850A0E81850BFF40E
:10050000F5AF5FEA027C24BFB1E81850A0E81850AC
:1005100044BF18C918C0BDE810405FEA827C24BF00
:1005200051F8043B40F8043B08BF7047D20728BF8E
:1005300031F8023B48BF11F8012B28BF20F8023BDD
:1005400048BF00F8012B70474FF0000200B513467A
:1005500094469646203922BFA0E80C50A0E80C50E3
:10056000B1F12001BFF4F7AF090728BFA0E80C5094
:1005700048BF0CC05DF804EB890028BF40F8042B8D
:1005800008BF704748BF20F8022B11F0804F18BFFA
:1005900000F8012B704700004FF0013C50F8042B8D
:1005A00051F8043B9A4221D1A2EB0C03934313EA86
:1005B000CC1317D150F8042B51F8043B9A4215D1B3
:1005C000A2EB0C03934313EACC130BD150F8042B8A
:1005D00051F8043B9A4209D1A2EB0C03934313EA6E
:1005E000CC13DBD04FF0000070470000D01A01BAE6
:1005F000B1FA81F101F0180122FA01F0CB40C1F10A
:100600002001DBB2C0B2C01A2CFA01F3D11A914317
:1006100011EAC311E6D17047704770477047000078
:1006200001487047704700007CAC00202DE9F0477E
:1006300080460F4691460446002614F8015B2DB112
:1006400000F090F80068405DC007F6D12B2D05D072
:100650002D2D02D146F4806600E0641E4A463946DC
:10066000204600F087F827B13968A14201D1C7F8C8
:1006700000804FF00204710508D54042002803DDD8
:10068000FFF7CEFF0460A007BDE8F0870028FBDA83
:10069000FFF7C6FF04606FF00040F5E74FF000027F
:1006A0000429C0F0128010F0030C3FF44FAFCCF1DE
:1006B000040CBCF1020F18BF00F8012BA8BF20F8F2
:1006C000022BA1EB0C01FFF741BF5FEAC17C24BF05
:1006D00000F8012B00F8012B48BF00F8012B7047F0
:1006E000431A28BF9A427FF6FDAE104410F0030F64
:1006F00011441EBF11F8013D521E00F8013D10F0DB
:10070000030F7FF4F6AF103AC0F00A8010B531E95C
:100710001850103A20E91850BFF4F9AFBDE8104066
:10072000530724BF31E9081020E9081044BF51F8ED
:10073000043D40F8043D12F0030F08BF7047D20794
:1007400028BF31F8023D48BF11F8012C28BF20F81E
:10075000023D48BF00F8012C704700000048704778
:100760007CAC002010B500F077F8001D10BD000033
:10077000452201002DE9F05F824604468B4615466E
:10078000641C0027B9460078302811D114F8010BF9
:100790000127782801D0582807D10DB1102D09D193
:1007A000002714F8010B102504E01DB9082501E00D
:1007B00005B90A250026B0460EE005FB080005FB3A
:1007C00006F101271FFA80F801EB1046B6F5803FCD
:1007D00000D3B94614F8010B294600F043F800286D
:1007E000EBDABBF1000F04D0641E07B95446CBF816
:1007F0000040B9F1000F06D0FFF712FF022101609F
:10080000C81EBDE8F09F48EA0640FAE77546FFF7C4
:10081000A5FFAE4605006946534620F00700854611
:1008200018B020B5FFF7EEFCBDE820404FF0000601
:100830004FF000074FF000084FF0000B21F00701C8
:10084000AC46ACE8C009ACE8C009ACE8C009ACE80B
:10085000C0098D467047000001487047704700008E
:100860009CAC00203A2800D2303820F02002412AE7
:1008700001D3A2F137004FF0FF32884200D2024686
:10088000104670470446AFF300802046FFF7B6FCE1
:100890007047000003494FF01800ABBE70470000DE
:1008A000F1FFFFFF260002007047002800DC4042F5
:1008B000704710B500220A231146104607F07AF956
:1008C00004F06CFDF6E700002DE9F0418EB003F076
:1008D000EBFD4FF6FF7009F0B9FB03F029F8042097
:1008E00009F0A2FB00230621CDE9001302930021A9
:1008F000F0234FF4A072084608F0ACFC5D4CA061F8
:100900005D4909F012FB02F0CDFF00F061FB002110
:1009100003A801F049FA00250895002103A801F079
:100920001FFB012103A801F03FFA0895012103A84C
:1009300001F016FB514801F0EBFA514807F0DEFCDC
:10094000504800F025FB504807F0AEFE4F4808F035
:100950003FF84F4805F096FF0223A1691A028DE87F
:100960000E0023234B220A21D72000F091F92062A8
:10097000A1690223CA228DE80E0023234B223C21C9
:10098000D72000F085F9606242A1206A00F041FBA7
:1009900042A1606A00F03DFB00230093414A15210B
:1009A0004148019303F00EF8E06103F0F9FB4FF4C6
:1009B00080752946E06908F045FE0023009340F267
:1009C000E736019333460022012100F051FD6F1CF0
:1009D0003946E06908F036FE002300930193334660
:1009E0000022012100F044FD4FF481784146E06986
:1009F00008F028FE002300930193334600220121D2
:100A000000F036FD2946E06908F01CFE072100F0E1
:100A100069FD3946E06908F015FE072100F062FD26
:100A20004146E06908F00EFE072100F05BFD294613
:100A3000E06908F007FE09F021FBA06909F01EFC3F
:100A400008F0FAFD09F01AFCE06909F017FCA0694A
:100A500009F006F808F0F0FD09F002F8E06909F085
:100A6000F7FB03F083FB002232231146104607F008
:100A7000A1F8F6E700000020A925010811E400080C
:100A800079820008850D0008198500087188000822
:100A90004568000853746172740000004261636B22
:100AA0000000000055260108E029010870470000F9
:100AB00000B585B0012006F01FFE134948610323ED
:100AC0000022CDE903234FF400611048CDE9010174
:100AD00005230F4A00210F48009306F02DFF032342
:100AE00000220B48CDE90323001D4FF48071CDE9AE
:100AF0000101042300F57F7200210748009306F0EE
:100B00001BFF05B000BD000000000020040800200D
:100B100000280020C9080008B30800087047704783
:100B200070B507F0E9F806F0A7FEFFF7C1FF194E10
:100B3000194D002456F82400E968B1FBF0F200FBDF
:100B40001210C8B913490C3951F82400401C41F85F
:100B50002400C00705D01048283050F824008047F2
:100B60000AE00D48343050F82400804756F824003D
:100B7000052801D9401FE860641C032CDADB002340
:100B800001221946184607F015F8E868401CE8608D
:100B9000CFE70000D8050020000000207047704714
:100BA00010B507F05FFC02F099F811F093FEBDE874
:100BB000104001F07DBC000070B545680446014658
:100BC000284608F0B1F800285FD020682F4A0F2887
:100BD00018D006DC0B2823D00C280FD00E284FD1BC
:100BE0002DE0112802D028284AD143E09268002A3B
:100BF0004BD021462846BDE8704010472146284684
:100C00005268F8E7284602F0B5FC406E046802F02E
:100C10000BFD002C39D02846A446BDE87040604743
:100C2000284602F0A7FC0546683002F007FC0321C5
:100C300005F16C0002F010FC02F0F6FC20E0E16827
:100C4000486809680D2902D0202913D105E0002841
:100C500010DD28460EF061FF06E0002804DD28467E
:100C6000BDE870400EF059BF2846BDE87040022133
:100C70000EF068BFE06818B90021284600F09EF920
:100C80002046BDE8704008F09BBB70BD9401002079
:100C90002DE9FF410AAF70CF002703958DE8D00002
:100CA00000F003F804B0BDE8F081F0B585B00DF1B7
:100CB000280CBCE8F0004FF0000C8DE8F01000F0BC
:100CC00025F805B0F0BDF0B5044685B010461D46C8
:100CD000B4F90830668AA2690296CDE9033200278A
:100CE000CDE90017B4F90C10B4F910302944B4F967
:100CF0000A50B4F90E20284400F008F8054661684F
:100D000000F087F905B02846F0BD00002DE9FF5F2F
:100D10000546DDE911B4DDE90E780E4691469A46A6
:100D200003F012FC4C341549CDE90214CDE90078EA
:100D300053464A463146284608F09CFA050016D02C
:100D400002F018FC04461022594608F00DFA302231
:100D50000B4904F13400FFF7C5FB094E0C3E306827
:100D6000606602F061FC306841682846884704F0FC
:100D700007FE04B02846BDE8F09F0000B90B00084C
:100D8000A0010020F0B504468068804987B051F882
:100D90002050606800287DD0032804D004287AD031
:100DA000102879D1AAE0E86900284FD095E80E0014
:100DB0008DE80F0004F10C010FC905F0E7F90026DA
:100DC00055F8260004F031F96169E8690A1AE1680A
:100DD00001442069304403F0E3F86169E8690A1AC4
:100DE000E1680144A069801B03F0DAF8A169E869B1
:100DF0000A1A21690144E068304403F083F9A169CB
:100E0000E8690A1A216901446069801B03F07AF9D4
:100E1000761C022ED4DBA86804F007F9A069E96902
:100E20002669431AE0684218521E3144801C03F0C0
:100E3000C9F9A169E86962690B1A21690144101AAC
:100E4000401C921E03F0BEF9EE6913E05FF000064D
:100E500055F8260004F0E9F8A069831B6069821B3D
:100E600020698119E068304403F00CF9761C022EE9
:100E7000EEDB0226D5E90301CDE900012169A06975
:100E8000084443106069891C821BE068304403F009
:100E90004DF802E073E012E074E0D5E90501CDE918
:100EA0000001A36920690121184401EB6001606918
:100EB0009B1E821BE068304403F038F862E0206833
:100EC00002F058FB0546206809F036FC38B1A068EE
:100ED00008B1002006E0286F20B1012002E0686F11
:100EE00000B1022005EB8000C56E02F09DFB0023DF
:100EF0001A462846216802F06BFE43E0206802F0A3
:100F000039FB866E9EB3B0F95C70A16891B302297B
:100F100033D0022100EB8101406D0C6C04F0A8F885
:100F200002F082FB204604F080F804A803F00AFADD
:100F3000BDF81010E8690144ADF81010BDF81410A8
:100F4000081AADF81400BDF81200801CADF81200AC
:100F5000BDF81600801EADF81600022004F00CF952
:100F6000304602F007FB3A4604A902F0FDFE02F00B
:100F70005BFB07E0FFE70121CCE70021CAE720681F
:100F800009F016F907B00020F0BD0000C4340108D4
:100F9000044A0349116004494A6A4862104670478E
:100FA000D001002094010020A001002000294FF072
:100FB000100101D007F03EBF07F094BE4FF48072DD
:100FC0000029114601D007F035BF07F08BBE0000A5
:100FD0000348024941600349816070471FFE0008D1
:100FE0009401002049FC000808B50023009300F09C
:100FF00001F808BD70B504460D4610461946049A1E
:1010000002F0C8FD024629462046BDE8704000F0C7
:1010100022B8F8B504000E461CD003F095FA20461D
:1010200002F0A8FA856E009502F0FEFA3146684695
:1010300005F030FB60B10098A84206D0204602F0CF
:1010400099FA0099816602F0EFFA204608F0A4FDB3
:1010500004F096FCF8BD70B505000C46164616D097
:1010600003F072FA284602F085FA032C09D800EB47
:10107000840404F16C0002F0E1F92846E66608F009
:101080008BFD02F0D1FABDE8704004F079BC70BD70
:101090007047704770477047704770477047704798
:1010A000704700E0401E0028FCD170472DE9F04752
:1010B0005FEA00090D467CD003F046FA484602F08C
:1010C00059FA90F85480876D466BC46C02F0ACFA04
:1010D0001FB129464846B8475FE0122D1AD006DCFA
:1010E000082D42D0102D3BD0112D06D114E0132D28
:1010F00022D01D2D42D01E2D3CD0202D4DDBB8F12D
:10110000000F02D048460AF01EFBA9B248460EF076
:101110000FFB48B3611C24E036B3304602F02AFAD4
:101120000546214604F018FB4419204604F0C2FA93
:101130000146234601220FE0B6B1304602F01AFA0A
:101140000546214604F008FB4419204604F0B2FA93
:10115000014623464FF0FF3248460AF011F91AE0E3
:10116000611E484600F020FA17E0B4B1611E4846FF
:1011700000F01AFA48460AF0E6FA0EE0484602F095
:10118000F9F9B8F1010F0FD0012180F85410214670
:10119000484600F009FA02F047FA484608F0FCFC1D
:1011A000BDE8F04704F0ECBB002180F85410F2E7F2
:1011B000FFE7BDE8F08770B544680546204609F0B2
:1011C000BBFA06462946204607F0AEFD002855D05A
:1011D00028680E283AD004DC0B282ED00C2848D1E1
:1011E00014E00F2823D0A0F58070133841D1204699
:1011F00008F04EFE204600210EF065FE204602F06B
:10120000B9F9C06F002108F01CFE1CE0E86860B16D
:10121000017A29B10168204600F0CFF8012100E0F1
:101220000221204608F05DFD23E00321F9E7204676
:10123000BDE8704001210EF046BE204602F09AF94A
:10124000343002F0FBF802F0EFF912E08EB1E868FA
:10125000416800290DDD016809290AD00A2908D052
:101260000D2906D01B2904D02046BDE87040FFF7A9
:101270001DBF2846BDE8704008F0A2B870BDF0B5AB
:10128000044687B0D4E9056710461D46628A0DF111
:10129000080CB4F90830ACE8CC000022CDE900120B
:1012A000B4F90C10B4F910302944B4F90A50B4F967
:1012B0000E20284400F008F8050002D0618A00F0F2
:1012C00048F907B02846F0BD2DE9FF5F8046DDE90B
:1012D0001254DDE90E67894692469B4603F034F9C5
:1012E0000DF1040C47F4805054341A490096ACE8D0
:1012F00013005B4652464946404607F0BBFF0600D6
:1013000022D002F037F904461022119907F02CFF81
:101310001C22114904F16000FFF7E4F8012084F871
:10132000550005B908252DB22587002060876D1C62
:10133000606302F079F9294630460DF0DFFF18B9F5
:10134000304608F07BF8002604F01AFB04B0304663
:10135000BDE8F09FB71100085C0200202DE9F041C4
:1013600004460E00154626D000273770002C22D0E8
:1013700003F0EAF8204602F0FDF8406BA8B102F055
:10138000F9F8804605F082F80146404604F0E4F999
:101390000446681E844200DD04462246414630462B
:1013A000FFF715F802F040F9375502F03DF9BDE8B6
:1013B000F04104F0E5BABDE8F0812DE9F0475FEABD
:1013C00000080E4652D003F0BFF8404602F0D2F8B3
:1013D0000446406B80B302F0CDF88246A06E03F065
:1013E00047FE8146404608F0BFF90746504603F0E5
:1013F00009F80546206E00F00300012816D00228E7
:101400000DD0E16A606E09680844341A641E5046C3
:1014100005F03CF80146002C0FDA002115E0781B9E
:10142000401C00EBD070A6EB6004F0E7616E781B07
:10143000401A341A641CEAE712E0AC4205DC0246AA
:101440002146504604F0C6FF0146404600F0ACF885
:1014500002F0EAF8484603F00BFE404608F09CFB19
:1014600002F0E2F8BDE8F04704F08ABABDE8F08780
:101470002DE9F0470546DDE9089A0E4617469846DD
:1014800003F062F82DB3284602F074F804461348BE
:10149000A0651348E0650020C4E91260C4E90F7834
:1014A00084F8449084F856A0012084F8540028461B
:1014B00010F0F0FB204600F064F82E2804D1E16C17
:1014C0002846491C00F070F802F0AEF8284608F0F3
:1014D00063FBBDE8F04704F053BA000061AD0008BB
:1014E000951C01082DE9F04106000C462FD003F0B1
:1014F0002BF8304602F03EF8B0F93810458FA14283
:101500001FD010DD406B70B102F034F8074604F0D4
:10151000BDFFA04205DD2146384604F01DF900213B
:10152000395402F081F802F07FF8611B491C304603
:101530000DF0E4FE304602F01DF80487304608F056
:101540002BFB02F071F8BDE8F04104F019BABDE8D8
:10155000F08170B504000D460FD002F0F5FF204673
:1015600002F008F818B10566204608F015FB02F0F5
:101570005BF8BDE8704004F003BA70BD002210F0C3
:1015800094B970B50446406B002558B101F0F2FFE4
:101590000546E16C04F0E0F8284404F08BF80546B9
:1015A00002F042F8284670BD70B50C4601F0E2FF2B
:1015B0000546406BD8B101F0DDFF04F067FF95F8F8
:1015C000541001B10121002C00DA0024844200DD16
:1015D0000446B5F93800401AA04200DA0446E86C27
:1015E000A04200D0EC640020286502F01DF8BDE8A0
:1015F000704002F019B870477047704770477047E5
:101600007047704770472DE9F04389B00F46154683
:10161000984606004FF000042DD000F0D1FB0446A0
:10162000304600F0AAFB814602F08EFF03A9304647
:1016300000F04CFDF80706D0BDF91C00001B401B54
:10164000401C822109E0B8070028BDF91800284491
:1016500002DA40F2022100E002210096CDE9018188
:1016600023461A464946FFF713FB04460021FFF7BD
:101670009DFC04F085F909B02046BDE8F083000028
:1016800010B50523FFF7BFFF0446054A0021FFF709
:10169000ABFC0449204608F048FC204610BD000081
:1016A0008DB80008A527010810B50723FFF7ABFF89
:1016B0000446054A0021FFF797FC0449204608F03C
:1016C00034FC204610BD00001DB90008BB270108EE
:1016D00010B50823FFF797FF0446054A0021FFF7DE
:1016E00083FC0449204608F020FC204610BD000081
:1016F0004DB90008F12701082DE9F0474568044677
:101700008AB0284601F036FF00F15C00B0F8209066
:10171000D0F80C80476AC66A006808B1D0F800A00B
:1017200001F082FF05E071682046884700283BD120
:101730003668002EF7D12068142841D009DCA0F1CA
:101740000B00072822D2DFE800F0AA3682B132B1BE
:10175000110020287AD004DC17283BD01E2815D190
:1017600048E0262839D02A2810D110E02846E6681B
:1017700001F000FF717A39B9317A012904D130F8CA
:101780007C1F41F48071018001F04EFF8EE02846FD
:1017900001F0F0FEE16811B1C0F8841002E0D0F869
:1017A0008400E06001F040FF0AB0BDE8F087284601
:1017B000514688477AE0214628460EF069FAF3E759
:1017C00004A9284600F082FCE068059901600699AA
:1017D0004160E9E7C4F80C80E6E7E0680228E3D15D
:1017E0000295E0680390272000906946A06809F000
:1017F00077F9D9E7E068012804D00021284600F0F5
:1018000078FBD1E7384608F01BFA58B1384608F0A3
:1018100035FC384608F01AF978B10121384607F04E
:1018200009FB0AE0404608F075FC0746284601F02F
:10183000A1FEC0F8807001F0F7FE0121284600F0FB
:1018400058FB002FB0D10020E060ADE70BE05FEA6D
:1018500009702BD4E068C06840B3007A30B32846E2
:1018600008F00CFC22E0E66806B32946706808F030
:1018700050FF20B1012128460FF00AFC16E000219C
:1018800028460FF005FC2946306808F031FF68B1A2
:10189000284601F06FFE3168C0F8801074E72846D2
:1018A00001F068FE703001F0C9FD6DE72146284661
:1018B00007F03AFA00288CD0204607F081FD73E744
:1018C000F0B587B014461D46B0F908200DF10C0C98
:1018D0000C9E87694368ACE8CC00428A0023CDE9BE
:1018E00000130292B0F90C10B0F91030B0F90E20CC
:1018F000B0F90A002944204400F002F807B0F0BD16
:101900002DE9F04F89B0804612A88946E0C892467A
:101910009B46189C02F018FE6034324846F480560C
:10192000CDE90204CDE900565B46524649464046A1
:1019300007F0A0FC05004FD001F01CFE0446302249
:10194000159907F011FC2822274904F13400FEF70D
:10195000C9FD04F15C041798A06027844FF00007CC
:10196000DFF8848067622761A8F10808E762D8F889
:101970000400206001F058FE04A9284600F0A6FBF0
:101980001A4841F2827103970095CDE90110BDF923
:101990001A00BDF91610BDF91820431ABDF914003C
:1019A0005B1C121A521C07F065FC0446D8F80400B0
:1019B000416828468847284601F0DCFD846601F02E
:1019C00033FE42F20400064202D1284607F092FD9F
:1019D0002846169900F0ECFA03F0D2FF09B0284629
:1019E000BDE8F08FF916000880020020BF23000830
:1019F0002DE9F04104468EB0006800F0A9F908B165
:101A0000D24D01E0D14D2C35606813281ED00CDC7E
:101A100009281FD004DC00287DD003287CD12AE1CE
:101A20000C287AD01028F9D13CE1142806D01528CA
:101A300008D0162808D01A28F0D109E0E8690EB0BD
:101A4000BDE8F081286AFAE7686AF8E7A86AF6E76D
:101A50006869F4E7206805901A200690206801F074
:101A600089FD016D05A88847064601F0DDFD022EBF
:101A70000EDB95E807008DE80700D4E90302334642
:101A8000616904F04DFBE06887196069801B2BE0F9
:101A9000286803F0CAFAE168E8690A18521E20694A
:101AA00002F07EFA6269E869111A491C206902F0A5
:101AB00077FA2769E0687F1C394602F0BFFA394699
:101AC000606902F0BBFA686803F0AFFAE068394673
:101AD000401C02F0B3FA60693946401E02F0AEFACB
:101AE000E7686069BF1C801E8046286803F09DFA85
:101AF00042463946206902F053FA686803F095FAC5
:101B000020694246401C394602F04AFA686A0228B7
:101B10000FDDA86802E00AE1ACE0F5E003F085FA29
:101B200021696A6A08468318891C5B1E424638464A
:101B300027E0296AB14226DD2069022E074600F11E
:101B4000020801DB374401E007F10207E06801DB2E
:101B5000304401E000F10200E2683B460A44A2F191
:101B60000102414602F02EFB022E02DB6069821B5D
:101B700001E06269921E6069E9693B46401A401CB7
:101B8000414602F01FFB022E02DB2069064401E001
:101B90002669B61CA76928687F1E03F046FA3A46F4
:101BA0003146E06802F0AEFA3A463146606902F02A
:101BB000A9FAA7696868BF1E03F037FAE0683A46D9
:101BC000401C314602F09EFA60693A46401E31469A
:101BD00002F098FAE869022802DC286A022821DD6E
:101BE000A86A022802DDA1690F1A01E0A769BF1ED9
:101BF000A86803F01AFAEA69022A07DDE1683B46A1
:101C00000A44881C521E314602F0DCFA286A022877
:101C100008DD6269E8693B46101A401C921E314695
:101C200002F0D0FA286803F000FAD4E90520E16850
:101C300002F0B6F9686803F0F8F96269E168A06932
:101C4000521E491C401E02F0ABF9A86A02287BDD37
:101C5000E6686169A469B61C271AA1F102087F1C15
:101C6000A41EA86803F0E1F92346424639463046EF
:101C700002F0A8FA68E0E06800B2ADF80C00216953
:101C800009B2ADF80E10626912B2ADF81020A36966
:101C90001BB2ADF812302C69ED68CDE9005402F0AA
:101CA00045F951E0E068A9690844ADF80C002069E5
:101CB000ADF80E006069A969401AADF81000A0697E
:101CC000ADF81200206801F055FC0446006FC0B169
:101CD000022003F051FAB4F87C00C0F3C00004EB1A
:101CE0008000006C03F0A1F9606B03F0C1F9206F74
:101CF00001F040FCB4F95A2003A902F035F801F0D4
:101D000093FC01F091FC1FE0E068ADF80C00206945
:101D1000ADF80E006069ADF81000A069ADF81200D2
:101D2000A86803F082F903A802F078FA0CE02068B2
:101D300001F020FC30F85A1F41F00C01018001F045
:101D400073FC206808F034FA002078E6BC0200201A
:101D500070B505004FF000040DD002F0F5FB2846E9
:101D600001F008FCB0F87C00000700D5012401F068
:101D70005BFC03F005FE204670BD70B505004FF01A
:101D800000040FD002F0E0FB284601F0F3FBC06D29
:101D900000218068026828469047044601F044FC10
:101DA00003F0EEFD204670BD022905D2034A52F829
:101DB00021102C22FEF796BB70470000D434010896
:101DC00030B585B005004FF0000411D002F0BCFB27
:101DD0006946284600F07AF9284601F0CBFBB0F9B5
:101DE000544001F021FC0CB9BDF9004003F0C8FDDE
:101DF00005B0204630BD10B5040008D002F0A4FBA9
:101E000020460DF0DCFDBDE8104003F0B9BD10BD6B
:101E100010B5040008D002F097FB20460DF01CFE20
:101E2000BDE8104003F0ACBD10BDF0B5054687B06D
:101E3000006801F09FFB0446B0F87C00ED69C0F338
:101E4000C007206F18B101F095FB064600E00026A0
:101E5000E868009028690190A888401EADF8080045
:101E6000E889ADF80A002889401CADF80C00688AA2
:101E7000ADF80E00BDF80000401CADF80000BDF844
:101E80000200401CADF80200BDF80400401EADF891
:101E90000400606B03F0ECF8B4F95A3004AA694608
:101EA000304603F001FE04EB8704A06B05F030F927
:101EB000206C05F063F904AB6A4602A9304607F0CE
:101EC0007FF801F0B1FB0EB101F0AEFB07B00020CE
:101ED000F0BD10B504000BD002F036FB20460FF029
:101EE00070F820460FF040F8BDE8104003F048BD00
:101EF00010BD70B504000D4609D002F025FB29463F
:101F000020460FF0C5F8BDE8704003F039BD70BD44
:101F1000074A0649054B1160064A083BD1695860DB
:101F20001B68C2E90630084670470000B002002076
:101F30007C0200208002002070B504460D4602F0AD
:101F400003FB44B1204601F015FB056601F06CFB74
:101F5000204607F021FEBDE8704003F011BD0000EF
:101F600070B503460D4602291FD2104C2C2219468B
:101F700054F82500FEF7B6FA54F825100220CA6975
:101F8000022A00DAC86154F825100A6A022A00DA27
:101F9000086254F825104A6A022A00DA486254F8A6
:101FA00025108A6A022A00DA886270BDD4340108DA
:101FB00038B504000D4619D002F0C6FA204601F0EB
:101FC000D9FA006F009001F02FFB2946684604F013
:101FD00061FB48B1204601F0CDFA0099016701F09C
:101FE00023FB204607F0D8FD03F0CAFC38BD70B5CE
:101FF00005000C4613D002F0A7FA284601F0BAFA01
:10200000B0F95A10A14204D0A0F85A40284607F06F
:10201000C3FD01F009FBBDE8704003F0B1BC70BD29
:1020200070B505000C4614D002F08EFA284601F077
:10203000A1FA002200EB8201521C0C64022AF9D39F
:1020400001F0F2FA284607F0A7FDBDE8704003F062
:1020500097BC70BD2DE9F8435FEA00090E464FF0CA
:10206000000530D002F070FA484601F083FAB0F96A
:1020700054500446AE4222D000F08FF88046A4F8B7
:102080005460E06D01218468484622689047064606
:1020900022680321484690470746226800214846A7
:1020A00090470446484600F055F93B4632464146C3
:1020B0004846009400F0E0F8484607F06DFD01F056
:1020C000B3FA03F05DFC2846BDE8F8832DE9F34F31
:1020D00085B04FF000080C46C146059801F04AFA59
:1020E0000546C06D01218668059832689047834691
:1020F00032680321059890470090326802210598C4
:10210000904704903268002105989047074628467A
:1021100008F0D2F90190284608F0D5F98246688E79
:10212000800601D5B5F95890284600F036F80646E5
:10213000E86E10B107F02BFB80462680A4F80280E1
:10214000A4F804B0DDE90020801A07EB0902401E64
:102150009319208103EB0802E280049BAAEB03029F
:10216000521E6281A4F80CB02082B819E781401E8B
:10217000608201F059FAB4F90C000290B4F9100031
:10218000039003AA02A9059800F036F80298A081EE
:102190000398208207B0BDE8F08F10B501460020FB
:1021A0004A8E920607D5B1F95400002803D1486B36
:1021B00002F050F9801C10BD70B588B00D46044681
:1021C00001F0D8F9C06D866801F02EFA009435B19F
:1021D000012D06D0022D0BD0032D04D10AE01620CC
:1021E00000E01420019071686846884708B070BD0F
:1021F0001320F7E71520F5E72DE9F04788469146CB
:10220000044601F0B7F9C16D05688E6801F00CFA5B
:1022100032680021204690470646204607F023FA00
:1022200026E000BF01F0A6F9B0F900102AB2B0F91B
:102230000430891A9A1AB0F90230A3EB2543B3424D
:1022400011D1806A000607D5D9F8000088420ADB60
:10225000491EC9F8001006E0D8F80000904202DCE0
:10226000521CC8F8002001F0DFF9204607F02DFAD3
:102270000400D7D1BDE8F0872DE9FF4F81B00F46AC
:10228000DDF838A0019801F075F9C16D8D68FFF790
:1022900084FF044601F0C8F92A680121019890479B
:1022A00000902A6803210198904783462A680021FC
:1022B000019890470646BC4208D10399009888428D
:1022C00004D104998B4501D1564540D04FF0000907
:1022D000E41BC846019807F0C6F936E001F04AF958
:1022E0000546806A010602D54FEA805002E081056A
:1022F00026D50006002823DB24B1224611463846A5
:1023000007F029FDA86A00060BD50498A6EB0A027F
:10231000A0EB0B0104FB181108F10108384607F087
:10232000D1FCA86A80050BD503990098A6EB0A0298
:10233000411A04FB091109F10109384607F0C2FCF2
:1023400001F072F9384607F0C0F90700C6D105B0B0
:10235000BDE8F08F70B586B0064601F00BF9D0E904
:102360001A4501F061F954EA050026D06946304665
:10237000FFF7ACFEACB1BDF90620BDF90410204654
:1023800007F06AFCBDF90A00BDF90610421ABDF952
:102390000800BDF90410521C411A491C204607F0E0
:1023A00027FF002D09D0BDF90600BDF90210421A21
:1023B000BDF90410284607F04FFC06B070BD2DE9AA
:1023C000FF4704464068064607F08CF9814601F055
:1023D000D1F8D0F88080876C456E01F025F920682F
:1023E00017285FD008DC0E283BD00F280BD014280C
:1023F00058D015283ED155E01E281AD01F2829D0C4
:10240000222837D14CE06FF07040874204D0384624
:1024100004F07EFE01F08CFA002D08D0D4E90212FF
:102420002068CDE90006CDE902126846A847BDE85C
:10243000FF87E0680028FAD05FEA080006D0B045C0
:1024400004D004B0BDE8F04707F018BE304607F0EE
:1024500061FE1BE004B021464846BDE8F04706F0A7
:1024600063BCE0684168002904DD00680928EDD0FC
:102470000A2808D0B5B1C4F8049004B02046AC4690
:10248000BDE8F0476047304607F06EFE0446484618
:1024900001F070F8C0F88040BDE8FF4701F0C4B813
:1024A000E760C4E704B02046BDE8F04706F088BF07
:1024B0002DE9F04397B00121080205F0BBFF01218F
:1024C0007C2005F0C3FF4FF40057ADF800700324E3
:1024D0008DF8024010268DF80360DFF8B48069465D
:1024E000404600F011FC0225ADF80050DFF8A49042
:1024F0006946484600F008FC4CF23370ADF8000025
:102500008DF8024018208DF803006946404600F01F
:10251000FBFB4FF68070ADF800006946484600F0BE
:10252000F3FB8020ADF800006946404600F0ECFB6C
:10253000A802ADF800006946404600F0E5FB3946C8
:10254000404600F035FC01950020029005210391E2
:10255000049005900690E9060791089009900821DB
:102560000A910B960C900E900F90109049021191C9
:1025700012901390149001A81590169008A800F0DE
:102580001DF80121002000F007F817B0BDE8F08326
:1025900000140140001801404FF0204202EB80007F
:1025A00021B1016841F00101016070470168024AF0
:1025B0001140016070470000FEFF0F0030B5D0E908
:1025C00001121143D0E903231A43114342690368FE
:1025D000114382691143C2691143026A1143426A7D
:1025E0001143826A1143C26A1143026B11434FF0D7
:1025F000204242F823108168082906D1016802EBC5
:1026000081010B6843F040030B60416BD1E900345A
:1026100043EA04138C68CD68240244EA054423434A
:102620000C6943EA04534C69896943EA04630B4328
:102630000168491C42F82130C16AB1F5804F15D1BB
:10264000816B0068D1E9003443EA04138C680D699A
:10265000240244EA055423434C69896943EA04632C
:102660000B4302EB8000C0F8043130BD00686FF00E
:10267000704102EB8000C0F8041130BD2DE9F0413B
:102680000446C56886B00F469046002002F0E3FC81
:10269000064625B1287910B146F0020001E026F087
:1026A000020002F0D8FC2069012558B1D4E90212D9
:1026B0008DE82600039563882288046841463846E1
:1026C000A04719E0E06804F076FB30B9E088012803
:1026D00001D0002001E00B480068A288E388A168CF
:1026E0000095CDE90410CDE9023201956388228876
:1026F0004146384604F036F906B03046BDE8F041B0
:1027000002F0A9BC240500201CB50024019401ACF2
:10271000009400F0E5F81CBD2DE9FF4F83B0814621
:102720000598109EA0EB090400208A460090A3EBB8
:102730000A0835689B4654EA080018D02046FEF780
:10274000B4F807464046FEF7B0F887420BDA204659
:10275000444680464846D14682460598CDF814B096
:10276000834601200090002C07DD204606E007B0DC
:102770004846BDE8F04F00F037B96042A0420AD0A9
:102780004846DDF8149005906442C8F10008DA4626
:102790004FF0FF3000E0012083465048B8F1000FB1
:1027A00012D000BF04EBD4714FEA610501DAC5F124
:1027B00000054A48807E78B3BBF1000F02DA30682A
:1027C00020443060002775E000990029817E1FD0E9
:1027D00011B10027804614E0059A07B049465046DB
:1027E000BDE8F04F04F020BA28466D1C0EF0E2FC64
:1027F00030B9D8F8600009EB0701426850469047AD
:102800007F1CA742F0DD6D1E356007B0BDE8F08F7C
:1028100019B10027804616E018E0006E059A51466F
:10282000036807B04846BDE8F04F184728466D1CBE
:102830000EF0C0FC30B9D8F8601009EB07004A6808
:10284000514690477F1CA742F0DDDCE700260EE0F2
:1028500008FB065090FBF4F101EB0A00009949B126
:102860001E4A09EB0601126E52689047761CA6427A
:10287000EEDDCAE7194909EB0603096E4A6801460D
:102880001846F2E708FB075090FBF4F101EB0A0051
:102890000190316801EB0B0030600EF08BFC40B909
:1028A0000098A0B10D4809EB0701006E426801983D
:1028B00090477F1CA742E5DDBBF1000F02DA3068CC
:1028C000204430603168A1EB0B0030609DE7034984
:1028D00009EB0700096E4A680199E9E7F0A60020B4
:1028E0002DE9FF4788463F4907460C98097E154663
:1028F0001E4601291DD0781BA8EB060250EA0203F0
:102900001CD0A1F1010911460FF00AFE00F580600C
:10291000824603F069FF00FB09F4504603F068FFAC
:1029200000FB09F0002C0BDAC4F5007189124C424F
:1029300009E0009041463846FFF7EEFEBDE8FF870C
:1029400004F50074A412002804DAC0F500708012A7
:10295000404202E000F500708012002C04DD611C92
:1029600001EBD171491003E004EBD4714910641EEE
:1029700004EBD4725310002804DD421C02EBD27227
:10298000521003E000EBD0725210401E7C18ADF8DC
:10299000004008EB0204ADF80240FC1A00EBD070D6
:1029A0004010ADF80440A8EB0004EB1AADF8083075
:1029B000301AADF80A006818ADF80C00B018ADF880
:1029C0000E000023ADF806401A460421684600F0C8
:1029D00075F8414638460AF013FE314628460AF09B
:1029E0000FFEABE7F0A60020064B1A7E012A05D0A9
:1029F000521E02EBD272521000F006B81A6E5268E4
:102A000010470000F0A600202DE9F05F064688463A
:102A100040F2C32050434FF47A7190FBF1F702FB70
:102A200002F002EBD27100EB610B1446B118224A9E
:102A30007F1C301B126E13680A46414698470125D9
:102A400036E000BF05FB05F004FB040159451ADD23
:102A5000BC4217DD184B06EB0509A6EB050A1B6EF9
:102A6000A9F1010208EB04011B680AF10100984773
:102A7000114BA9F10102A8EB04011B6E0AF1010040
:102A80001B689847641E0C4806EB040AA6EB040971
:102A9000006E08EB05015246036848469847064811
:102AA000A8EB05015246006E0368484698476D1C26
:102AB000BD42C7DDBDE8F09FF0A600202DE9FF4F25
:102AC00040F6FF740F46664283B081469B46002164
:102AD0000BE000BF09EB8100B0F90200A04200DA70
:102AE0000446B04200DD0646491CB942F2DB6848A4
:102AF000406900280DD0B0F90620A2EB0B01B142CD
:102B000000DA0E46B0F90210A1EB0B00A04200DD86
:102B10000446B6E0DFF87CA100200546CAF80000B4
:102B20008BE0781E854201DA691C00E0002109EB88
:102B3000850C09EB8103BCF90200B3F90220A04225
:102B4000904645D1A04517D139F92520059804EBC9
:102B50000B0C104439F92120059953184C4998421F
:102B6000096ED1F8008002DA1A46614602E0024698
:102B700061461846C0475FE0284622460023A7F179
:102B8000010C0AE008B1401E00E0781E09EB80014C
:102B9000B1F90210914203D15B1C6345F2DB21467F
:102BA000A14249D039F92500A1EB0402A8EB0403A6
:102BB000DDF814C05A4008D4354A604404EB0B01D8
:102BC000126E13680246984736E008F06FF833E05B
:102BD000A04531D001DBA04203DDA0422CDBA242A4
:102BE0002ADCE04690420ADC0146A04224DC9446FE
:102BF000A24221DBB8F90000B3F9002009E0114638
:102C0000A24219DC8446A04216DBB3F90000B8F9F1
:102C10000020631A121A5A43002AACEB010302DDAA
:102C200002EB630202E0A2EB6302521CACEB010177
:102C300092FBF1F10844C8E76D1CBD42FFF671AF8D
:102C40000598009004EB0B0001900020804605469B
:102C500012E01149B8F1000F31F915A008D0009920
:102C600001EB0A0208440A49096E0B68019998476A
:102C700088F0010850466D1C064909688D42E8DB62
:102C8000641CB4427FF746AF07B0BDE8F08F000088
:102C9000F0A60020D404002034A8002010B50020A5
:102CA00002F0B8F96FF07F4002F0BFF9012002F0A6
:102CB00047FA002002F052FA002002F05DFA0020EC
:102CC00002F0C9F90448006802F0D2F9BDE81040EA
:102CD000002002F009BA0000FC00002008B5012124
:102CE0007C2005F0B3FB4FF44870ADF800001020D5
:102CF0008DF8030003208DF802006946014800F0BA
:102D000003F808BD000C01402DE9F0410022CC7809
:102D100004F00F03E40601D58C7823430C884FF0B0
:102D20000F0714F0FF0F4FF0010C1BD005680CFAD1
:102D300002F40E882640A64210D1960007FA06FE3D
:102D400025EA0E0803FA06F545EA0805CE78282E8E
:102D500001D1446102E0482E00D10461521C082ACE
:102D6000E5D305600A88FF2A1ED94568002202F1D2
:102D700008060CFA06F40E882640A64210D19600EA
:102D800007FA06FE25EA0E0803FA06F545EA0805E5
:102D9000CE78282E00D14461CE78482E00D104612F
:102DA000521C082AE3D34560BDE8F08141617047B9
:102DB0000161704730B591B005460C462022154997
:102DC0006846FDF78FFB13492022203108A8FDF744
:102DD00089FB284600F0D8F8A8682168C1626168BC
:102DE0000163A16841635DF82120C0F8DC2008AAD6
:102DF00052F82120C0F8E020490707D5D0E900218A
:102E0000C0E90012D0E90221C0E90212A18981843F
:102E100011B030BD103401082DE9F0418846164646
:102E20001F46054600F0B0F8AC684422414604F164
:102E3000E400FDF757FB2846B0472846B847286905
:102E400080688047A062BDE8F081000010B50446AC
:102E500000F09AF8A0680A4900F1300001670949BA
:102E6000C166094941670949C16709498167A0F1FC
:102E70000C00418821F0030141800649416610BDE4
:102E800085120108C11601084D120108470E0108FC
:102E90002F0E01088511010810B5044600F074F8E2
:102EA000A4680D4804F188044FF01001A0630B489A
:102EB000E0630B4820640B4860640B48E0600B48FB
:102EC0002061E06AE06454F8882920469047102089
:102ED000A0630748E06310BD71CA000885E50008DB
:102EE000F52E0008B72F0008290E01085D1D010806
:102EF0001C4F0108F8B584680D461746E08C800722
:102F00003FD5D4F8DC30204698470646D4F8E03068
:102F10003A4629462046984705462069B04201DDD9
:102F2000012000E00020A169B14201DA012100E0A6
:102F3000002108436169A94201DD012100E000216F
:102F40000843E169A94201DA012100E000210843B8
:102F50000AD06068401E00902368D4F89C705B1E05
:102F6000002211462046B847D4F8A0302A46314600
:102F700020469847D4F8941001B02046BDE8F040B0
:102F80000847D4F8A030F3E770B5044680680028FD
:102F90000FD14FF49475284600F06CFAA06048B148
:102FA0002A46002103F0A4FBA0680221C18401216C
:102FB000016270BDFEE72DE9F84384680D461746AF
:102FC000E08C9846800740D5D4F8DC3020469847FE
:102FD0000646D4F8E0303A4629462046984705464A
:102FE0002069B04201DD012000E00020A169B1426A
:102FF00001DA012100E0002108436169A94201DDF5
:10300000012100E000210843E169A94201DA012120
:1030100000E0002108430AD06068401E0090236849
:10302000D4F89C705B1E002211462046B847D4F8A5
:10303000A0302A46314620469847D4F8982001B05F
:1030400041462046BDE8F0431047D4F8A030F2E7EF
:103050002DE9F04FDFF824B191B04FF0FF35BBF907
:1030600022200692DBF81C30BBF924A0DC69A18980
:10307000884206D3E289824203D3461AD4F80080FC
:1030800012E0D4E9018100296ED00A8890426BD306
:103090004D88854268D3801A496880B201EB800070
:1030A000B0F90060B0F90250701C5DD0187EA27CAF
:1030B000014600FB02F9207C0B910790BBF92A70B6
:1030C000384604F071F8C0B20E902D48A27C016819
:1030D00006FB09800126CDE90262CDE90401DBF897
:1030E0001C00C17E807ECDE90001DDE9060251466B
:1030F0000B9B03F037FC681C18D047F0020004F06B
:1031000053F81F48A27C016805FB0980CDE90262E3
:10311000CDE90401DBF81C00C17E807ECDE9000111
:10312000DDE9060251460B9B03F01CFCDBF81C009A
:103130005D46417E007E814213D9022F11D087F077
:10314000040004F031F8E869027EC37E857E02FB4C
:1031500003A1437EDDE9060202FB0502534403F0AE
:103160008BFD0E9804F020F8BBF82210627C11440D
:10317000ABF8221011B0BDE8F08F0000F0A60020DF
:10318000240500200348C069C06909B1027C0A60B7
:10319000407C7047F0A60020022008807047C0697C
:1031A0008289914202D3C2898A4210D2806880B15A
:1031B00002888A420DD843888B420AD3406800EBCC
:1031C0008100A0EB8200B0F90000002801DB0120A3
:1031D00070470020704700002DE9F0432D4C034656
:1031E00087B0E069B4F92A801946C06900F07FF819
:1031F00000284BD041680088181A01EBC0054046F2
:10320000AE7803F0D1FF8146234801220168686847
:10321000CDE90226CDE90401E069C27E817ECDE9D7
:103220000012037E2A78B4F92410B4F9220003F0C6
:1032300099FBE069467E077EBE421CD9C07E4643AC
:103240004743B8F1020F16D001F081F8804601F033
:1032500049F801F0EAFEE269B4F922002978D27E49
:1032600001FB0202B4F924108B19394403F004FD68
:10327000404601F0DAFE484603F096FFE269B4F9F1
:1032800022006978927E01FB0200608407B0BDE8ED
:10329000F0830000F0A600202405002030B50D4C7E
:1032A00005460B46E0692946C06900F020F8002871
:1032B0000FD041680088E4692A1A012000EBC2009F
:1032C000A47E085C6043002B03D011F832106143E8
:1032D000196030BDF0A6002001200880704700B5BD
:1032E000C06900F004F8002800D0012000BD06E00D
:1032F00002888A4202D842888A4202D28068002824
:10330000F6D170472DE9F04100250C4C2F460FE017
:1033100005EBC50000EB40062069682200EB860043
:10332000001D0749FDF7DEF820696D1C40F8267086
:10333000A0688542ECDBBDE8F0810000DC040020E1
:10334000F0A6002070B50F490D480860084603F04C
:1033500099F90C4D6C20143DAC684443204600F0B4
:1033600089F822460021286103F0C2F92869002863
:10337000FDD04FF0FF302860BDE8704002F060BB28
:103380000DFC0008F004002010B5040009D001F085
:10339000DBF8204607F096FD044602F0F1FA2046DD
:1033A00010BD002010BD70B5054601F0CDF82846CF
:1033B000FFF7EAFF040005D000F040F92A4600219B
:1033C00003F096F902F0DCFA204670BD024A9160E3
:1033D0001060012010757047E000002070B50400F7
:1033E0001CD001F0B1F80E4DA86A10F8341089B164
:1033F00000EBC4004168486807F074FC6869401C31
:103400006861D5E90A0100EBC4025160002100F8AF
:103410003410EC62BDE8704002F0B2BA70BD00003A
:10342000A4000020002805D0034A116B016001B1FF
:103430004860106370470000A400002010B50446E7
:1034400001F082F82068FFF7C9FF00202060BDE886
:10345000104002F095BA000070B506460D460024F3
:1034600005E000BF06EB8400FFF7E8FF641CAC42F8
:10347000F8DB70BD2DE9F04104460CF01DF9204841
:10348000E41C24F003040068241DA04200D9044673
:103490001C4E306B054612E055F8042CA2420DD1AB
:1034A0007DB1296809B16A684A60696809B12A680A
:1034B0000A60A84220D1286830631DE02D68002DE5
:1034C000EAD10DF0EDFC20460BF0C0FD070013D053
:1034D0007868A04210DB3844051B38460DF0C2FC6A
:1034E000B0693946001BB061306A204430627868A8
:1034F000001B07F0F7FB10C52846BDE8F08100006F
:1035000070A60020A400002010B500240CF0D4F810
:103510000C490F2001EBC00252681AB101EBC00048
:10352000406808E0401EF5D508E04168A14200D996
:103530000C46806810B180680028F6D1A4F10C0018
:1035400010BD000070A60020002130B10449896A36
:1035500001EBC000406841680C3908467047000024
:10356000A400002002488168491C81607047000067
:10357000A40000200249CA68521CCA6000F05EB86C
:10358000A40000202DE9F04106460C460846FFF74E
:10359000FBFE050019D0C6B13046FFF7D5FFA042AB
:1035A00000DA044600F0D0FF284600F047F807464E
:1035B000304600F043F8014622463846FCF707FF44
:1035C0003046FFF70BFF02F0DBF92846BDE8F0813B
:1035D00010B500F0B9FFFFF797FF64220849B0F576
:1035E000800F04D990FBF2F44868444303E0496833
:1035F0004843B0FBF2F402F0C3F9204610BD0000CE
:10360000A4000020034908610020C860012008755B
:1036100070470000E000002002488168491E816078
:1036200070470000A40000200348C16809B1491E8A
:10363000C160002070470000A4000020002805D0D1
:103640000349896A01EBC0004068083070470000F8
:10365000A400002010B5002420B1FFF78BFF0488E0
:10366000FFF7E2FF204610BD70B50D46002438B1CB
:10367000FFF780FF294600F015F80446FFF7D4FF56
:10368000204670BD70B50C4601880025A14207D9BF
:10369000406828B1FFF76EFF50F82450FFF7C4FFD1
:1036A000284670BD10B50024FFF7ECFF10B1FFF7FE
:1036B00061FF0446204610BDF0B52D261C68B0F110
:1036C000004F08D0002500280DDA671C1F60267007
:1036D0004042012408E0671C01251F606FF0004094
:1036E0002670491E01E00024091BC9B202B3491E1D
:1036F000C9B21DE00C46491EC9B2944205D10F4C17
:1037000026781C68671C1F6026700D4C54F82160D9
:1037100090FBF6F4E4B2092C0CD804FB160011B9A6
:103720000DB1641CE4B21E683034771C1F60347025
:103730000029DFD1196800200870F0BDF8000020D2
:103740004437010810B5002807DD0A682B24531CF4
:103750000B601470096800220A7010BD2DE9FC5F2F
:103760000446894600F0F0FE484600F0FDFD2C4E70
:1037700009EB8907824656F82700019029484FF047
:103780000108016841B92749C0F80080091D264891
:103790000860084602F076FF214A09EB89015FEADA
:1037A0000A0002EB81051BD001F014FC83464FF0A8
:1037B0007F4001F02FFC00F0BBF80022114620688A
:1037C00000F0FCFA206842880188504601F06EFC47
:1037D00046F8274085F80580584601F0FBFB17E0C6
:1037E00046F8274085F805802869464618B101F05B
:1037F00037FB0020286174B10096E868A1684B4649
:10380000421AA8686168411A206801F075FB2861B6
:1038100048460EF07DF802F0B3F80198BDE8FC9F31
:1038200058A7002028010020D1FB000870B50546EC
:103830000E46144600F088FE204600F095FD030079
:10384000174804EB840109D050F8210041688068D2
:10385000691A321A184601F019FC1CE000EB8104C9
:10386000A268AA4201D0012200E00022E368B3422C
:1038700001D0012300E000231A430CD0236943B197
:1038800050F8210081684068721A291A184601F020
:1038900006FBC4E90256BDE8704002F071B80000B2
:1038A00058A700200148407C00F002B8F0A6002094
:1038B00010B5044600F048FE0A4804EB840100EB12
:1038C000810301225A7150F8210030B120460EF0D8
:1038D0001FF8BDE8104002F053B821460248FFF738
:1038E0003DFFF6E758A70020882D010810B5C2B2A9
:1038F000CBB2D21A02D5C2F1000212B293B2C0F317
:103900000722C1F3072403FB03F3121B01D5524224
:1039100012B2000C92B2A0EB114002FB023200B2D4
:10392000002801DA404200B280B200FB002010BD46
:1039300010B50021084600F0A5FD40F6FF72504288
:10394000BDE8104013460146AFF300802DE9FC416D
:1039500004460D4616461F4600F0F6FD042003F00F
:1039600023FC12498046086C496C044406440D440B
:103970000F44ADF80040ADF80460ADF80250ADF86A
:103980000670684606F0A6FD07E03B46324629462B
:10399000204603F071F906F05FFD0028F5D140469E
:1039A00003F002FC01F0ECFFBDE8FC81F0A6002072
:1039B000B0F90630B0F90420B0F90210B0F90000F7
:1039C000FFF7C4BF2DE9F84304460D461946DDE96B
:1039D00008030092024626682046B047060026D01B
:1039E00005F01FFE8146618A304605F023FA304615
:1039F00006F02EFC484606F02BFC4FF000080BE0CA
:103A0000CDF8008054F81C7F00231A464946204612
:103A1000B84770B106F01CFC6D1E002DF0DC1D21B6
:103A2000484606F062FA304606F074FB3046BDE8C0
:103A3000F883304605F002FD0020F8E72DE9F0415B
:103A400006460D4617461C46012B02DB0020BDE84A
:103A5000F0811C20FFF70EFD0028F8D00DB10561A4
:103A60000BE00A4A02EB8401C96C09B905E0114672
:103A70000A68002AFBD109690161846187820021FB
:103A800001604160C0E90216E1E70000F0A60020F5
:103A900070B51D46FFF7D2FF040001D000F00EF80C
:103AA000E068006818B9034800EB8500046520460B
:103AB00070BD0000F0A60020FFF7B4BC30B590B395
:103AC0008169012930DA1C4A02EB8103D96C11B9F2
:103AD000D8642EE011464A68002AFBD106E0CA6885
:103AE000C46812682468A24203DD09680029F6D17F
:103AF0001AE0C1B1CA68C56812682D68AA420CD123
:103B0000828A012A05D008E01146D2681268A242D2
:103B100003DB0A68002AF7D129B14A6832B1106084
:103B20004A68426003E0FFE7012030BDD864486086
:103B30000160002030BD0000F0A600200A4A816923
:103B400002EB8101CA6C824201D10268CA644168F9
:103B500009B102680A60016809B142684A6000213F
:103B60000160416070470000F0A60020012801DBE1
:103B700000207047064901EB8000C06C04E0C1687A
:103B800009680029F5D000680028F8D170470000C6
:103B9000F0A600202DE9F04107460D4616460C2000
:103BA000FFF701FC04000DD000F0CEFC2046FFF72B
:103BB000E1FC0649C0E9001705814681FFF734FDA5
:103BC00001F0DEFE2046BDE8F0810000F457010858
:103BD0002DE9F0410D461646984604000DD0FFF73A
:103BE000C9FC00680768FFF71FFD434632462946B7
:103BF0002046BC46BDE8F0416047BDE8F08170B5A5
:103C000004004FF000000BD02046FFF7B3FC006823
:103C10004568FFF709FD2046AC46BDE870406047A7
:103C200070BD70B504004FF000000BD02046FFF7C8
:103C3000A1FC00688568FFF7F7FC2046AC46BDE8AC
:103C40007040604770BD00002DE9FC47060075D04C
:103C500000F07AFC00F0A0FB394C8146B4F92280D8
:103C600000F0DCFBA18C0746C81BA0843DE000BF30
:103C700047F6FF71304602F0EDFB824601463046C2
:103C800002F0C0FB0546A08D00F0030001283ED0E5
:103C9000022838D00020618C6A46081A6084ADF88A
:103CA0000000691E0844ADF80400A08CADF80200C5
:103CB000A9F101010844ADF806005146304602F072
:103CC0008FF8BDF80200A0845146304601F044FD53
:103CD000064430780A281CD00D281AD0BDF8000000
:103CE00028446084307818B1761C30780028BFD121
:103CF000A08C3844A084A08D20F00300A085BDE8EE
:103D0000FC4701F03DBE05EBD5704010C3E72846E7
:103D1000C1E7A08D00F0030001280CD002280AD0D2
:103D2000208C608430780A28DCD1A18C01EB09005A
:103D3000A084D7E702E0A4F82280F3E7BDE8FC877F
:103D4000F0A6002070B506460D46144600F0FCFBB8
:103D50000448458484843046FFF776FFBDE8704010
:103D600001F00EBEF0A6002047F6FF73AFF300800F
:103D70002DE9FC4106000D46174698461BD000244D
:103D800000F0E2FB65B1284606F052FA040007D0C5
:103D900002462946684602F0CAFB684606F048FA21
:103DA00043463A462946304602F06AF8204606F075
:103DB0003FFA01F0E5FDBDE8FC8100007CB5064658
:103DC0000D46144600F0C0FB1148016C406C0D44D8
:103DD00004443188681E0844ADF80400ADF8005072
:103DE0007188601E0844ADF80600ADF802406846D0
:103DF00006F070FB06E0224629463046FEF73EFC00
:103E000006F02AFB0028F6D101F0BAFD7CBD0000C7
:103E1000F0A600201CB50A460146684602F025FCC3
:103E200000F092FB2348BDF80020016C0A44ADF875
:103E30000020BDF80220406C0244ADF80220BDF81D
:103E400004201144ADF80410BDF806100844ADF884
:103E50000600684606F03EFB27E000BFBDF90040C3
:103E60000BE000BFBDF90210204602F0A9FEBDF92B
:103E70000610204602F0A4FEA41CBDF90400A042D6
:103E8000F0DABDF902400AE0BDF90000214602F077
:103E900097FEBDF90400214602F092FEA41CBDF974
:103EA0000600A042F0DA06F0D7FA0028D6D101F0D9
:103EB00067FD1CBDF0A600202DE9F04F87B0044639
:103EC000DDE910890D4616461F4600F03DFB1549F9
:103ED000086C496C044406440D440F44ADF810408E
:103EE000ADF81460ADF81250ADF8167004A806F0E5
:103EF000F1FA88B1DFF830B04FF0000ACDF80CA02D
:103F00008DE8000B33463A462146284609F0AEF9C3
:103F100006F0A2FA0028F1D101F032FD07B0BDE8A9
:103F2000F08F0000F0A60020296C00082DE9F04F6A
:103F300087B00446DDE910890D4616461F4600F09D
:103F400003FB1549086C496C044406440D440F44B6
:103F5000ADF81040ADF81460ADF81250ADF8167021
:103F600004A806F0B7FA88B1DFF830B04FF0010AC4
:103F7000CDF80CA08DE8000B3B4632462946204682
:103F800009F074F906F068FA0028F1D101F0F8FCA4
:103F900007B0BDE8F08F0000F0A60020716B0008AC
:103FA0002DE9FC4105460E46174600F0CDFA104CAF
:103FB000206C616C064407440D44ADF80060ADF818
:103FC0000470ADF80250ADF80650684606F082FA6B
:103FD00007E0206E3A46294603683046984706F0C7
:103FE0003BFA0028F5D101F0CBFCBDE8FC810000D4
:103FF000F0A600202DE9F04104460D4616461F4666
:1040000000F0A2FA0C49086C496C044406440D44C3
:104010000F44002006F05EFA07E03B463246294690
:104020002046FEF771FB06F017FA0028F5D1BDE82F
:10403000F04101F0A5BC0000F0A600207CB50646CA
:104040000D4600F081FA0E4C206C0644606CADF811
:1040500004600544ADF80060ADF80650ADF80250BC
:10406000684606F037FA06E0206E29464268304678
:10407000904706F0F1F90028F6D101F081FC7CBDF3
:10408000F0A600202DE9FC4106460D461446984650
:1040900000F05AFA1A48037E016C406C8F190E1911
:1040A0005B1E054400EB0804F81AADF80000F01898
:1040B000ADF80400E81AADF80200E018ADF806000B
:1040C000684606F007FA15E032462946384602F0FF
:1040D0004FFD32462146384602F04AFD621E691CF9
:1040E000384602F0A1FD621E691C304602F09CFDBC
:1040F00006F0B2F90028E7D101F042FCBDE8FC81EE
:10410000F0A600207CB506460C46154600F01CFAC9
:104110000E48016C406C0E4404440544ADF8006048
:10412000ADF80460ADF80240ADF80650684606F000
:10413000D1F906E02A462146304602F075FD06F028
:104140008BF90028F6D101F01BFC7CBDF0A6002005
:1041500070B50C46054600F011F910B10121C0E917
:1041600000142846BDE8704006F00EB910B50024D2
:1041700000E0012400F004F80028FAD1204610BD28
:10418000064810B50068002410B1804700B1012432
:1041900005F0C2F900B10124204610BD1401002031
:1041A0001CB5002100910191694600F049FF04E02F
:1041B000FFF7DCFF08B901F0EDFB00980028F7D00D
:1041C00001981CBD2DE9FC4104460D4616461F46CC
:1041D00000F0BAF91049086C496C044406440D44D7
:1041E0000F44ADF80040ADF80460ADF80250ADF8F2
:1041F0000670684606F06EF907E03B4632462946EF
:10420000204602F039FD06F027F90028F5D101F02B
:10421000B7FBBDE8FC810000F0A60020B0F9063035
:10422000B0F90420B0F90210B0F90000FFF7CABFDE
:1042300008B50B46002805D0009281888268C088A6
:1042400000F001F808BD10B50828029C30D008DC49
:1042500004FB01F401280AD0022813D0042804D159
:104260001CE0102828D020282CD0002010BD04EB02
:10427000D30003F00701105CC1F10701C84000F052
:10428000010010BD04EB93000621105C01EA43011C
:10429000C1F10601C84000F0030010BD04EB53005B
:1042A000D907105C02D000F00F0010BD000910BD4E
:1042B00004FB0130105C10BD481004FB003032F8E4
:1042C000100010BD881004FB003052F8200010BD13
:1042D000034901EB8000C06CC1688A6A082110475D
:1042E000F0A6002010B500F02FF902F0F3FC02F068
:1042F00083FD044601F044FB204610BD10B5044682
:1043000000F022F905480021C06942682046904724
:10431000044601F035FB204610BD0000F0A6002049
:1043200070B504460D4600F00FF905482946C069EE
:10433000426820469047044601F022FB204670BDAB
:10434000F0A60020002801D005F046B9704710B54E
:1043500000F0FAF802F0C4FC02F04EFD044601F051
:104360000FFB204610BD000001004FF0000001D1FE
:104370000148006870470000D80400201FB50021E4
:104380000191029103912A210091694605F09EFD59
:10439000039804B010BD000010B500F0D5F8034834
:1043A000C069447E01F0ECFA204610BDF0A6002062
:1043B00010B500F0C9F802F01DF8044601F0E0FA6B
:1043C000204610BD70B506460C46154600F0BCF8F8
:1043D0002A462146304602F0AFFC10B10020206092
:1043E0002860BDE8704001F0CBBA70B504460D46B8
:1043F00000F0AAF82946204602F056F8BDE87040C1
:1044000001F0BEBA10B5044602F040F8014620465D
:10441000BDE8104001F0F6BF01F006BB10B5002466
:1044200000F092F80A48818D01F00C01042904D0B3
:10443000082906D00C2907D103E0C069047E641E58
:1044400002E0C069007E440801F09AFA204610BDDF
:10445000F0A60020017EC07E48437047034901EB6F
:104460008000C06C0069006870470000F0A6002062
:10447000034901EB8000C06C006940687047000090
:10448000F0A6002070B505460C4600F05DF8284601
:104490000AF010FF054620460AF012FF40EA050424
:1044A00001F06EFA204670BD10B501F07FFC0B499B
:1044B0002E20087001F0BAFA09480AF097FFFEF7BB
:1044C00041FF02F0BBFC04460021084600F01AFE42
:1044D00005F0DEFAFEF716FF204610BDF8000020BA
:1044E000F0A600202DE9FC4104460D4616461F4665
:1044F00000F02AF8012000F0AEFD12498046086C59
:10450000496C044406440D440F44ADF80040ADF836
:104510000460ADF80250ADF80670684605F0DAFFA9
:1045200007E03B4632462946204602F0A5FB05F04F
:1045300093FF0028F5D1404600F08DFD01F020FAF0
:10454000BDE8FC81F0A6002070B5264CE06820B1E3
:1045500001F062FA6168884204D001F07FFA01F04C
:104560005BFA6060E068401CE060012831D1002502
:104570000DE000BF01F050FA05EBC501226901EB27
:10458000410152F82110814205D019B36D1CA06879
:104590008542EFDB0025206885421AD0002817DB12
:1045A00000EBC000216900EB400001EB8000001D22
:1045B00068220D49FBF796FF05EBC500216900EB6A
:1045C000400001EB8001091D68220748FBF78AFFC4
:1045D000256070BD05EBC50101EB410142F82100EA
:1045E000D9E70000DC040020F0A6002010B504008C
:1045F00003D10A48446D002C0FD0FFF7A5FF2046D9
:10460000FFF71CF8406920B1FFF718F88168896846
:104610008847BDE8104001F0B3B910BDF0A60020F6
:1046200001490A4600F002B801F0FFFF2DE9FC47FE
:104630005FEA00080D4616463AD0FFF785FF0020D6
:1046400000F009FD81461B48476D4046FEF7F6FF26
:10465000044600F0B1FC40F6FF70401903D1B4F9F4
:104660000450B4F906602189681E0844ADF80400BE
:10467000ADF800506189701E0844ADF80260ADF8D5
:10468000060004F089FD684605F024FF06E0324686
:104690002946404600F0D9FA05F0DEFE0028F6D1A2
:1046A000384600F03BF9484600F0D5FC01F068F9C7
:1046B000BDE8FC87F0A600202DE9FE4F074688469E
:1046C00091469A4600250C9EFFF73EFF1348417C19
:1046D00000EB8100C46CE0680068042803D0246803
:1046E000002CF8D100E01CB90846FFF73FFA044659
:1046F0000121E068C26A2046904750B121690096C6
:10470000CDE9010153464A464146384600F090F94A
:10471000054601F035F92846BDE8FE8FF0A60020D9
:1047200070B5050019D0FFF70FFF0C48406DA84287
:1047300001D100F041FC2846FEF780FF04464069A5
:1047400008B101F00AF92068FFF7B6F92846FEF72C
:1047500045FEBDE8704001F013B970BDF0A6002021
:104760002DE9FF4F83B03F4CDDF840B0070089468C
:10477000984629D002A901A8FFF737FEB7F90060D3
:10478000002E00DA0026B7F90250002D00DA0025CD
:10479000A246607C02F0EEFA01990144491EB7F985
:1047A00004000BF053F904469AF8110002F0E8FAFD
:1047B00002990144491EB7F906000BF047F9A71BFF
:1047C0007F1C441B641C09E000263546607C02F017
:1047D000D1FA0746607C02F0D3FA0446B8F1000F24
:1047E00001D1C4F10008002F01DD002C03DC002002
:1047F00007B0BDE8F08F43463A4629463046CDF82B
:1048000000B0FFF759FF5FEA000A07D000F04EF84A
:104810008046504600F082F800271AE04946059885
:1048200088470120E4E7E11B414502DA504600F0E9
:104830005BF83FB1EA193146504600F099F850460E
:10484000FFF7D4FE4946059888475046FFF7E8FE33
:104850004744A742E7DB5046FFF762FF002000F025
:104860005DF8C4E7F0A6002070B505004FF0000425
:104870000DD0FFF769FE2846FEF7E0FE00680069EC
:104880008068804702F0ACFE044601F079F82046CB
:1048900070BD10B50446FFF757FE2046FEF7CEFE6A
:1048A000044601F06DF804F1180010BD70B504461F
:1048B0000025FFF749FE14B90548446D24B1204690
:1048C000FEF7BCFEB0F90A5001F05AF8284670BD58
:1048D000F0A6002010B506F09BFE002803D0BDE82E
:1048E000104000F06FB810BD70B505000C4603D144
:1048F0000948456D002D0DD0FFF726FE2846FEF72E
:104900009DFEB0F90A10A14200DD4481BDE870406F
:1049100001F036B870BD0000F0A600202DE9F0418E
:104920000546FFF711FE114C666D5DB10EB100F04A
:1049300043FB2846FEF782FE074604F031FD606D1A
:1049400018B106E000F038FB0BE0D4E90201C4E93D
:10495000160165653868FFF7B1F802F097FC02F0C0
:1049600001FC01F00DF83046BDE8F081F0A6002012
:1049700070B504000E46154603D11148446D002C55
:104980001DD0FFF7E1FD2046FEF758FE2DB2C58091
:1049900036B20446868002F0E5FB606958B1FEF746
:1049A0004DFEB4F90810818029B1B4F90A10C18014
:1049B00009B106804580BDE8704000F0E1BF70BDE0
:1049C000F0A6002001490A4600F002B801F0FFFFFE
:1049D0007CB506000C46154629D0FFF7B5FD3046DC
:1049E000FEF72CFE40F6FF71091903D1B0F904401F
:1049F000B0F906500289611E1144ADF80040ADF8CF
:104A000004104189681E0844ADF80600ADF8025054
:104A1000684605F05FFD06E02A462146304600F074
:104A2000FFF805F019FD0028F6D100F0A9FF7CBDC4
:104A30002DE9FF4F81B0DFF8D4B0DDE90E6092467A
:104A40001C4600279BF811303A461099FEF7F6FFF6
:104A500005004ED028698068804702F0C1FD81467C
:104A60000AFB09F1C91D4FEAD108FEF7B1FDF107B4
:104A700005D1C11700EB9170801000EB4000002CB5
:104A800006DC1838B0FBF8F06442A04200DC0446B3
:104A9000F00707D10090DDE901012346524600F0FE
:104AA000D5FE0746002C03DC2846FFF705F82AE070
:104AB00004FB08F01830F10702D0FEF765FC01E0B6
:104AC000FEF771FC060017D0FEF7B8FD05600199EE
:104AD00081800299C180A0F808A04481C0F80C80B0
:104AE000C0E904971098AE6028619BF81100A86196
:104AF000304605B0BDE8F08F2846FEF7DDFF17B160
:104B00003846FEF76BFC0020F3E70000F0A600201B
:104B10002DE9F74F8CB090460C98FEF72BFDB0F9BD
:104B200008100691B0F90A10089100680069D0F8E1
:104B300004B0FEF779FD384C607C04EB8000C06C5B
:104B4000C1688A6A082190478146182801D34FF02E
:104B50002009607C04EB8000C06C0069079003C8EA
:104B60000A902E48814201D0012000E000200990E7
:104B7000002000F083FF00284AD10026DDE90C0563
:104B8000B2460BAB4746761C069C0093FFF781FEAE
:104B9000009B014604FB0AF0CDE900B301EB800263
:104BA00023463946284601F019FA050030D0099805
:104BB000D0B1DDE906134A46284601F044F898B919
:104BC000DDE906702C46D0F810C0BCF1000F05D00E
:104BD000294604233A460846E04705E00A9920683A
:104BE000884701C47F1EF9D10020CDE90305059057
:104BF00001200090CDE901094146034608F1010872
:104C0000069A0D9801F0AEFE0898401E0890B5D1A6
:104C10000FB0BDE8F08F0000F0A600203B6E00084A
:104C200070B50D4616460446FEF708FD00681621CD
:104C3000C068426A00209047030005D032462946EA
:104C40002046BDE87040184770BD2DE9F0410E4682
:104C500017460546FEF78EFC4469FEF7E5FC28463C
:104C6000FFF702FE0346082800DD34B13A4631461C
:104C70002846BDE8F0410DF08DB83A463146284649
:104C8000BDE8F0410DF01CBA10B5002821D009B3E1
:104C90000AB3B1F90030B2F90040A34200DB234669
:104CA0000380B1F90230B2F90240A34200DB23468F
:104CB0004380B1F90430B2F90440A34200DC23463A
:104CC0008380B1F90610B2F90620914200DC11464A
:104CD000C18010BD11460A6802604968416010BD7C
:104CE00000280BD003880B440380838819448180FB
:104CF000418811444180C1881144C180704700003F
:104D000070B5114D0446D5E9000188420FD10F4915
:104D1000884203D1D0E90F12406C04E0A0F10C00EE
:104D2000D0E9001280682160C4E9012006E090E823
:104D30000E0084E80E000AF0D7FA2860207A0028D6
:104D400000D0012070BD000040010020C4A7002059
:104D50000448D0E90010814201D1012070470020B1
:104D60007047000040010020054A10B5034911605A
:104D70000CF056FEBDE8104000F00CBAB5970008E4
:104D80001801002070B50025FFF7DEFB094CD4E9BF
:104D9000000188420AD0D0E9005600210AF096FAB4
:104DA00020603146284604F0A5FF012500F0E8FD0B
:104DB000284670BD340100202DE9FC41154CDDE989
:104DC0000875B4F90860864200DD3046B4F90C601D
:104DD000964200DA3246824219DBB4F90A608E420A
:104DE00000DD3146B4F90E409C4200DA23468B4286
:104DF0000DDB00E02546EC68246824B1042C02D0C9
:104E00002C68002CF6D1CDE9007502F097F8BDE8CA
:104E1000FC810000F0A60020B0F90220B1F90630B4
:104E20009A4213DCB1F90220B0F906309A420DDC47
:104E3000B0F90020B1F904309A4207DCB1F9001052
:104E4000B0F90400814201DC012070470020704766
:104E5000014668220148FBF745BB0000F0A6002090
:104E600070B504001AD0FFF76FFB20460CF09AFED5
:104E700020460CF0EFFE2046FEF77CFB054600685E
:104E8000FEF7D0FAE868FEF7A9FA2046FEF7A6FA80
:104E9000FEF7CAFBBDE8704000F072BD70BD70B592
:104EA00004460D461646FFF74FFB3246294620467C
:104EB0000CF0C4FABDE8704000F062BD70B50500AA
:104EC00018D0FFF741FB2846FEF754FB0446008B41
:104ED000800709D428460AF0ECFC28460CF034FD83
:104EE000208B40F002002083FEF79EFBBDE870405F
:104EF00000F046BD70BD00002DE9F0470446008873
:104F0000089F8846914620B1608810B1E088082843
:104F100002D90020BDE8F087E06880680028F9D059
:104F200007F0010200212048FEF788FD0500F1D0BE
:104F30002088860060884643FFF706FB06F12000C4
:104F4000FEF731FA06001ED03046AE60FEF712FBC7
:104F50000783C461A0F80480A0F80690238808EBBA
:104F60000302521E0281628809EB0201491E41813F
:104F70000560FEF759FB2146304606F04BFC30B188
:104F800000F0FEFCC5E72846FEF796FDF8E7B807F7
:104F900005D530460AF08DFC30460CF0D5FC00F00B
:104FA000EFFC3046B6E70000942D01086822014965
:104FB000FBF798BAF0A6002010B5FFF7C5FA02F08B
:104FC00089F802F063F904F0E7F8BDE8104000F05A
:104FD000D7BC000070B5074C0546667CFFF7B4FAF5
:104FE0001DB900206074FFF7E7FF00F0C9FC3046F0
:104FF00070BD0000F0A6002070B504460D4604F018
:1050000079FE002805D129462046BDE8704000F011
:10501000D1B870BD10B50446FFF796FA204602F0ED
:1050200077F8BDE8104000F0ABBC10B50446FFF7C0
:105030008BFA204602F0A2F8BDE8104000F0A0BCB8
:105040001FB50022019202922A2203910092694622
:1050500004F03CFF1FBD10B50446FFF775FA20466B
:1050600002F0A2F8044600F08BFC204610BD0000C0
:1050700070B50446FFF768FA0348C56904B1C46116
:1050800000F07EFC284670BDF0A6002070B50446F6
:105090000D461646FFF758FA32462946204602F0DA
:1050A0009FF8044600F06CFC204670BD70B50446C5
:1050B0000D461646FFF748FA32462946204602F0CA
:1050C000A5F8044600F05CFC204670BD70B50446AF
:1050D0000D46FFF739FA2946204602F0C3F8044688
:1050E00000F04EFC204670BD70B50546FFF72CFA67
:1050F0000348847E857600F043FC204670BD0000A6
:10510000F0A6002070B505460C46FFF71DFA0948C9
:1051100022460580084804800848417C00EB810055
:10512000C06CC1680B6A29469847BDE8704000F022
:1051300027BC00002401002026010020F0A600204A
:1051400070B50546FFF700FA0348047E057600F0C7
:1051500017FC204670BD0000F0A6002070B5044684
:10516000FFF7F2F90348B0F92C50848500F008FCF1
:10517000284670BDF0A6002070B50446FFF7E4F99C
:105180000348B0F92A50448500F0FAFB284670BD68
:10519000F0A6002002480068002800D000477047B1
:1051A0001405002002498A6802B98860FFF7F2BF3F
:1051B0003401002070B5074D04466868C0E900411D
:1051C00029680AF083F8C5E90104BDE87040FFF7DB
:1051D000E1BF00003401002070B50446FFF7B4F9C8
:1051E00094B10E4D2868A04204D1FEF727FA8068DA
:1051F000286009E0FEF722FA05468068A042F9D14E
:10520000FEF71CFA8068A86020460CF02DFD2046B1
:10521000FEF7E4F8BDE8704000F0B2BBF8040020EF
:1052200070B50546FFF790F92846FEF707FA0446E1
:10523000FFF7F2F8A1690844606128460CF014FDFC
:1052400028460AF041FBBDE8704000F099BB70B5FC
:1052500005460C46FFF778F92846FEF7EFF984611A
:10526000BDE8704000F08CBB70B5044600202060A3
:105270000448056825B12846FEF7E0F9006920607A
:10528000284670BDF804002070B504004FF00000FF
:105290000D46086009D02046FEF7D0F9846824B195
:1052A0002046FEF7CBF900692860204670BD00005B
:1052B00010B50024FFF748F90748406840B1FEF7F1
:1052C000BDF90446FFF7A8F861690C1A00D500245F
:1052D00000F056FB204610BDF804002010B5002455
:1052E000FFF732F90348406800B1012400F048FBA1
:1052F000204610BDF80400202DE9F84FDFF890801B
:105300000446244FD8F81800894641070A9D787C46
:1053100092469B4606D401F03FFD0646787C01F09C
:1053200047FD05E001F044FD0646787C01F034FDC0
:10533000002794B1A0F101000646BBEB050000D5A3
:105340004042142806DB5146B9EB0A0000D5404222
:10535000142804DA0120BDE8F88F701EECE70A4635
:105360005B464946384600950AF0DCFA0A4F5B4630
:10537000524647F834004946304600950AF0D2FAC2
:1053800007EBC401486001210020C8F81C10E2E7C7
:1053900064010020F0A600200CA800202DE9F047B1
:1053A0005B4D5C4C0026E86930B1D4E900018842CD
:1053B00010DAC5E9080111E06868266000F005010F
:1053C000666010F0060F01D000F00500A660012015
:1053D000E660E8612068686260682862D4E90201DA
:1053E000884202DAC5E90A0101E0C5E90A10287815
:1053F000C8B100F0D9F8A846286100F0D3F82969AF
:10540000286A81420BDBD8F824204046914206DC12
:10541000836A42699A4202DBC36A9A420EDD4FF008
:10542000FF3001466FE000F0F9F8686100F0BBF86A
:10543000287800F101002870BDE8F087D8F818003E
:10544000354D22684007687CA1EB020702D401F0C9
:10545000A3FC01E001F0ACFCD4E90021A0F10100C3
:1054600007FB00F7A1EB0201D8F81420A068A146C1
:1054700097FBF1F7A2EB0004D8F818004007687C0E
:1054800002D401F095FC01E001F086FCA0F10100DE
:1054900004FB00F4D9E90201A1EB000094FBF0F455
:1054A000D8F818004007687C17D401F075FC8146D5
:1054B000687C01F07DFCD8F818200146D00704D0A4
:1054C000A9EB0700A0F1010000E03846920702D5E1
:1054D000091B491E17E0214615E001F069FC8146D1
:1054E000687C01F059FCD8F81820D10704D0A9EB4A
:1054F0000701A1F1010100E03946920702D5001B26
:10550000401E00E020460CF0B7FA88F8006093E7F0
:10551000640100200CA80020F0A600200149886149
:105520007047000064010020074A002806DB0029BC
:1055300004DB01231372C2E9000101E000201072B4
:10554000014800F003B8000058AC002010B5044634
:105550000C220749FAF7D0FE002808D0044894E846
:105560000E000EC02046BDE81040FFF7FDBB10BD89
:1055700070AC002030B40A4C2268831A01D5C3F104
:10558000000362688A1A00D552421A44022A04DDD6
:10559000C4E9000130BCFFF7C7BF30BC7047000052
:1055A0000C0500207047704770B586B000241422A7
:1055B000194901A8FAF796FF002501AE05E003F0AE
:1055C00043FB26F81400641CE4B20A2CF7D320D164
:1055D000641E002500200CE0411C36F8102036F82F
:1055E00011309A4204D926F8112026F810300125EE
:1055F000C8B2A042F0DB002DEBD1BDF80A00BDF827
:105600000C100844BDF80E1008440321B0FBF1F063
:1056100085B2284606B070BD2C2D010870B586B045
:1056200000241422194901A8FAF75CFF002501AEF5
:1056300005E003F02DFB26F81400641CE4B20A2CEC
:10564000F7D320D1641E002500200CE0411C36F861
:10565000102036F811309A4204D926F8112026F885
:1056600010300125C8B2A042F0DB002DEBD1BDF80F
:105670000A00BDF80C100844BDF80E1008440321C0
:10568000B0FBF1F085B2284606B070BD402D010890
:1056900070B504460D46FEF757FF054829460068D9
:1056A000C26820469047044600F06AF9204670BD63
:1056B0000001002010B50446FEF746FF04480068CC
:1056C000016820468847044600F05AF9204610BD7C
:1056D0000001002010B50446FEF736FF04480068BC
:1056E000416820468847044600F04AF9204610BD2C
:1056F000000100200149096889680847000100206D
:105700002DE9F041084E04460568306801682846D6
:105710008847074630684168284688472844206003
:105720003846BDE8F0810000000100202DE9F0417D
:10573000002580460E462C46064F06E0396808EBE9
:1057400004004968884704446D1CA642F6DC2846DC
:10575000BDE8F081000100202DE9F04106460C462D
:105760000025064F05E03868416830468847064402
:105770000544641EF7D22846BDE8F08100010020F0
:105780002DE9F0470646089D884614469946B068BC
:105790002246641C47684B4641463046B8476D1E5A
:1057A000F5D1BDE8F08770B5B0F90040B0F902500E
:1057B000091B00F114040069521B02FB0040CA18C7
:1057C00000EBE104521ED010B0EBE10501F007033D
:1057D0004FF0FF0102F0070221FA03F0C2F10702C5
:1057E00001FA02F1CEB221780FD001436D1E04F808
:1057F000011B002D05DDFF2229462046FAF76AFE2F
:105800002C4420783043207070BD3040014321701B
:1058100070BD10B5B0F90030B0F90240C91A00F1FE
:1058200014030069121B02FB003000EBE10001F0E1
:10583000070302788021D9400A43027010BDB0F9F5
:105840000610026951431430FAF77EBE2DE9F04785
:10585000804602F10F000011460003FB06F0894666
:1058600015461C461430FDF79EFD070012D0FEF7CA
:105870006BFE3846FDF7E2FEA0F80080A0F802902B
:105880008580C4800449816001218181066100F026
:1058900077F83846BDE8F087504F010870B5B0F989
:1058A0000660B0F904400B6800F11405964220DD53
:1058B0000069A34202FB005000EBE30219DAA4F1F5
:1058C00001044FEAE400A0EBE30512F8010B03F03A
:1058D000070400FA04F0C4B208E055B112F8014B15
:1058E00003F10803A5F1010523F00703002CF4D010
:1058F00008E0002070BD00BF4FEA44604FEA10642A
:1059000003F101032006F7D5FF2C0AD0184605E065
:105910004FEA44644FEA146400F101006606F7D4CC
:1059200000E0D81DC443640706D007E012F8014B1D
:10593000FF2C0FD100F108006D1EF7D5A0EB03007E
:1059400000F101000B6070BD4FEA44624FEA12643F
:1059500000F101002206F7D4F0E710B50446FEF787
:10596000F3FD2046FDF76AFE8189491E09B2818157
:1059700011B92046FDF732FDBDE81040AFF30080BD
:105980000348C168491EC16001D100F071B8704779
:10599000DC04002070B5FEF7D7FD14480568FDF75C
:1059A000E1FD2C0004D000BFFFF7EAFF641EFBD12D
:1059B0000F4CA06848B1FFF791FC48B1FFF778FCA5
:1059C00030B1A16831B1884704E0FFF787FC08B91E
:1059D0000CF0BCF91DB1FEF7B7FD6D1EFAE7FDF73F
:1059E0001BFEBDE87040FFF7CBBF0000E8040020BD
:1059F0001405002010B54FF4E0410448FDF7E6FC23
:105A0000BDE810408020FDF7FDBD0000703600208D
:105A1000322002F0A3B800000248006890F82E007F
:105A2000704700007800002002F0F2B810B50020A6
:105A300001F062FE0149C86010BD00009000002026
:105A400010B5012001F058FE034C6060002001F009
:105A500031FEA06010BD00009000002008B5034892
:105A60006A460021406801F069FE08BD90000020F0
:105A70000148406801F0BEBE900000200EB508B19C
:105A800002AA00E00022002301A9684600F04EFCB3
:105A90000EBD000003490A6900B1012008611046EB
:105AA00070470000480100202DE9F0410C461646E1
:105AB000984688B3FEF7A6FC074608F003000128C5
:105AC00025D0022817D0B4F9005000BFFEF764FCBF
:105AD000014608F00C0004282BD00C281DD0B4F986
