:020000040800F2
:1000000088B400200101000805010008070100086C
:10001000090100080B0100080D01000800000000A4
:1000200000000000000000000000000011010008B6
:100030000F01000800000000530200086986000854
:100040004DA70008F57E0008DD860008D97F00086E
:10005000CD110008D57F0008BF110008C3110008AA
:10006000C5110008C7110008C9110008C90D000812
:10007000CB0D0008CD0D0008CF0D0008D10D0008F4
:10008000D30D0008D50D0008A506000885870008D7
:1000900087870008C50D0008C70D0008CB110008B0
:1000A000DF860008E5860008E3860008E186000890
:1000B000E7860008E9860008EB860008C7630008A9
:1000C000C5630008CB630008C96300081F850008EA
:1000D000218500087D8700087F8700088187000848
:1000E000C1110008D77F00088387000800000000C6
:1000F0000000000000000000000000000000000000
:1001000004480047FEE7FEE7FEE7FEE7FEE7FEE7FE
:10011000FEE700001901000800F002F800F05CF8AA
:100120000AA090E8000C82448344AAF10107DA4552
:1001300001D100F051F8AFF2090EBAE80F0013F048
:10014000010F18BFFB1A43F001031847CC4D010003
:10015000EC4D01000A444FF0000C10F8013B13F085
:10016000070408BF10F8014B1D1108BF10F8015B10
:10017000641E05D010F8016B641E01F8016BF9D103
:1001800013F0080F1EBF10F8014BAD1C0C1B09D15A
:100190006D1E58BF01F801CBFAD505E014F8016BCC
:1001A00001F8016B6D1EF9D59142D6D3704700005E
:1001B0000023002400250026103A28BF78C1FBD870
:1001C000520728BF30C148BF0B6070471FB5AFF35F
:1001D00000801FBD10B510BD00F02EFA1146FFF7CC
:1001E000F5FF11F0B3FE00F04CFAFFF7F3FF00F05B
:1001F0004FFA000002480349034A044B70470000CD
:1002000088AC002088B4002088B0002088B000208E
:10021000EFF3108072B6704780F31088704724485F
:100220004FF0FF010170002080F309881D48012173
:10023000017020484FF08051016062B6FEE71D4812
:100240004FF08051016070471A484FF080510160B3
:100250007047EFF3098028B1203880E8F00F124989
:100260000968086000B50A4880475DF804EB0B4850
:100270000B490A7802700C480C490A680260106841
:1002800090E8F00F203080F309884EF0040E70479C
:100290005F760008657100083600002038000020F5
:1002A000390000203B0000205800002060000020A2
:1002B00022ED00E004ED00E072B6704762B67047D0
:1002C000EFF3108072B6704780F31088704740EAF1
:1002D000010310B59B070AD1042A08D310C808C926
:1002E000121F9C42F8D020BA19BA401A10BD0AB9A0
:1002F000002010BDD30701D0521C05E010F8013BCF
:1003000011F8014B1B1B07D110F8013B11F8014BF1
:100310001B1B01D1921EF1D1184610BD40EA01030A
:10032000024630B59B0710D14FF0013400E008C2FF
:1003300008C91D1B9D4315EAC41FF8D013F0FF0127
:1003400002F8011B0ED01B0AF8E711F8014B02F866
:10035000014B002C134605D011F8014B5A1C002C00
:100360001C70F2D130BD10B5431C04E010F8011B25
:1003700009B9C01A10BD8107F8D14FF0013202C887
:100380008C1A8C4314EAC211F9D0C01A0A0601D0A3
:10039000C01E10BD0A0401D0801E10BD0902FCD091
:1003A000401E10BD032A40F2318010F0030C00F013
:1003B000158011F8013BBCF1020F624498BF11F89F
:1003C00001CB00F8013B38BF11F8013BA2F1040258
:1003D00098BF00F801CB38BF00F8013B11F00303D0
:1003E00000F06B80083AC0F0098051F8043B51F8E6
:1003F00004CB40F8043B40F804CBF3E7121D5CBF8C
:1004000051F8043B40F8043BAFF30080D20724BF0F
:1004100011F8013B11F801CB48BF11F8012B24BFA3
:1004200000F8013B00F801CB48BF00F8012B7047F2
:10043000431A28BF9A427FF6B5AF032A10441144ED
:1004400040F2218010F0030F1EBF11F8013D521E33
:1004500000F8013D10F0030F7FF4F6AF083AC0F04A
:100460000A8051F8043D51F804CD40F8043D40F8AD
:1004700004CDFFF7F3BF121D5CBF51F8043D40F8F7
:10048000043DAFF30080D20724BF11F8013D11F8FD
:1004900001CD48BF11F8012C24BF00F8013D00F840
:1004A00001CD48BF00F8012C704702F0FF0343EA7A
:1004B000032242EA024200F05EB810B5203AC0F0D2
:1004C0000B80B1E81850203AA0E81850B1E8185055
:1004D000A0E81850BFF4F5AF5FEA027C24BFB1E892
:1004E0001850A0E8185044BF18C918C0BDE8104003
:1004F0005FEA827C24BF51F8043B40F8043B08BF0C
:100500007047D20728BF31F8023B48BF11F8012BD2
:1005100028BF20F8023B48BF00F8012B70474FF07E
:10052000000200B5134694469646203922BFA0E843
:100530000C50A0E80C50B1F12001BFF4F7AF09074F
:1005400028BFA0E80C5048BF0CC05DF804EB890040
:1005500028BF40F8042B08BF704748BF20F8022B83
:1005600011F0804F18BF00F8012B7047704770479B
:1005700070474FF000020429C0F0128010F0030C05
:100580003FF4CFAFCCF1040CBCF1020F18BF00F860
:10059000012BA8BF20F8022BA1EB0C01FFF7C1BF74
:1005A0005FEAC17C24BF00F8012B00F8012B48BF93
:1005B00000F8012B7047431A28BF9A427FF67DAF9F
:1005C000104410F0030F11441EBF11F8013D521EDC
:1005D00000F8013D10F0030F7FF4F6AF103AC0F0C1
:1005E0000A8010B531E91850103A20E91850BFF4CC
:1005F000F9AFBDE81040530724BF31E9081020E9E6
:10060000081044BF51F8043D40F8043D12F0030FB8
:1006100008BF7047D20728BF31F8023D48BF11F824
:10062000012C28BF20F8023D48BF00F8012C70477C
:100630000048704724AC00207546FFF7F9FFAE462E
:1006400005006946534620F00700854618B020B5DE
:10065000FFF7D0FDBDE820404FF000064FF0000747
:100660004FF000084FF0000B21F00701AC46ACE85A
:10067000C009ACE8C009ACE8C009ACE8C0098D46C7
:1006800070470446AFF300802046FFF7AEFD704789
:1006900003494FF01800ABBE70470000F3FFFFFFA7
:1006A000260002007047002800DC4042704710B569
:1006B00000220A231146104607F000F804F000FC5F
:1006C000F6E7000030B58FB003F080FC4FF6FF7006
:1006D00009F00EFA02F0BEFE042009F0F7F900233B
:1006E0000621CDE9001302930021F0234FF4A072FC
:1006F000084608F001FB3B4C20613B4909F067F9D3
:1007000002F062FE00F0FEFA002104A801F030F9C8
:1007100000250995002104A801F006FA012104A88A
:1007200001F026F90995012104A801F0FDF92F48EF
:1007300001F0D2F92E4807F065FB2E4800F0C2FA0E
:100740002D4807F013FD2D4807F094FE2C4805F0C6
:100750002BFE022321691A028DE80E0023234B226F
:100760000A21D72000F02EF9A06121690223CA22B4
:100770008DE80E0023234B223C21D72000F022F9E4
:10078000E06120A1A06900F0DEFA20A1E06900F09C
:10079000DAFA002300931F4A16211F48019302F042
:1007A000A3FE606103F08EFA206909F0B9FA08F03F
:1007B00095FC09F0B5FA606909F0B2FA206908F011
:1007C000A1FE08F08BFC08F09DFE606909F092FA2A
:1007D00003F05EFA002232231146104606F06EFF47
:1007E000F6E7000000000020CD1C0108BDDC000879
:1007F000817D0008B90A0008DD7F00083583000804
:100800006963000853746172740000004261636B95
:1008100000000000791D01085C20010870470000FD
:1008200000B585B0012006F0EBFC1349C860032336
:100830000022CDE903234FF400611048CDE9010106
:1008400005230F4A00210F48009306F0F9FD03230A
:1008500000220B48CDE90323001D4FF48071CDE940
:100860000101042300F57F7200210748009306F080
:10087000E7FD05B000BD000000000020AC0700202F
:10088000A8270020C5060008AF060008704770477B
:1008900010B506F0B5FF06F073FDFFF7C1FF0B4C76
:1008A0002021204602F068F80022642311461046F9
:1008B00006F004FF2021204602F05CF800226423A9
:1008C0001146104606F0FAFEEAE70000000C01406F
:1008D0007047704710B507F027FB01F0E3FF11F0F8
:1008E0004DFBBDE8104001F0C7BB000070B5456886
:1008F00004460146284607F069FF00285FD02068BB
:100900002F4A0F2818D006DC0B2823D00C280FD034
:100910000E284FD12DE0112802D028284AD143E0DB
:100920009268002A4BD021462846BDE87040104707
:10093000214628465268F8E7284602F0FFFB406E41
:10094000046802F055FC002C39D02846A446BDE8C6
:1009500070406047284602F0F1FB0546683002F01F
:1009600051FB032105F16C0002F05AFB02F040FC40
:1009700020E0E168486809680D2902D0202913D1D8
:1009800005E0002810DD28460EF0EFFC06E0002808
:1009900004DD2846BDE870400EF0E7BC2846BDE8FF
:1009A000704002210EF0F6BCE06818B9002128461C
:1009B00000F09EF92046BDE8704008F053BA70BDC3
:1009C000740100202DE9FF410AAF70CF0027039585
:1009D0008DE8D00000F003F804B0BDE8F081F0B578
:1009E00085B00DF1280CBCE8F0004FF0000C8DE84C
:1009F000F01000F025F805B0F0BDF0B5044685B064
:100A000010461D46B4F90830668AA2690296CDE9FF
:100A100003320027CDE90017B4F90C10B4F91030F7
:100A20002944B4F90A50B4F90E20284400F008F81B
:100A30000546616800F087F905B02846F0BD000062
:100A40002DE9FF5F0546DDE911B4DDE90E780E46BC
:100A500091469A4603F00AFB4C341549CDE902143D
:100A6000CDE9007853464A463146284608F054F905
:100A7000050016D002F062FB04461022594608F029
:100A8000C5F830220B4904F13400FFF716FD094E7A
:100A90000C3E3068606602F0ABFB30684168284667
:100AA000884704F0FFFC04B02846BDE8F09F000032
:100AB000ED08000880010020F0B5044680688049F8
:100AC00087B051F82050606800287DD0032804D0FA
:100AD00004287AD0102879D1AAE0E86900284FD0FC
:100AE00095E80E008DE80F0004F10C010FC905F028
:100AF000DFF8002655F8260004F029F86169E86956
:100B00000A1AE16801442069304402F0DBFF6169A0
:100B1000E8690A1AE1680144A069801B02F0D2FF6B
:100B2000A169E8690A1A21690144E068304403F0C8
:100B30007BF8A169E8690A1A216901446069801B90
:100B400003F072F8761C022ED4DBA86803F0FFFFD6
:100B5000A069E9692669431AE0684218521E3144C7
:100B6000801C03F0C1F8A169E86962690B1A216968
:100B70000144101A401C921E03F0B6F8EE6913E00F
:100B80005FF0000655F8260003F0E1FFA069831B23
:100B90006069821B20698119E068304403F004F821
:100BA000761C022EEEDB0226D5E90301CDE9000119
:100BB0002169A069084443106069891C821BE068B0
:100BC000304402F045FF02E073E012E074E0D5E942
:100BD0000501CDE90001A36920690121184401EB59
:100BE000600160699B1E821BE068304402F030FFA8
:100BF00062E0206802F0A2FA0546206809F0EEFAE9
:100C000038B1A06808B1002006E0286F20B10120AB
:100C100002E0686F00B1022005EB8000C56E02F0B3
:100C2000E7FA00231A462846216802F063FD43E0F4
:100C3000206802F083FA866E9EB3B0F95C70A168FA
:100C400091B3022933D0022100EB8101406D0C6C7D
:100C500003F0A0FF02F0CCFA204603F078FF04A8CE
:100C600003F002F9BDF81010E8690144ADF8101066
:100C7000BDF81410081AADF81400BDF81200801C5D
:100C8000ADF81200BDF81600801EADF81600022067
:100C900004F004F8304602F051FA3A4604A902F092
:100CA000F5FD02F0A5FA07E0FFE70121CCE70021FE
:100CB000CAE7206808F0CEFF07B00020F0BD0000B2
:100CC0005C2B0108044A0349116004494A6A4862DE
:100CD00010467047B0010020740100208001002000
:100CE00000294FF0100101D007F0F6BD07F04CBD10
:100CF0004FF480720029114601D007F0EDBD07F0D6
:100D000043BD0000034802494160034981607047C8
:100D10006FF600087401002099F4000808B500235C
:100D2000009300F001F808BD70B504460D4610466A
:100D30001946049A02F0C0FC024629462046BDE846
:100D4000704000F022B8F8B504000E461CD003F045
:100D50008DF9204602F0F2F9856E009502F048FA0E
:100D60003146684605F028FA60B10098A84206D0DE
:100D7000204602F0E3F90099816602F039FA204634
:100D800008F05CFC04F08EFBF8BD70B505000C4665
:100D9000164616D003F06AF9284602F0CFF9032C64
:100DA00009D800EB840404F16C0002F02BF928460A
:100DB000E66608F043FC02F01BFABDE8704004F060
:100DC00071BB70BD70477047704770477047704780
:100DD00070477047704700E0401E0028FCD1704704
:100DE0002DE9F0475FEA00090D467CD003F03EF99B
:100DF000484602F0A3F990F85480876D466BC46CA6
:100E000002F0F6F91FB129464846B8475FE0122DB7
:100E10001AD006DC082D42D0102D3BD0112D06D162
:100E200014E0132D22D01D2D42D01E2D3CD0202D9C
:100E30004DDBB8F1000F02D048460AF01EF9A9B206
:100E400048460EF0AFF848B3611C24E036B3304694
:100E500002F074F90546214604F010FA44192046C0
:100E600004F0BAF90146234601220FE0B6B130463C
:100E700002F064F90546214604F000FA44192046C0
:100E800004F0AAF9014623464FF0FF32484609F024
:100E900017FF1AE0611E484600F06AF917E0B4B186
:100EA000611E484600F064F948460AF0E6F80EE094
:100EB000484602F043F9B8F1010F0FD0012180F844
:100EC00054102146484600F053F902F091F9484683
:100ED00008F0B4FBBDE8F04704F0E4BA002180F864
:100EE0005410F2E7FFE7BDE8F08770B544680546A7
:100EF000204609F073F906462946204607F066FCAD
:100F0000002855D028680E283AD004DC0B282ED0B3
:100F10000C2848D114E00F2823D0A0F58070133896
:100F200041D1204608F006FD204600210EF0F3FBDB
:100F3000204602F003F9C06F002108F0D4FC1CE049
:100F4000E86860B1017A29B10168204600F0A0F894
:100F5000012100E00221204608F015FC23E00321D6
:100F6000F9E72046BDE8704001210EF0D4BB2046D1
:100F700002F0E4F8343002F045F802F039F912E0FA
:100F80008EB1E868416800290DDD016809290AD0A1
:100F90000A2908D00D2906D01B2904D02046BDE817
:100FA0007040FFF71DBF2846BDE8704007F05ABFEC
:100FB00070BDF0B5044687B0D4E9056710461D46FC
:100FC000628A0DF1080CB4F90830ACE8CC000022BC
:100FD000CDE90012B4F90C10B4F910302944B4F979
:100FE0000A50B4F90E20284400F008F8050002D099
:100FF000618A00F0A8F807B02846F0BD2DE9FF5F30
:101000008046DDE91254DDE90E67894692469B462B
:1010100003F02CF80DF1040C47F4805054341A49B5
:101020000096ACE813005B4652464946404607F03E
:1010300073FE060022D002F081F8044610221199B6
:1010400007F0E4FD1C22114904F16000FFF735FAB6
:10105000012084F8550005B908252DB22587002008
:1010600060876D1C606302F0C3F8294630460DF0BE
:101070009BFD18B9304607F033FF002604F012FA42
:1010800004B03046BDE8F09FEB0E00083C020020A3
:101090002DE9F0475FEA00080E4652D002F0E6FF65
:1010A000404602F04BF80446406B80B302F046F82D
:1010B0008246A06E03F06EFD8146404608F0A6F819
:1010C0000746504602F030FF0546206E00F0030050
:1010D000012816D002280DD0E16A606E0968084424
:1010E000341A641E504604F063FF0146002C0FDAE8
:1010F000002115E0781B401C00EBD070A6EB6004CB
:10110000F0E7616E781B401A341A641CEAE712E0BB
:10111000AC4205DC02462146504604F0EDFE014695
:10112000404600F025F802F063F8484603F032FD2F
:10113000404608F083FA02F05BF8BDE8F04704F09F
:10114000B1B9BDE8F08770B504000D460FD002F0CC
:101150008DFF204601F0F2FF18B10566204608F029
:101160006DFA02F045F8BDE8704004F09BB970BD1F
:1011700070B50C4601F0E2FF0546406BD8B101F0B6
:10118000DDFF04F015FF95F8541001B10121002C8A
:1011900000DA0024844200DD0446B5F93800401A24
:1011A000A04200DA0446E86CA04200D0EC640020C3
:1011B000286502F01DF8BDE8704002F019B87047CC
:1011C00070477047704770477047704770472DE908
:1011D000F04389B00F461546984606004FF00004CC
:1011E0002DD000F0D1FB0446304600F0AAFB81462A
:1011F00002F03CFF03A9304600F04CFDF80706D092
:10120000BDF91C00001B401B401C822109E0B807EF
:101210000028BDF91800284402DA40F2022100E05B
:1012200002210096CDE9018123461A464946FFF77F
:10123000C9FB04460021FFF753FD04F033F909B060
:101240002046BDE8F083000010B50523FFF7BFFF7F
:101250000446054A0021FFF761FD0449204608F0D5
:10126000B6FB204610BD0000C1B100084D1E0108AC
:1012700010B50723FFF7ABFF0446054A0021FFF72F
:101280004DFD0449204608F0A2FB204610BD000099
:1012900051B20008631E010810B50823FFF797FF3D
:1012A0000446054A0021FFF739FD0449204608F0AD
:1012B0008EFB204610BD000081B20008991E010877
:1012C0002DE9F047456804468AB0284601F036FF0C
:1012D00000F15C00B0F82090D0F80C80476AC66A34
:1012E000006808B1D0F800A001F082FF05E0716845
:1012F0002046884700283BD13668002EF7D1206869
:10130000142841D009DCA0F10B00072822D2DFE825
:1013100000F0AA3682B132B1110020287AD004DC64
:1013200017283BD01E2815D148E0262839D02A2876
:1013300010D110E02846E66801F000FF717A39B953
:10134000317A012904D130F87C1F41F48071018089
:1013500001F04EFF8EE0284601F0F0FEE16811B189
:10136000C0F8841002E0D0F88400E06001F040FF93
:101370000AB0BDE8F0872846514688477AE0214602
:1013800028460EF0ADF8F3E704A9284600F082FCE9
:10139000E0680599016006994160E9E7C4F80C80AE
:1013A000E6E7E0680228E3D10295E0680390272091
:1013B00000906946A06809F0E5F8D9E7E0680128DF
:1013C00004D00021284600F078FBD1E7384608F029
:1013D00089F958B1384608F0A3FB384608F088F878
:1013E00078B10121384607F077FA0AE0404608F064
:1013F000E3FB0746284601F0A1FEC0F8807001F02B
:10140000F7FE0121284600F058FB002FB0D1002044
:10141000E060ADE70BE05FEA09702BD4E068C068DC
:1014200040B3007A30B3284608F07AFB22E0E66841
:1014300006B32946706808F0BEFE20B10121284697
:101440000FF04EFA16E0002128460FF049FA29461F
:10145000306808F09FFE68B1284601F06FFE3168E1
:10146000C0F8801074E7284601F068FE703001F083
:10147000C9FD6DE72146284607F0A8F900288CD061
:10148000204607F0EFFC73E7F0B587B014461D4621
:10149000B0F908200DF10C0C0C9E87694368ACE88C
:1014A000CC00428A0023CDE900130292B0F90C105F
:1014B000B0F91030B0F90E20B0F90A0029442044E8
:1014C00000F002F807B0F0BD2DE9F04F89B080467A
:1014D00012A88946E0C892469B46189C02F0C6FDB9
:1014E0006034324846F48056CDE90204CDE9005616
:1014F0005B4652464946404607F00EFC05004FD079
:1015000001F01CFE04463022159907F07FFB2822CB
:10151000274904F13400FEF7D0FF04F15C0417986A
:10152000A06027844FF00007DFF88480676227619E
:10153000A8F10808E762D8F80400206001F058FE1E
:1015400004A9284600F0A6FB1A4841F282710397CD
:101550000095CDE90110BDF91A00BDF91610BDF9CD
:101560001820431ABDF914005B1C121A521C07F014
:10157000D3FB0446D8F8040041682846884728462B
:1015800001F0DCFD846601F033FE42F20400064205
:1015900002D1284607F000FD2846169900F0ECFA23
:1015A00003F080FF09B02846BDE8F08FC1120008A3
:1015B00060020020871F00082DE9F04104468EB02C
:1015C000006800F0A9F908B1D24D01E0D14D2C35E9
:1015D000606813281ED00CDC09281FD004DC00280A
:1015E0007DD003287CD12AE10C287AD01028F9D1AB
:1015F0003CE1142806D0152808D0162808D01A284F
:10160000F0D109E0E8690EB0BDE8F081286AFAE798
:10161000686AF8E7A86AF6E76869F4E72068059061
:101620001A200690206801F089FD016D05A8884701
:10163000064601F0DDFD022E0EDB95E807008DE881
:101640000700D4E903023346616904F0FBFAE0685D
:1016500087196069801B2BE0286803F078FAE1683D
:10166000E8690A18521E206902F02CFA6269E869DA
:10167000111A491C206902F025FA2769E0687F1CCD
:10168000394602F06DFA3946606902F069FA686815
:1016900003F05DFAE0683946401C02F061FA6069C7
:1016A0003946401E02F05CFAE7686069BF1C801E84
:1016B0008046286803F04BFA42463946206902F01A
:1016C00001FA686803F043FA20694246401C394633
:1016D00002F0F8F9686A02280FDDA86802E00AE162
:1016E000ACE0F5E003F033FA21696A6A0846831832
:1016F000891C5B1E4246384627E0296AB14226DD36
:101700002069022E074600F1020801DB374401E0A0
:1017100007F10207E06801DB304401E000F102005C
:10172000E2683B460A44A2F10102414602F0DCFABB
:10173000022E02DB6069821B01E06269921E606911
:10174000E9693B46401A401C414602F0CDFA022EA0
:1017500002DB2069064401E02669B61CA7692868F7
:101760007F1E03F0F4F93A463146E06802F05CFA75
:101770003A463146606902F057FAA7696868BF1EA9
:1017800003F0E5F9E0683A46401C314602F04CFAB5
:1017900060693A46401E314602F046FAE86902287E
:1017A00002DC286A022821DDA86A022802DDA1697C
:1017B0000F1A01E0A769BF1EA86803F0C8F9EA691B
:1017C000022A07DDE1683B460A44881C521E314666
:1017D00002F08AFA286A022808DD6269E8693B4655
:1017E000101A401C921E314602F07EFA286803F05F
:1017F000AEF9D4E90520E16802F064F9686803F005
:10180000A6F96269E168A069521E491C401E02F0F7
:1018100059F9A86A02287BDDE6686169A469B61CEB
:10182000271AA1F102087F1CA41EA86803F08FF9F3
:10183000234642463946304602F056FA68E0E068F0
:1018400000B2ADF80C00216909B2ADF80E10626962
:1018500012B2ADF81020A3691BB2ADF812302C699A
:10186000ED68CDE9005402F0F3F851E0E068A969B1
:101870000844ADF80C002069ADF80E006069A96954
:10188000401AADF81000A069ADF81200206801F010
:1018900055FC0446006FC0B1022003F0FFF9B4F814
:1018A0007C00C0F3C00004EB8000006C03F04FF933
:1018B000606B03F06FF9206F01F040FCB4F95A201F
:1018C00003A901F0E3FF01F093FC01F091FC1FE09C
:1018D000E068ADF80C002069ADF80E006069ADF865
:1018E0001000A069ADF81200A86803F030F903A851
:1018F00002F026FA0CE0206801F020FC30F85A1FB4
:1019000041F00C01018001F073FC206808F0A2F99D
:10191000002078E69C02002070B505004FF000041E
:101920000DD002F0A3FB284601F008FCB0F87C00C3
:10193000000700D5012401F05BFC03F0B3FD204655
:1019400070BD70B505004FF000040FD002F08EFBA3
:10195000284601F0F3FBC06D00218068026828462C
:101960009047044601F044FC03F09CFD204670BD06
:10197000022905D2034A52F821102C22FEF79DBD00
:10198000704700006C2B010830B585B005004FF0A2
:10199000000411D002F06AFB6946284600F07AF98B
:1019A000284601F0CBFBB0F9544001F021FC0CB902
:1019B000BDF9004003F076FD05B0204630BD10B5FE
:1019C000040008D002F052FB20460DF020FCBDE8D8
:1019D000104003F067BD10BD10B5040008D002F040
:1019E00045FB20460DF060FCBDE8104003F05ABDF9
:1019F00010BDF0B5054687B0006801F09FFB0446B6
:101A0000B0F87C00ED69C0F3C007206F18B101F099
:101A100095FB064600E00026E868009028690190E2
:101A2000A888401EADF80800E889ADF80A002889AA
:101A3000401CADF80C00688AADF80E00BDF800003F
:101A4000401CADF80000BDF80200401CADF80200DB
:101A5000BDF80400401EADF80400606B03F09AF876
:101A6000B4F95A3004AA6946304603F0AFFD04EBDE
:101A70008704A06B05F0DEF8206C05F011F904ABCB
:101A80006A4602A9304606F0EDFF01F0B1FB0EB147
:101A900001F0AEFB07B00020F0BD10B504000BD084
:101AA00002F0E4FA20460EF0B4FE20460EF084FE6A
:101AB000BDE8104003F0F6BC10BD70B504000D4643
:101AC00009D002F0D3FA294620460EF009FFBDE8FE
:101AD000704003F0E7BC70BD074A0649054B116032
:101AE000064A083BD16958601B68C2E906300846BF
:101AF00070470000900200205C020020600200207D
:101B000070B504460D4602F0B1FA44B1204601F02A
:101B100015FB056601F06CFB204607F08FFDBDE864
:101B2000704003F0BFBC000070B503460D460229AB
:101B30001FD2104C2C22194654F82500FEF7BDFC8C
:101B400054F825100220CA69022A00DAC86154F844
:101B500025100A6A022A00DA086254F825104A6A37
:101B6000022A00DA486254F825108A6A022A00DA4A
:101B7000886270BD6C2B010838B504000D4619D081
:101B800002F074FA204601F0D9FA006F009001F0DB
:101B90002FFB2946684604F00FFB48B1204601F0B0
:101BA000CDFA0099016701F023FB204607F046FDBE
:101BB00003F078FC38BD70B505000C4613D002F078
:101BC00055FA284601F0BAFAB0F95A10A14204D0E9
:101BD000A0F85A40284607F031FD01F009FBBDE8A6
:101BE000704003F05FBC70BD70B505000C4614D0AA
:101BF00002F03CFA284601F0A1FA002200EB820133
:101C0000521C0C64022AF9D301F0F2FA284607F0BC
:101C100015FDBDE8704003F045BC70BD2DE9F843EB
:101C20005FEA00090E464FF0000530D002F01EFAC0
:101C3000484601F083FAB0F954500446AE4222D02F
:101C400000F08FF88046A4F85460E06D01218468AC
:101C50004846226890470646226803214846904736
:101C6000074622680021484690470446484600F04F
:101C700055F93B46324641464846009400F0E0F8AC
:101C8000484607F0DBFC01F0B3FA03F00BFC2846F2
:101C9000BDE8F8832DE9F34F85B04FF000080C46FE
:101CA000C146059801F04AFA0546C06D01218668D3
:101CB000059832689047834632680321059890471B
:101CC0000090326802210598904704903268002104
:101CD000059890470746284608F040F901902846A5
:101CE00008F043F98246688E800601D5B5F9589010
:101CF000284600F036F80646E86E10B107F099FA6B
:101D000080462680A4F80280A4F804B0DDE9002013
:101D1000801A07EB0902401E9319208103EB080289
:101D2000E280049BAAEB0302521E6281A4F80CB06D
:101D30002082B819E781401E608201F059FAB4F997
:101D40000C000290B4F91000039003AA02A90598B0
:101D500000F036F80298A0810398208207B0BDE811
:101D6000F08F10B5014600204A8E920607D5B1F9D2
:101D70005400002803D1486B02F0FEF8801C10BD0F
:101D800070B588B00D46044601F0D8F9C06D86687C
:101D900001F02EFA009435B1012D06D0022D0BD0A2
:101DA000032D04D10AE0162000E014200190716890
:101DB0006846884708B070BD1320F7E71520F5E79F
:101DC0002DE9F04788469146044601F0B7F9C16D08
:101DD00005688E6801F00CFA3268002120469047B1
:101DE0000646204607F091F926E000BF01F0A6F96B
:101DF000B0F900102AB2B0F90430891A9A1AB0F971
:101E00000230A3EB2543B34211D1806A000607D507
:101E1000D9F8000088420ADB491EC9F8001006E024
:101E2000D8F80000904202DC521CC8F8002001F0F3
:101E3000DFF9204607F09BF90400D7D1BDE8F08711
:101E40002DE9FF4F81B00F46DDF838A0019801F071
:101E500075F9C16D8D68FFF784FF044601F0C8F97C
:101E60002A6801210198904700902A68032101986F
:101E7000904783462A680021019890470646BC4255
:101E800008D103990098884204D104998B4501D167
:101E9000564540D04FF00009E41BC846019807F0B2
:101EA00034F936E001F04AF90546806A010602D5A8
:101EB0004FEA805002E0810526D50006002823DB8A
:101EC00024B122461146384607F097FCA86A00065E
:101ED0000BD50498A6EB0A02A0EB0B0104FB18112A
:101EE00008F10108384607F03FFCA86A80050BD5C9
:101EF00003990098A6EB0A02411A04FB091109F1A3
:101F00000109384607F030FC01F072F9384607F055
:101F10002EF90700C6D105B0BDE8F08F70B586B0C8
:101F2000064601F00BF9D0E91A4501F061F954EACF
:101F3000050026D069463046FFF7ACFEACB1BDF9CE
:101F40000620BDF90410204607F0D8FBBDF90A00B1
:101F5000BDF90610421ABDF90800BDF90410521C63
:101F6000411A491C204607F095FE002D09D0BDF905
:101F70000600BDF90210421ABDF90410284607F008
:101F8000BDFB06B070BD2DE9FF470446406806461C
:101F900007F0FAF8814601F0D1F8D0F88080876C1C
:101FA000456E01F025F9206817285FD008DC0E285F
:101FB0003BD00F280BD0142858D015283ED155E01F
:101FC0001E281AD01F2829D0222837D14CE06FF0C4
:101FD0007040874204D0384604F02CFE01F03AFAF3
:101FE000002D08D0D4E902122068CDE90006CDE921
:101FF00002126846A847BDE8FF87E0680028FAD0CB
:102000005FEA080006D0B04504D004B0BDE8F04750
:1020100007F086BD304607F0CFFD1BE004B0214637
:102020004846BDE8F04706F0D1BBE06841680029AA
:1020300004DD00680928EDD00A2808D0B5B1C4F83D
:10204000049004B02046AC46BDE8F04760473046F7
:1020500007F0DCFD0446484601F070F8C0F8804007
:10206000BDE8FF4701F0C4B8E760C4E704B020460C
:10207000BDE8F04706F0F6BE2DE9F04397B0012128
:10208000080205F039FF01217C2005F041FF4FF4E3
:102090000057ADF8007003248DF8024010268DF82B
:1020A0000360DFF8B4806946404600F011FC022569
:1020B000ADF80050DFF8A4906946484600F008FCEF
:1020C0004CF23370ADF800008DF8024018208DF806
:1020D00003006946404600F0FBFB4FF68070ADF808
:1020E00000006946484600F0F3FB8020ADF8000090
:1020F0006946404600F0ECFBA802ADF800006946D6
:10210000404600F0E5FB3946404600F035FC0195BD
:102110000020029005210391049005900690E906A5
:1021200007910890099008210A910B960C900E9047
:102130000F9010904902119112901390149001A8E1
:102140001590169008A800F01DF80121002000F05D
:1021500007F817B0BDE8F0830014014000180140F3
:102160004FF0204202EB800021B1016841F00101F3
:10217000016070470168024A114001607047000029
:10218000FEFF0F0030B5D0E901121143D0E903235F
:102190001A43114342690368114382691143C269BA
:1021A0001143026A1143426A1143826A1143C26AAF
:1021B0001143026B11434FF0204242F82310816813
:1021C000082906D1016802EB81010B6843F0400346
:1021D0000B60416BD1E9003443EA04138C68CD688D
:1021E000240244EA054423430C6943EA04534C693E
:1021F000896943EA04630B430168491C42F82130B2
:10220000C16AB1F5804F15D1816B0068D1E9003406
:1022100043EA04138C680D69240244EA05542343FD
:102220004C69896943EA04630B4302EB8000C0F800
:10223000043130BD00686FF0704102EB8000C0F8DF
:10224000041130BD2DE9F0410446C56886B00F4643
:102250009046002002F091FC064625B1287910B185
:1022600046F0020001E026F0020002F086FC206940
:10227000012558B1D4E902128DE826000395638840
:102280002288046841463846A04719E0E06804F017
:1022900024FB30B9E088012801D0002001E00B4880
:1022A0000068A288E388A1680095CDE90410CDE913
:1022B00002320195638822884146384604F0E4F8EA
:1022C00006B03046BDE8F04102F057BC04050020DE
:1022D0001CB50024019401AC009400F0E5F81CBD8D
:1022E0002DE9FF4F83B081460598109EA0EB0904AD
:1022F00000208A460090A3EB0A0835689B4654EA02
:10230000080018D02046FEF7CEF907464046FEF7F3
:10231000CAF987420BDA2046444680464846D146F1
:1023200082460598CDF814B0834601200090002C19
:1023300007DD204606E007B04846BDE8F04F00F054
:1023400037B96042A0420AD04846DDF814900590A3
:102350006442C8F10008DA464FF0FF3000E0012087
:1023600083465048B8F1000F12D000BF04EBD4717F
:102370004FEA610501DAC5F100054A48807E78B36D
:10238000BBF1000F02DA306820443060002775E0AE
:1023900000990029817E1FD011B10027804614E0EA
:1023A000059A07B049465046BDE8F04F04F0CEB953
:1023B00028466D1C0EF026FB30B9D8F8600009EBFA
:1023C00007014268504690477F1CA742F0DD6D1E12
:1023D000356007B0BDE8F08F19B10027804616E0E0
:1023E00018E0006E059A5146036807B04846BDE8FC
:1023F000F04F184728466D1C0EF004FB30B9D8F892
:10240000601009EB07004A68514690477F1CA742BD
:10241000F0DDDCE700260EE008FB065090FBF4F14F
:1024200001EB0A00009949B11E4A09EB0601126E40
:1024300052689047761CA642EEDDCAE7194909EBBF
:102440000603096E4A6801461846F2E708FB075082
:1024500090FBF4F101EB0A000190316801EB0B00F5
:1024600030600EF0CFFA40B90098A0B10D4809EBEA
:102470000701006E4268019890477F1CA742E5DD86
:10248000BBF1000F02DA3068204430603168A1EB04
:102490000B0030609DE7034909EB0700096E4A68AD
:1024A0000199E9E798A600202DE9FF4788463F49B2
:1024B00007460C98097E15461E4601291DD0781B3B
:1024C000A8EB060250EA02031CD0A1F10109114653
:1024D0000FF0B8FB00F58060824603F017FF00FBA9
:1024E00009F4504603F016FF00FB09F0002C0BDA4C
:1024F000C4F5007189124C4209E00090414638460B
:10250000FFF7EEFEBDE8FF8704F50074A412002873
:1025100004DAC0F500708012404202E000F500705D
:102520008012002C04DD611C01EBD171491003E025
:1025300004EBD4714910641E04EBD47253100028CC
:1025400004DD421C02EBD272521003E000EBD072A9
:102550005210401E7C18ADF8004008EB0204ADF8A4
:102560000240FC1A00EBD0704010ADF80440A8EB1C
:102570000004EB1AADF80830301AADF80A006818FC
:10258000ADF80C00B018ADF80E000023ADF8064011
:102590001A460421684600F075F8414638460AF0AC
:1025A000C9FC314628460AF0C5FCABE798A60020D6
:1025B000064B1A7E012A05D0521E02EBD27252102F
:1025C00000F006B81A6E52681047000098A6002066
:1025D0002DE9F05F0646884640F2C32050434FF491
:1025E0007A7190FBF1F702FB02F002EBD27100EB83
:1025F000610B1446B118224A7F1C301B126E1368FF
:102600000A4641469847012536E000BF05FB05F024
:1026100004FB040159451ADDBC4217DD184B06EBDB
:102620000509A6EB050A1B6EA9F1010208EB0401DE
:102630001B680AF101009847114BA9F10102A8EBB0
:1026400004011B6E0AF101001B689847641E0C48C8
:1026500006EB040AA6EB0409006E08EB05015246DE
:102660000368484698470648A8EB05015246006EA5
:102670000368484698476D1CBD42C7DDBDE8F09F22
:1026800098A600202DE9FF4F40F6FF740F466642E2
:1026900083B081469B4600210BE000BF09EB81001F
:1026A000B0F90200A04200DA0446B04200DD06465E
:1026B000491CB942F2DB6848406900280DD0B0F9E6
:1026C0000620A2EB0B01B14200DA0E46B0F902106F
:1026D000A1EB0B00A04200DD0446B6E0DFF87CA1D0
:1026E00000200546CAF800008BE0781E854201DA1A
:1026F000691C00E0002109EB850C09EB8103BCF9A2
:102700000200B3F90220A042904645D1A04517D15E
:1027100039F92520059804EB0B0C104439F92120D8
:10272000059953184C499842096ED1F8008002DA95
:102730001A46614602E0024661461846C0475FE01D
:10274000284622460023A7F1010C0AE008B1401EEA
:1027500000E0781E09EB8001B1F90210914203D12B
:102760005B1C6345F2DB2146A14249D039F92500C3
:10277000A1EB0402A8EB0403DDF814C05A4008D40E
:10278000354A604404EB0B01126E13680246984709
:1027900036E007F0DDFF33E0A04531D001DBA04299
:1027A00003DDA0422CDBA2422ADCE04690420ADC98
:1027B0000146A04224DC9446A24221DBB8F9000085
:1027C000B3F9002009E01146A24219DC8446A04278
:1027D00016DBB3F90000B8F90020631A121A5A4345
:1027E000002AACEB010302DD02EB630202E0A2EB84
:1027F0006302521CACEB010192FBF1F10844C8E703
:102800006D1CBD42FFF671AF0598009004EB0B0004
:10281000019000208046054612E01149B8F1000FF2
:1028200031F915A008D0009901EB0A0208440A49C1
:10283000096E0B680199984788F0010850466D1C95
:10284000064909688D42E8DB641CB4427FF746AF55
:1028500007B0BDE8F08F000098A60020B404002067
:10286000DCA7002010B5002002F066F96FF07F4071
:1028700002F06DF9012002F0F5F9002002F000FAF3
:10288000002002F00BFA002002F077F904480068FB
:1028900002F080F9BDE81040002002F0B7B9000056
:1028A000DC00002008B501217C2005F031FB202050
:1028B000ADF8000010208DF8030003208DF8020011
:1028C0006946024800F004F808BD0000000C014011
:1028D0002DE9F0410022CC7804F00F03E40601D585
:1028E0008C7823430C884FF00F0714F0FF0F4FF044
:1028F000010C1BD005680CFA02F40E882640A64293
:1029000010D1960007FA06FE25EA0E0803FA06F52E
:1029100045EA0805CE78282E01D1446102E0482E10
:1029200000D10461521C082AE5D305600A88FF2AF9
:102930001ED94568002202F108060CFA06F40E883A
:102940002640A64210D1960007FA06FE25EA0E0898
:1029500003FA06F545EA0805CE78282E00D1446131
:10296000CE78482E00D10461521C082AE3D345607A
:10297000BDE8F081416170470161704730B591B0A9
:1029800005460C46202215496846FDF796FD134979
:102990002022203108A8FDF790FD284600F0D8F845
:1029A000A8682168C16261680163A16841635DF83C
:1029B0002120C0F8DC2008AA52F82120C0F8E0202D
:1029C000490707D5D0E90021C0E90012D0E902216A
:1029D000C0E90212A189818411B030BDA82A010882
:1029E0002DE9F041884616461F46054600F0B0F82E
:1029F000AC684422414604F1E400FDF75EFD284640
:102A0000B0472846B847286980688047A062BDE87B
:102A1000F081000010B5044600F09AF8A0680A4959
:102A200000F1300001670949C16609494167094958
:102A3000C16709498167A0F10C00418821F00301B9
:102A400041800649416610BDD50A0108110F0108F1
:102A50009D0A0108970601087F060108D5090108AB
:102A600010B5044600F074F8A4680D4804F1880419
:102A70004FF01001A0630B48E0630B4820640B4843
:102A800060640B48E0600B482061E06AE06454F841
:102A90008829204690471020A0630748E06310BDB6
:102AA000A5C3000831DE0008BD2A00087F2B0008FE
:102AB00079060108811401088C450108F8B584687D
:102AC0000D461746E08C80073FD5D4F8DC30204611
:102AD00098470646D4F8E0303A46294620469847BB
:102AE00005462069B04201DD012000E00020A16917
:102AF000B14201DA012100E0002108436169A942E5
:102B000001DD012100E000210843E169A94201DA69
:102B1000012100E0002108430AD06068401E0090B7
:102B20002368D4F89C705B1E002211462046B847EB
:102B3000D4F8A0302A46314620469847D4F894105D
:102B400001B02046BDE8F0400847D4F8A030F3E7D4
:102B500070B50446806800280FD14FF4947528465C
:102B600000F06CFAA06048B12A46002103F052FB45
:102B7000A0680221C1840121016270BDFEE72DE938
:102B8000F84384680D461746E08C9846800740D588
:102B9000D4F8DC30204698470646D4F8E0303A4670
:102BA00029462046984705462069B04201DD0120AC
:102BB00000E00020A169B14201DA012100E000211A
:102BC00008436169A94201DD012100E000210843B9
:102BD000E169A94201DA012100E0002108430AD09D
:102BE0006068401E00902368D4F89C705B1E002231
:102BF00011462046B847D4F8A0302A463146204630
:102C00009847D4F8982001B041462046BDE8F043EB
:102C10001047D4F8A030F2E72DE9F04FDFF824B1E7
:102C200091B04FF0FF35BBF922200692DBF81C3043
:102C3000BBF924A0DC69A189884206D3E2898242DB
:102C400003D3461AD4F8008012E0D4E901810029A8
:102C50006ED00A8890426BD34D88854268D3801A23
:102C6000496880B201EB8000B0F90060B0F9025011
:102C7000701C5DD0187EA27C014600FB02F9207C0E
:102C80000B910790BBF92A70384604F01FF8C0B2C8
:102C90000E902D48A27C016806FB09800126CDE933
:102CA0000262CDE90401DBF81C00C17E807ECDE923
:102CB0000001DDE9060251460B9B03F0E5FB681CB1
:102CC00018D047F0020004F001F81F48A27C016808
:102CD00005FB0980CDE90262CDE90401DBF81C00A7
:102CE000C17E807ECDE90001DDE9060251460B9BE5
:102CF00003F0CAFBDBF81C005D46417E007E81428A
:102D000013D9022F11D087F0040003F0DFFFE86928
:102D1000027EC37E857E02FB03A1437EDDE90602BF
:102D200002FB0502534403F039FD0E9803F0CEFF79
:102D3000BBF82210627C1144ABF8221011B0BDE840
:102D4000F08F000098A60020040500200348C06909
:102D5000C06909B1027C0A60407C704798A60020D7
:102D6000022008807047C0698289914202D3C289DB
:102D70008A4210D2806880B102888A420DD8438886
:102D80008B420AD3406800EB8100A0EB8200B0F9CF
:102D90000000002801DB0120704700207047000080
:102DA0002DE9F0432D4C034687B0E069B4F92A8041
:102DB0001946C06900F07FF800284BD041680088B0
:102DC000181A01EBC0054046AE7803F07FFF81463C
:102DD0002348012201686868CDE90226CDE9040193
:102DE000E069C27E817ECDE90012037E2A78B4F9C3
:102DF0002410B4F9220003F047FBE069467E077E09
:102E0000BE421CD9C07E46434743B8F1020F16D0DC
:102E100001F02FF8804600F0F7FF01F098FEE2691C
:102E2000B4F922002978D27E01FB0202B4F9241001
:102E30008B19394403F0B2FC404601F088FE484645
:102E400003F044FFE269B4F922006978927E01FB45
:102E50000200608407B0BDE8F083000098A600205F
:102E60000405002030B50D4C05460B46E0692946A7
:102E7000C06900F020F800280FD041680088E4699C
:102E80002A1A012000EBC200A47E085C6043002BDC
:102E900003D011F832106143196030BD98A60020AC
:102EA00001200880704700B5C06900F004F80028D0
:102EB00000D0012000BD06E002888A4202D8428884
:102EC0008A4202D280680028F6D170472DE9F0418D
:102ED00000250C4C2F460FE005EBC50000EB40062B
:102EE0002069682200EB8600001D0749FDF7E5FA1E
:102EF00020696D1C40F82670A0688542ECDBBDE8B7
:102F0000F0810000BC04002098A6002070B50F4995
:102F10000D480860084603F047F90C4D6C20143D3D
:102F2000AC684443204600F089F82246002128611D
:102F300003F070F928690028FDD04FF0FF302860B9
:102F4000BDE8704002F00EBB5DF40008D004002024
:102F500010B5040009D001F089F8204607F052FCB2
:102F6000044602F09FFA204610BD002010BD70B547
:102F7000054601F07BF82846FFF7EAFF040005D07C
:102F800000F040F92A46002103F044F902F08AFAE1
:102F9000204670BD024A9160106001201075704794
:102FA000C000002070B504001CD001F05FF80E4D89
:102FB000A86A10F8341089B100EBC4004168486871
:102FC00007F0E2FB6869401C6861D5E90A0100EB83
:102FD000C4025160002100F83410EC62BDE870407A
:102FE00002F060BA70BD000084000020002805D007
:102FF000034A116B016001B1486010637047000023
:103000008400002010B5044601F030F82068FFF776
:10301000C9FF00202060BDE8104002F043BA000064
:1030200070B506460D46002405E000BF06EB84009F
:10303000FFF7E8FF641CAC42F8DB70BD2DE9F041FE
:1030400004460BF073FF2048E41C24F003040068DE
:10305000241DA04200D904461C4E306B054612E0E8
:1030600055F8042CA2420DD17DB1296809B16A68D6
:103070004A60696809B12A680A60A84220D12868B4
:1030800030631DE02D68002DEAD10DF031FB2046A4
:103090000BF032FC070013D07868A04210DB3844F4
:1030A000051B38460DF006FBB0693946001BB061C0
:1030B000306A204430627868001B07F065FB10C559
:1030C0002846BDE8F081000018A6002084000020FA
:1030D00010B500240BF02AFF0C490F2001EBC002B1
:1030E00052681AB101EBC000406808E0401EF5D5F7
:1030F00008E04168A14200D90C46806810B18068A0
:103100000028F6D1A4F10C0010BD000018A6002084
:10311000002130B10449896A01EBC0004068416870
:103120000C3908467047000084000020024881687E
:10313000491C816070470000840000200249CA6871
:10314000521CCA6000F05EB8840000202DE9F041F6
:1031500006460C460846FFF7FBFE050019D0C6B12F
:103160003046FFF7D5FFA04200DA044600F07EFFAC
:10317000284600F047F80746304600F043F801467D
:1031800022463846FDF70EF93046FFF70BFF02F0F6
:1031900089F92846BDE8F08110B500F067FFFFF718
:1031A00097FF64220849B0F5800F04D990FBF2F430
:1031B0004868444303E049684843B0FBF2F402F036
:1031C00071F9204610BD0000840000200349086109
:1031D0000020C8600120087570470000C000002072
:1031E00002488168491E8160704700008400002009
:1031F0000348C16809B1491EC16000207047000042
:1032000084000020002805D00349896A01EBC00032
:1032100040680830704700008400002010B500248A
:1032200020B1FFF78BFF0488FFF7E2FF204610BDB7
:1032300070B50D46002438B1FFF780FF294600F035
:1032400015F80446FFF7D4FF204670BD70B50C4654
:1032500001880025A14207D9406828B1FFF76EFF19
:1032600050F82450FFF7C4FF284670BD10B5002465
:10327000FFF7ECFF10B1FFF761FF0446204610BDD9
:103280002DE9FC5F0446894600F0F0FE484600F058
:10329000FDFD2C4E09EB8907824656F82700019068
:1032A00029484FF00108016841B92749C0F800805A
:1032B000091D26480860084602F076FF214A09EBFE
:1032C00089015FEA0A0002EB81051BD001F014FCC2
:1032D00083464FF07F4001F02FFC00F0BBF8002246
:1032E0001146206800F0FCFA2068428801885046A8
:1032F00001F06EFC46F8274085F80580584601F03D
:10330000FBFB17E046F8274085F80580286946460C
:1033100018B101F037FB0020286174B10096E8680D
:10332000A1684B46421AA8686168411A206801F0FA
:1033300075FB286148460DF0E1FE02F0B3F80198F4
:10334000BDE8FC9F00A700200801002021F4000830
:1033500070B505460E46144600F088FE204600F083
:1033600095FD0300174804EB840109D050F82100B3
:1033700041688068691A321A184601F019FC1CE08D
:1033800000EB8104A268AA4201D0012200E00022E1
:10339000E368B34201D0012300E000231A430CD0BC
:1033A000236943B150F8210081684068721A291AD4
:1033B000184601F006FBC4E90256BDE8704002F071
:1033C00071B8000000A700200148407C00F002B85E
:1033D00098A6002010B5044600F048FE0A4804EB09
:1033E000840100EB810301225A7150F8210030B1B1
:1033F00020460DF083FEBDE8104002F053B8214690
:103400000248FFF73DFFF6E700A70020202401084F
:1034100010B5C2B2CBB2D21A02D5C2F1000212B2BA
:1034200093B2C0F30722C1F3072403FB03F3121B7B
:1034300001D5524212B2000C92B2A0EB114002FB35
:10344000023200B2002801DA404200B280B200FB32
:10345000002010BD10B50021084600F0A5FD40F683
:10346000FF725042BDE8104013460146AFF30080A2
:103470002DE9FC4104460D4616461F4600F0F6FDB8
:10348000042003F023FC12498046086C496C044474
:1034900006440D440F44ADF80040ADF80460ADF8AB
:1034A0000250ADF80670684606F066FD07E03B4640
:1034B00032462946204603F071F906F01FFD002828
:1034C000F5D1404603F002FC01F0ECFFBDE8FC81C1
:1034D00098A60020B0F90630B0F90420B0F9021027
:1034E000B0F90000FFF7C4BF2DE9F84304460D46CC
:1034F0001946DDE908030092024626682046B047D7
:10350000060026D005F0DFFD8146618A304605F0D1
:10351000E3F9304606F0EEFB484606F0EBFB4FF0D1
:1035200000080BE0CDF8008054F81C7F00231A46F9
:1035300049462046B84770B106F0DCFB6D1E002DF1
:10354000F0DC1D21484606F022FA304606F034FB36
:103550003046BDE8F883304605F0C2FC0020F8E7AD
:103560002DE9F04106460D4617461C46012B02DBAD
:103570000020BDE8F0811C20FFF760FD0028F8D096
:103580000DB105610BE00A4A02EB8401C96C09B96F
:1035900005E011460A68002AFBD1096901618461CE
:1035A0008782002101604160C0E90216E1E7000066
:1035B00098A6002070B51D46FFF7D2FF040001D089
:1035C00000F00EF8E068006818B9034800EB8500C9
:1035D0000465204670BD000098A60020FFF706BDD8
:1035E00030B590B38169012930DA1C4A02EB8103BE
:1035F000D96C11B9D8642EE011464A68002AFBD173
:1036000006E0CA68C46812682468A24203DD09683B
:103610000029F6D11AE0C1B1CA68C56812682D68E0
:10362000AA420CD1828A012A05D008E01146D2684C
:103630001268A24203DB0A68002AF7D129B14A685E
:1036400032B110604A68426003E0FFE7012030BDFC
:10365000D86448600160002030BD000098A60020BA
:103660000A4A816902EB8101CA6C824201D1026877
:10367000CA64416809B102680A60016809B1426818
:103680004A600021016041607047000098A6002058
:10369000012801DB00207047064901EB8000C06C67
:1036A00004E0C16809680029F5D000680028F8D155
:1036B0007047000098A600202DE9F04107460D460E
:1036C00016460C20FFF753FC04000DD000F0CEFC92
:1036D0002046FFF733FD0649C0E900170581468102
:1036E000FFF786FD01F0DEFE2046BDE8F081000018
:1036F000644E01082DE9F0410D4616469846040037
:103700000DD0FFF71BFD00680768FFF771FD43460A
:10371000324629462046BC46BDE8F0416047BDE838
:10372000F08170B504004FF000000BD02046FFF789
:1037300005FD00684568FFF75BFD2046AC46BDE827
:103740007040604770BD70B504004FF000000BD0B2
:103750002046FFF7F3FC00688568FFF749FD204627
:10376000AC46BDE87040604770BD00002DE9FC47E5
:10377000060075D000F07AFC00F0A0FB394C8146C1
:10378000B4F9228000F0DCFBA18C0746C81BA084A2
:103790003DE000BF47F6FF71304602F0EDFB824688
:1037A0000146304602F0C0FB0546A08D00F0030044
:1037B00001283ED0022838D00020618C6A46081AC1
:1037C0006084ADF80000691E0844ADF80400A08CC8
:1037D000ADF80200A9F101010844ADF80600514618
:1037E000304602F08FF8BDF80200A0845146304602
:1037F00001F044FD064430780A281CD00D281AD068
:10380000BDF8000028446084307818B1761C307808
:103810000028BFD1A08C3844A084A08D20F00300E4
:10382000A085BDE8FC4701F03DBE05EBD57040101A
:10383000C3E72846C1E7A08D00F0030001280CD0A3
:1038400002280AD0208C608430780A28DCD1A18C30
:1038500001EB0900A084D7E702E0A4F82280F3E797
:10386000BDE8FC8798A6002070B506460D461446B4
:1038700000F0FCFB0448458484843046FFF776FF63
:10388000BDE8704001F00EBE98A6002047F6FF7319
:10389000AFF300802DE9FC4106000D46174698461F
:1038A0001BD0002400F0E2FB65B1284606F012FAB6
:1038B000040007D002462946684602F0CAFB684663
:1038C00006F008FA43463A462946304602F06AF8BE
:1038D000204606F0FFF901F0E5FDBDE8FC8100009F
:1038E0007CB506460D46144600F0C0FB1148016C3D
:1038F000406C0D4404443188681E0844ADF804004F
:10390000ADF800507188601E0844ADF80600ADF8AF
:103910000240684606F030FB06E022462946304663
:10392000FEF790FC06F0EAFA0028F6D101F0BAFDA5
:103930007CBD000098A600201CB50A4601466846DA
:1039400002F025FC00F092FB2348BDF80020016C3A
:103950000A44ADF80020BDF80220406C0244ADF8E6
:103960000220BDF804201144ADF80410BDF8061083
:103970000844ADF80600684606F0FEFA27E000BFEE
:10398000BDF900400BE000BFBDF90210204602F077
:10399000A9FEBDF90610204602F0A4FEA41CBDF944
:1039A0000400A042F0DABDF902400AE0BDF90000CF
:1039B000214602F097FEBDF90400214602F092FE76
:1039C000A41CBDF90600A042F0DA06F097FA002820
:1039D000D6D101F067FD1CBD98A600202DE9F04F5F
:1039E00087B00446DDE910890D4616461F4600F0F3
:1039F0003DFB1549086C496C044406440D440F44D2
:103A0000ADF81040ADF81460ADF81250ADF8167076
:103A100004A806F0B1FA88B1DFF830B04FF0000A20
:103A2000CDF80CA08DE8000B33463A4621462846D7
:103A300009F0B6F806F062FA0028F1D101F032FD83
:103A400007B0BDE8F08F000098A600204D67000881
:103A50002DE9F04F87B00446DDE910890D46164682
:103A60001F4600F003FB1549086C496C04440644EA
:103A70000D440F44ADF81040ADF81460ADF812508D
:103A8000ADF8167004A806F077FA88B1DFF830B008
:103A90004FF0010ACDF80CA08DE8000B3B463246F2
:103AA0002946204609F07CF806F028FA0028F1D1D2
:103AB00001F0F8FC07B0BDE8F08F000098A60020E8
:103AC000956600082DE9FC4105460E46174600F0B4
:103AD000CDFA104C206C616C064407440D44ADF8DF
:103AE0000060ADF80470ADF80250ADF806506846BD
:103AF00006F042FA07E0206E3A462946036830464F
:103B0000984706F0FBF90028F5D101F0CBFCBDE8A1
:103B1000FC81000098A600202DE9F04104460D46E6
:103B200016461F4600F0A2FA0C49086C496C044482
:103B300006440D440F44002006F01EFA07E03B4601
:103B4000324629462046FEF7C3FB06F0D7F9002887
:103B5000F5D1BDE8F04101F0A5BC000098A6002019
:103B60007CB506460D4600F081FA0E4C206C0644EA
:103B7000606CADF804600544ADF80060ADF8065027
:103B8000ADF80250684606F0F7F906E0206E2946C7
:103B900042683046904706F0B1F90028F6D101F0AE
:103BA00081FC7CBD98A600202DE9FC4106460D460F
:103BB0001446984600F05AFA1A48037E016C406C8D
:103BC0008F190E195B1E054400EB0804F81AADF8B6
:103BD0000000F018ADF80400E81AADF80200E01893
:103BE000ADF80600684606F0C7F915E032462946EA
:103BF000384602F04FFD32462146384602F04AFD73
:103C0000621E691C384602F0A1FD621E691C304626
:103C100002F09CFD06F072F90028E7D101F042FCA9
:103C2000BDE8FC8198A600207CB506460C461546EA
:103C300000F01CFA0E48016C406C0E44044405442C
:103C4000ADF80060ADF80460ADF80240ADF8065084
:103C5000684606F091F906E02A462146304602F011
:103C600075FD06F04BF90028F6D101F01BFC7CBD78
:103C700098A6002070B50C46054600F011F910B169
:103C80000121C0E900142846BDE8704006F0CEB816
:103C900010B5002400E0012400F004F80028FAD157
:103CA000204610BD064810B50068002410B18047BA
:103CB00000B1012405F082F900B10124204610BDB5
:103CC000F40000201CB5002100910191694600F02C
:103CD00049FF04E0FFF7DCFF08B901F0EDFB0098B5
:103CE0000028F7D001981CBD2DE9FC4104460D4683
:103CF00016461F4600F0BAF91049086C496C044496
:103D000006440D440F44ADF80040ADF80460ADF832
:103D10000250ADF80670684606F02EF907E03B4603
:103D200032462946204602F039FD06F0E7F8002821
:103D3000F5D101F0B7FBBDE8FC81000098A600209A
:103D4000B0F90630B0F90420B0F90210B0F9000063
:103D5000FFF7CABF08B50B46002805D0009281883E
:103D60008268C08800F001F808BD10B50828029CE0
:103D700030D008DC04FB01F401280AD0022813D05B
:103D8000042804D11CE0102828D020282CD00020A2
:103D900010BD04EBD30003F00701105CC1F1070173
:103DA000C84000F0010010BD04EB93000621105C38
:103DB00001EA4301C1F10601C84000F0030010BD53
:103DC00004EB5300D907105C02D000F00F0010BDC7
:103DD000000910BD04FB0130105C10BD481004FB4D
:103DE000003032F8100010BD881004FB003052F88B
:103DF000200010BD034901EB8000C06CC1688A6AD5
:103E00000821104798A6002010B500F02FF902F005
:103E1000F3FC02F083FD044601F044FB204610BD94
:103E200010B5044600F022F905480021C069426837
:103E300020469047044601F035FB204610BD0000A7
:103E400098A6002070B504460D4600F00FF905480D
:103E50002946C069426820469047044601F022FB8B
:103E6000204670BD98A60020002801D005F006B9B4
:103E7000704710B500F0FAF802F0C4FC02F04EFDF5
:103E8000044601F00FFB204610BD000001004FF07A
:103E9000000001D10148006870470000B80400200C
:103EA0001FB500210191029103912A2100916946D9
:103EB00005F05EFD039804B010BD000010B500F0E1
:103EC000D5F80348C069447E01F0ECFA204610BDE5
:103ED00098A6002010B500F0C9F802F01DF80446BD
:103EE00001F0E0FA204610BD70B506460C461546B6
:103EF00000F0BCF82A462146304602F0AFFC10B173
:103F0000002020602860BDE8704001F0CBBA70B599
:103F100004460D4600F0AAF82946204602F056F85D
:103F2000BDE8704001F0BEBA10B5044602F040F89A
:103F300001462046BDE8104001F0F6BF01F006BB87
:103F400010B5002400F092F80A48818D01F00C01B0
:103F5000042904D0082906D00C2907D103E0C06940
:103F6000047E641E02E0C069007E440801F09AFAF3
:103F7000204610BD98A60020017EC07E48437047B1
:103F8000034901EB8000C06C0069006870470000C5
:103F900098A60020034901EB8000C06C00694068CE
:103FA0007047000098A6002070B505460C4600F04A
:103FB0005DF828460AF0D4FD054620460AF0D6FDF5
:103FC00040EA050401F06EFA204670BD10B501F01C
:103FD0007FFC0B492E20087001F0BAFA09480AF05C
:103FE0003FFEFEF793FF02F0BBFC044600210846AB
:103FF00000F01AFE05F09EFAFEF768FF204610BD9D
:10400000D800002098A600202DE9FC4104460D466A
:1040100016461F4600F02AF8012000F0AEFD1249B6
:104020008046086C496C044406440D440F44ADF8C6
:104030000040ADF80460ADF80250ADF80670684677
:1040400005F09AFF07E03B4632462946204602F03B
:10405000A5FB05F053FF0028F5D1404600F08DFD8B
:1040600001F020FABDE8FC8198A6002070B5264C2E
:10407000E06820B101F062FA6168884204D001F082
:104080007FFA01F05BFA6060E068401CE0600128A4
:1040900031D100250DE000BF01F050FA05EBC5015C
:1040A000226901EB410152F82110814205D019B378
:1040B0006D1CA0688542EFDB0025206885421AD080
:1040C000002817DB00EBC000216900EB400001EB8A
:1040D0008000001D68220D49FCF7EFF905EBC500D3
:1040E000216900EB400001EB8001091D68220748AF
:1040F000FCF7E3F9256070BD05EBC50101EB41015B
:1041000042F82100D9E70000BC04002098A6002056
:1041100010B5040003D10A48446D002C0FD0FFF7FE
:10412000A5FF2046FFF76EF8406920B1FFF76AF857
:10413000816889688847BDE8104001F0B3B910BDB7
:1041400098A6002001490A4600F002B801F0FFFFDE
:104150002DE9FC475FEA00080D4616463AD0FFF706
:1041600085FF002000F009FD81461B48476D404651
:10417000FFF748F8044600F0B1FC40F6FF70401924
:1041800003D1B4F90450B4F906602189681E0844CB
:10419000ADF80400ADF800506189701E0844ADF818
:1041A0000260ADF8060004F049FD684605F0E4FE43
:1041B00006E032462946404600F0D9FA05F09EFE58
:1041C0000028F6D1384600F03BF9484600F0D5FC0F
:1041D00001F068F9BDE8FC8798A600202DE9FE4FA4
:1041E0000746884691469A4600250C9EFFF73EFFFB
:1041F0001348417C00EB8100C46CE068006804282F
:1042000003D02468002CF8D100E01CB90846FFF761
:104210003FFA04460121E068C26A2046904750B147
:1042200021690096CDE9010153464A464146384688
:1042300000F090F9054601F035F92846BDE8FE8FFB
:1042400098A6002070B5050019D0FFF70FFF0C48A5
:10425000406DA84201D100F041FC2846FEF7D2FF94
:104260000446406908B101F00AF92068FFF7B6F981
:104270002846FEF797FEBDE8704001F013B970BD07
:1042800098A600202DE9FF4F83B03F4CDDF840B0E9
:1042900007008946984629D002A901A8FFF737FEF2
:1042A000B7F90060002E00DA0026B7F90250002DA1
:1042B00000DA0025A246607C02F0EEFA0199014482
:1042C000491EB7F904000AF0E9FF04469AF8110004
:1042D00002F0E8FA02990144491EB7F906000AF013
:1042E000DDFFA71B7F1C441B641C09E0002635462C
:1042F000607C02F0D1FA0746607C02F0D3FA0446F3
:10430000B8F1000F01D1C4F10008002F01DD002C2D
:1043100003DC002007B0BDE8F08F43463A4629464B
:104320003046CDF800B0FFF759FF5FEA000A07D02A
:1043300000F04EF88046504600F082F800271AE060
:104340004946059888470120E4E7E11B414502DA28
:10435000504600F05BF83FB1EA193146504600F094
:1043600099F85046FFF7D4FE4946059888475046CD
:10437000FFF7E8FE4744A742E7DB5046FFF762FF3E
:10438000002000F05DF8C4E798A6002070B5050095
:104390004FF000040DD0FFF769FE2846FEF732FF0C
:1043A000006800698068804702F0ACFE044601F0B6
:1043B00079F8204670BD10B50446FFF757FE204639
:1043C000FEF720FF044601F06DF804F1180010BD5F
:1043D00070B504460025FFF749FE14B90548446D41
:1043E00024B12046FEF70EFFB0F90A5001F05AF84A
:1043F000284670BD98A6002010B506F0A9FD00283B
:1044000003D0BDE8104000F06FB810BD70B50500D6
:104410000C4603D10948456D002D0DD0FFF726FE4F
:104420002846FEF7EFFEB0F90A10A14200DD4481F4
:10443000BDE8704001F036B870BD000098A60020BD
:104440002DE9F0410546FFF711FE114C666D5DB197
:104450000EB100F043FB2846FEF7D4FE074604F0F9
:10446000F1FC606D18B106E000F038FB0BE0D4E918
:104470000201C4E9160165653868FFF7B1F802F07A
:1044800097FC02F001FC01F00DF83046BDE8F08128
:1044900098A6002070B504000E46154603D11148B9
:1044A000446D002C1DD0FFF7E1FD2046FEF7AAFE6B
:1044B0002DB2C58036B20446868002F0E5FB606905
:1044C00058B1FEF79FFEB4F90810818029B1B4F904
:1044D0000A10C18009B106804580BDE8704000F037
:1044E000E1BF70BD98A6002001490A4600F002B85D
:1044F00001F0FFFF7CB506000C46154629D0FFF7FA
:10450000B5FD3046FEF77EFE40F6FF71091903D176
:10451000B0F90440B0F906500289611E1144ADF8AB
:104520000040ADF804104189681E0844ADF806004B
:10453000ADF80250684605F01FFD06E02A46214608
:10454000304600F0FFF805F0D9FC0028F6D100F065
:10455000A9FF7CBD2DE9FF4F81B0DFF8D4B0DDE9C4
:104560000E6092461C4600279BF811303A4610997F
:10457000FEF7F6FF05004ED028698068804702F0FC
:10458000C1FD81460AFB09F1C91D4FEAD108FEF7BA
:1045900003FEF10705D1C11700EB9170801000EB0D
:1045A0004000002C06DC1838B0FBF8F06442A04252
:1045B00000DC0446F00707D10090DDE90101234645
:1045C000524600F0D5FE0746002C03DC2846FFF7D4
:1045D00005F82AE004FB08F01830F10702D0FEF7D6
:1045E000B7FC01E0FEF7C3FC060017D0FEF70AFE99
:1045F0000560019981800299C180A0F808A04481DA
:10460000C0F80C80C0E904971098AE6028619BF850
:104610001100A861304605B0BDE8F08F2846FEF7CE
:10462000DDFF17B13846FEF7BDFC0020F3E70000C0
:1046300098A600202DE9F74F8CB090460C98FEF715
:104640007DFDB0F908100691B0F90A1008910068D4
:104650000069D0F804B0FEF7CBFD384C607C04EB69
:104660008000C06CC1688A6A08219047814618287A
:1046700001D34FF02009607C04EB8000C06C00691E
:10468000079003C80A902E48814201D0012000E023
:1046900000200990002000F083FF00284AD1002666
:1046A000DDE90C05B2460BAB4746761C069C009331
:1046B000FFF781FE009B014604FB0AF0CDE900B341
:1046C00001EB800223463946284601F019FA05001D
:1046D00030D00998D0B1DDE906134A46284601F0EA
:1046E00044F898B9DDE906702C46D0F810C0BCF14A
:1046F000000F05D0294604233A460846E04705E066
:104700000A992068884701C47F1EF9D10020CDE9AD
:104710000305059001200090CDE9010941460346BB
:1047200008F10108069A0D9801F0AEFE0898401EA7
:104730000890B5D10FB0BDE8F08F000098A600201A
:104740005F69000870B50D4616460446FEF75AFD2F
:1047500000681621C068426A00209047030005D017
:10476000324629462046BDE87040184770BD2DE905
:10477000F0410E4617460546FEF7E0FC4469FEF799
:1047800037FD2846FFF702FE0346082800DD34B156
:104790003A4631462846BDE8F0410CF08DBE3A4617
:1047A00031462846BDE8F0410DF01CB810B5002890
:1047B00021D009B30AB3B1F90030B2F90040A342E5
:1047C00000DB23460380B1F90230B2F90240A34274
:1047D00000DB23464380B1F90430B2F90440A34220
:1047E00000DC23468380B1F90610B2F9062091421D
:1047F00000DC1146C18010BD11460A68026049689C
:10480000416010BD00280BD003880B4403808388CF
:1048100019448180418811444180C1881144C1807C
:104820007047000070B5114D0446D5E9000188427B
:104830000FD10F49884203D1D0E90F12406C04E038
:10484000A0F10C00D0E9001280682160C4E90120C9
:1048500006E090E80E0084E80E000AF09BF928605C
:10486000207A002800D0012070BD00002001002027
:104870006CA700200448D0E90010814201D101203A
:10488000704700207047000020010020054A10B545
:10489000034911600CF0BAFCBDE8104000F00CBAFE
:1048A00059920008F800002070B50025FFF7DEFBE4
:1048B000094CD4E9000188420AD0D0E90056002111
:1048C0000AF05AF920603146284604F065FF0125B8
:1048D00000F0E8FD284670BD140100202DE9FC41E0
:1048E000154CDDE90875B4F90860864200DD3046F4
:1048F000B4F90C60964200DA3246824219DBB4F910
:104900000A608E4200DD3146B4F90E409C4200DA66
:1049100023468B420DDB00E02546EC68246824B179
:10492000042C02D02C68002CF6D1CDE9007502F0E1
:1049300097F8BDE8FC81000098A60020B0F902209D
:10494000B1F906309A4213DCB1F90220B0F9063011
:104950009A420DDCB0F90020B1F904309A4207DC2C
:10496000B1F90010B0F90400814201DC0120704768
:1049700000207047014668220148FBF79EBD0000F9
:1049800098A6002070B504001AD0FFF76FFB2046F0
:104990000CF0F6FC20460CF04BFD2046FEF7CEFB5B
:1049A00005460068FEF722FBE868FEF7FBFA2046A2
:1049B000FEF7F8FAFEF71CFCBDE8704000F072BD8F
:1049C00070BD70B504460D461646FFF74FFB3246E4
:1049D000294620460CF05AF9BDE8704000F062BD4F
:1049E00070B5050018D0FFF741FB2846FEF7A6FB7F
:1049F0000446008B800709D428460AF094FB284619
:104A00000CF098FB208B40F002002083FEF7F0FBB7
:104A1000BDE8704000F046BD70BD00002DE9F047D4
:104A200004460088089F8846914620B1608810B1EE
:104A3000E088082802D90020BDE8F087E068806897
:104A40000028F9D007F0010200212048FEF788FD78
:104A50000500F1D02088860060884643FFF706FBFA
:104A600006F12000FEF783FA06001ED03046AE6045
:104A7000FEF764FB0783C461A0F80480A0F80690E9
:104A8000238808EB0302521E0281628809EB0201AF
:104A9000491E41810560FEF7ABFB2146304606F01A
:104AA00053FB30B100F0FEFCC5E72846FEF796FD4B
:104AB000F8E7B80705D530460AF035FB30460CF06C
:104AC00039FB00F0EFFC3046B6E700002C2401086B
:104AD00068220149FBF7F1BC98A6002010B5FFF74A
:104AE000C5FA02F089F802F063F904F0A7F8BDE80E
:104AF000104000F0D7BC000070B5074C0546667C3E
:104B0000FFF7B4FA1DB900206074FFF7E7FF00F06B
:104B1000C9FC304670BD000098A6002070B5044660
:104B20000D4604F039FE002805D129462046BDE88F
:104B3000704000F0D1B870BD10B50446FFF796FA8A
:104B4000204602F077F8BDE8104000F0ABBC10B58D
:104B50000446FFF78BFA204602F0A2F8BDE81040A9
:104B600000F0A0BC1FB50022019202922A220391FC
:104B70000092694604F0FCFE1FBD10B50446FFF725
:104B800075FA204602F0A2F8044600F08BFC20469D
:104B900010BD000070B50446FFF768FA0348C56908
:104BA00004B1C46100F07EFC284670BD98A60020C8
:104BB00070B504460D461646FFF758FA32462946A8
:104BC000204602F09FF8044600F06CFC204670BDC1
:104BD00070B504460D461646FFF748FA3246294698
:104BE000204602F0A5F8044600F05CFC204670BDAB
:104BF00070B504460D46FFF739FA2946204602F003
:104C0000C3F8044600F04EFC204670BD70B5054662
:104C1000FFF72CFA0348847E857600F043FC20469B
:104C200070BD000098A6002070B505460C46FFF741
:104C30001DFA094822460580084804800848417C3E
:104C400000EB8100C06CC1680B6A29469847BDE83B
:104C5000704000F027BC0000040100200601002085
:104C600098A6002070B50546FFF700FA0348047EB9
:104C7000057600F017FC204670BD000098A60020C5
:104C800070B50446FFF7F2F90348B0F92C5084855B
:104C900000F008FC284670BD98A6002070B50446B8
:104CA000FFF7E4F90348B0F92A50448500F0FAFB15
:104CB000284670BD98A6002002480068002800D051
:104CC00000477047F404002002498A6802B98860EE
:104CD000FFF7F2BF1401002070B5074D0446686865
:104CE000C0E90041296809F047FFC5E90104BDE8B2
:104CF0007040FFF7E1BF00001401002070B50446CA
:104D0000FFF7B4F994B10E4D2868A04204D1FEF724
:104D100079FA8068286009E0FEF774FA0546806831
:104D2000A042F9D1FEF76EFA8068A86020460CF028
:104D300089FB2046FEF736F9BDE8704000F0B2BBB3
:104D4000D804002070B50546FFF790F92846FEF715
:104D500059FA0446FFF7F2F8A16908446061284651
:104D60000CF070FB28460AF0E9F9BDE8704000F04D
:104D700099BB70B505460C46FFF778F92846FEF753
:104D800041FA8461BDE8704000F08CBB70B5044608
:104D9000002020600448056825B12846FEF732FA55
:104DA00000692060284670BDD804002070B504005A
:104DB0004FF000000D46086009D02046FEF722FAA9
:104DC000846824B12046FEF71DFA00692860204659
:104DD00070BD000010B50024FFF748F9074840688F
:104DE00040B1FEF70FFA0446FFF7A8F861690C1A04
:104DF00000D5002400F056FB204610BDD80400204A
:104E000010B50024FFF732F90348406800B10124CF
:104E100000F048FB204610BDD80400202DE9F84FD3
:104E2000DFF890800446244FD8F8180089464107DF
:104E30000A9D787C92469B4606D401F03FFD0646CB
:104E4000787C01F047FD05E001F044FD0646787CE2
:104E500001F034FD002794B1A0F101000646BBEB40
:104E6000050000D54042142806DB5146B9EB0A0084
:104E700000D54042142804DA0120BDE8F88F701EE6
:104E8000ECE70A465B464946384600950AF084F945
:104E90000A4F5B46524647F8340049463046009573
:104EA0000AF07AF907EBC401486001210020C8F834
:104EB0001C10E2E74401002098A60020B4A70020BF
:104EC0002DE9F0475B4D5C4C0026E86930B1D4E930
:104ED0000001884210DAC5E9080111E0686826601F
:104EE00000F00501666010F0060F01D000F005002B
:104EF000A6600120E660E861206868626068286258
:104F0000D4E90201884202DAC5E90A0101E0C5E9F3
:104F10000A102878C8B100F0D9F8A846286100F036
:104F2000D3F82969286A81420BDBD8F8242040464F
:104F3000914206DC836A42699A4202DBC36A9A4262
:104F40000EDD4FF0FF3001466FE000F0F9F86861C8
:104F500000F0BBF8287800F101002870BDE8F08768
:104F6000D8F81800354D22684007687CA1EB02078D
:104F700002D401F0A3FC01E001F0ACFCD4E9002173
:104F8000A0F1010007FB00F7A1EB0201D8F8142003
:104F9000A068A14697FBF1F7A2EB0004D8F818002F
:104FA0004007687C02D401F095FC01E001F086FC2A
:104FB000A0F1010004FB00F4D9E90201A1EB00001B
:104FC00094FBF0F4D8F818004007687C17D401F07F
:104FD00075FC8146687C01F07DFCD8F818200146FC
:104FE000D00704D0A9EB0700A0F1010000E038468B
:104FF000920702D5091B491E17E0214615E001F072
:1050000069FC8146687C01F059FCD8F81820D1076A
:1050100004D0A9EB0701A1F1010100E03946920794
:1050200002D5001B401E00E020460CF01BF988F85A
:10503000006093E744010020B4A7002098A6002058
:10504000014988617047000044010020074A002898
:1050500006DB002904DB01231372C2E9000101E031
:1050600000201072014800F003B8000000AC0020DE
:1050700010B504460C220749FBF729F9002808D08F
:10508000044894E80E000EC02046BDE81040FFF72B
:10509000FDBB10BD18AC002030B40A4C2268831A46
:1050A00001D5C3F1000362688A1A00D552421A443E
:1050B000022A04DDC4E9000130BCFFF7C7BF30BCE1
:1050C00070470000EC0400207047704770B586B050
:1050D00000241422194901A8FBF7EFF9002501AEBD
:1050E00005E003F003FB26F81400641CE4B20A2C6C
:1050F000F7D320D1641E002500200CE0411C36F8B7
:10510000102036F811309A4204D926F8112026F8DA
:1051100010300125C8B2A042F0DB002DEBD1BDF864
:105120000A00BDF80C100844BDF80E100844032115
:10513000B0FBF1F085B2284606B070BDC42301086B
:1051400070B586B000241422194901A8FBF7B5F9FF
:10515000002501AE05E003F0EDFA26F81400641C0A
:10516000E4B20A2CF7D320D1641E002500200CE005
:10517000411C36F8102036F811309A4204D926F82E
:10518000112026F810300125C8B2A042F0DB002D16
:10519000EBD1BDF80A00BDF80C100844BDF80E10A4
:1051A00008440321B0FBF1F085B2284606B070BD7B
:1051B000D823010870B504460D46FEF757FF054891
:1051C00029460068C26820469047044600F06AF904
:1051D000204670BDE000002010B50446FEF746FFF3
:1051E00004480068016820468847044600F05AF9E0
:1051F000204610BDE000002010B50446FEF736FF43
:1052000004480068416820468847044600F04AF98F
:10521000204610BDE0000020014909688968084760
:10522000E00000202DE9F041084E04460568306892
:1052300001682846884707463068416828468847FD
:10524000284420603846BDE8F0810000E0000020DE
:105250002DE9F041002580460E462C46064F06E01B
:10526000396808EB04004968884704446D1CA6426D
:10527000F6DC2846BDE8F081E00000202DE9F04191
:1052800006460C460025064F05E038684168304662
:10529000884706440544641EF7D22846BDE8F081DD
:1052A000E00000202DE9F0470646089D8846144698
:1052B0009946B0682246641C47684B4641463046D2
:1052C000B8476D1EF5D1BDE8F08770B5B0F9004064
:1052D000B0F90250091B00F114040069521B02FBD3
:1052E0000040CA1800EBE104521ED010B0EBE105FB
:1052F00001F007034FF0FF0102F0070221FA03F06B
:10530000C2F1070201FA02F1CEB221780FD00143B7
:105310006D1E04F8011B002D05DDFF2229462046E5
:10532000FBF7C3F82C4420783043207070BD304028
:105330000143217070BD10B5B0F90030B0F90240E2
:10534000C91A00F114030069121B02FB003000EBC4
:10535000E10001F0070302788021D9400A4302707E
:1053600010BDB0F90610026951431430FBF7D7B8ED
:105370002DE9F047804602F10F000011460003FBC3
:1053800006F0894615461C461430FDF7F0FD07006F
:1053900012D0FEF76BFE3846FDF734FFA0F8008010
:1053A000A0F802908580C480044981600121818138
:1053B000066100F077F83846BDE8F087C04501087F
:1053C00070B5B0F90660B0F904400B6800F114053F
:1053D000964220DD0069A34202FB005000EBE3028D
:1053E00019DAA4F101044FEAE400A0EBE30512F896
:1053F000010B03F0070400FA04F0C4B208E055B151
:1054000012F8014B03F10803A5F1010523F007038E
:10541000002CF4D008E0002070BD00BF4FEA4460CB
:105420004FEA106403F101032006F7D5FF2C0AD0E0
:10543000184605E04FEA44644FEA146400F10100A5
:105440006606F7D400E0D81DC443640706D007E021
:1054500012F8014BFF2C0FD100F108006D1EF7D59B
:10546000A0EB030000F101000B6070BD4FEA446245
:105470004FEA126400F101002206F7D4F0E710B5FC
:105480000446FEF7F3FD2046FDF7BCFE8189491E68
:1054900009B2818111B92046FDF784FDBDE81040B5
:1054A000AFF300800348C168491EC16001D100F01C
:1054B00071B87047BC04002070B5FEF7D7FD1448E2
:1054C0000568FDF733FE2C0004D000BFFFF7EAFFAC
:1054D000641EFBD10F4CA06848B1FFF791FC48B1A6
:1054E000FFF778FC30B1A16831B1884704E0FFF7DD
:1054F00087FC08B90BF0BCFF1DB1FEF7B7FD6D1EB0
:10550000FAE7FDF76DFEBDE87040FFF7CBBF000086
:10551000C8040020F404002010B54FF4E041044812
:10552000FDF738FDBDE810408020FDF74FBE0000BC
:1055300018360020322002F095B8000002480068BA
:1055400090F82E00704700005800002002F0E4B8E8
:1055500010B5002001F054FE0149C86010BD0000E4
:105560007000002010B5012001F04AFE034C60607D
:10557000002001F023FEA06010BD0000700000209C
:1055800008B503486A460021406801F05BFE08BD8B
:10559000700000200148406801F0B0BE700000209B
:1055A0000EB508B102AA00E00022002301A9684656
:1055B00000F04EFC0EBD000003490A6900B1012055
:1055C0000861104670470000280100202DE9F041D5
:1055D0000C461646984688B3FEF7A6FC074608F028
:1055E0000300012825D0022817D0B4F9005000BFCD
:1055F000FEF764FC014608F00C0004282BD00C28B0
:105600001DD0B4F9020035807080EA19521E08449A
:10561000B280401EF080BDE8F081B4F90400B4F916
:105620000010401AC01B401C00EBD07001EB60055D
:10563000DEE7B4F90400C51B6D1CD9E710E0B4F92E
:105640000600B4F90220801A401A401C00EBD0700A
:1056500002EB6000D7E7B4F90600401A401CD2E71D
:105660002068306060687060D5E710B5082A0DDCEE
:105670000346012A15D0022A4BD0042A66D004C85A
:1056800003F8012B491EFAD1012010BD102A06DCB7
:10569000024608C822F8023B491EFAD1F4E700206E
:1056A00010BD04C8D207120E491E2DD010C8491EC5
:1056B00004F0010442EA841226D010C8491E04F006
:1056C000010442EA44121FD010C8491E04F001042C
:1056D00042EA041218D010C8491E04F0010442EA3C
:1056E000C40211D010C8491E04F0010442EA840229
:1056F0000AD010C8491E04F0010442EA440203D053
:1057000010C804F00104224303F8012B0029C8D17A
:10571000BAE704C89207120E491E12D010C8491EDB
:1057200004F0030442EA04120BD010C8491E04F02E
:10573000030442EA840204D010C804F003042243A4
:10574000491E03F8012B0029E3D19DE704C8120785
:10575000120E491E04D010C804F00F042243491E43
:1057600003F8012B0029F1D18EE72DE9F0411E68E5
:1057700004460D46082A09DC0746012A1AD0022AE7
:105780005BD0042A7DD0082A13D18DE0102A07DCD3
:10579000D3F810C00746BCF1000F04D0022389E003
:1057A0000020BDE8F08101CCB04727F8020B6D1E48
:1057B000F9D18AE001CCB047C0074FEA10686D1EEE
:1057C00036D001CCB04748EA801000F0FF086D1ECB
:1057D0002ED001CCB04748EA401000F0FF086D1E03
:1057E00026D001CCB04748EA001000F0FF086D1E3B
:1057F0001ED001CCB04748EAC00000F0FF086D1E83
:1058000016D001CCB04748EA800000F0FF086D1EBA
:105810000ED001CCB04748EA400000F0FF086D1EF2
:1058200006D001CCB04740EA080000F0FF086D1E2A
:1058300007F8018B002DBDD147E001CCB0478007B0
:105840004FEA10686D1E16D001CCB04748EA001030
:1058500000F0FF086D1E0ED001CCB04748EA800072
:1058600000F0FF086D1E06D001CCB04740EA0800EA
:1058700000F0FF086D1E07F8018B002DDDD124E03C
:10588000FFE701CCB04700074FEA10686D1E06D055
:1058900001CCB04740EA080000F0FF086D1E07F891
:1058A000018B002DEDD110E0D3F810C0BCF1000F3A
:1058B00005D001230A4601463846E04705E001CC01
:1058C000B04707F8010B6D1EF9D1012069E7000010
:1058D0000A4810B5016900290ED101210161FFF7C5
:1058E0001BFE01F093FA0549054814310860BDE834
:1058F0001040084600F058BC10BD0000D800002041
:1059000009F400087CB5054624480E46006868B1D5
:10591000002004F031FB06E06A463146284605F0D7
:10592000DBFB04F0EBFA0028F6D17CBD1068009098
:105930001B4C50680190BDF80010206C0144ADF87C
:105940000010BDF80220616C0A44ADF80220BDF8D9
:1059500004201044ADF80400BDF806000844ADF87A
:105960000600684604F008FB0DE000BFBDF800002B
:105970006084BDF80200A0846A463146284605F0DE
:10598000ABFB04F0BBFA0028F0D1608C216C401A0C
:105990006084A08C616C401AA0847CBD0001002052
:1059A00098A600202DE9FF4F85B000240D469046B3
:1059B0009A46A146DDF814B0FEF780FA064625B1F6
:1059C000286800906868019002E06846FEF74CFA8B
:1059D00018F00C0F02D05546012713E0BDF9024024
:1059E0002DE02946059800F0C7FA01466D1A059882
:1059F000FFF744FC05990844059005A800F000FB5A
:105A000010B97F1C002DECD108F00C00042804D044
:105A1000082802D00C2812D105E0BDF9060007FBCA
:105A20001604641C0BE0BDF90600BDF90210401A13
:105A300007FB1600401C00EBD07001EB60045546DC
:105A4000CDF814B042E02946059800F095FA0746D3
:105A50000146ED1B059800F067FA18F003010ED01F
:105A6000012938D002290DD1BDF90410BDF900205B
:105A7000891A091A01EBD17102EB610101E0BDF94C
:105A800000108946164A401E4844A2F82290ADF8FC
:105A90000C00ADF808909484A019401EADF80E00DB
:105AA000ADF80A4002AA39460598FFF72BFF3946A0
:105AB0000598FFF7E3FB059908440590FEF7FEF90A
:105AC000044405A800F09CFA002801D1002DBAD1A9
:105AD00009B0BDE8F08FBDF90410091A491CD0E7E0
