:020000040800F2
:1000000028C30020010100080501000807010008BD
:10001000090100080B0100080D01000800000000A4
:1000200000000000000000000000000011010008B6
:100030000F010008000000005F0200085DED0008ED
:10004000731B0108C1E00008D1ED000869E5000854
:10005000471F000865E50008391F00083D1F00081C
:100060003F1F0008411F0008431F00083912000805
:100070003B1200083D1200083F1200084112000820
:100080004312000845120008E90900084DF600086F
:100090004FF60008E90F0008EB0F0008451F0008A5
:1000A00067EF00086DEF00086BEF000869EF0008CC
:1000B0006FEF000871EF000873EF000895A60008C5
:1000C00093A6000899A6000897A6000815EC00085A
:1000D00017EC000845F6000847F6000849F6000846
:1000E0003B1F000867E500084BF600080000000011
:1000F0000000000000000000000000000000000000
:1001000004480047FEE7FEE7FEE7FEE7FEE7FEE7FE
:10011000FEE700001901000800F002F800F063F8A3
:100120000AA090E8000C82448344AAF10107DA4552
:1001300001D100F058F8AFF2090EBAE80F0013F041
:10014000010F18BFFB1A43F001031847B8630700FB
:10015000D86307000A444FF0000C10F8013B13F07D
:10016000070408BF10F8014B1D1108BF10F8015B10
:10017000641E05D010F8016B641E01F8016BF9D103
:1001800013F0080F1EBF10F8014BAD1C0C1B09D15A
:100190006D1E58BF01F801CBFAD505E014F8016BCC
:1001A00001F8016B6D1EF9D59142D6D3704700005E
:1001B0000023002400250026103A28BF78C1FBD870
:1001C000520728BF30C148BF0B607047692900F053
:1001D000D180002070471FB5AFF3008000F016F902
:1001E0001FBD10B510BD00F0C9FB1146FFF7F3FFAE
:1001F00023F02EFA00F0E7FBFFF7F3FF00F0EAFB35
:1002000002480349034A044B7047000028BB002002
:1002100028C3002028BF002028BF0020EFF3108053
:1002200072B6704780F31088704724484FF0FF0182
:100230000170002080F309881D48012101702048C9
:100240004FF08051016062B6FEE71D484FF08051CB
:10025000016070471A484FF0805101607047EFF31A
:10026000098028B1203880E8F00F12490968086039
:1002700000B50A4880475DF804EB0B480B490A7843
:1002800002700C480C490A680260106890E8F00F90
:10029000203080F309884EF0040E704717D500080F
:1002A0001DD000081A0000201C0000201D000020A6
:1002B0001F0000203C0000204400002022ED00E050
:1002C00004ED00E072B6704762B67047EFF310803D
:1002D00072B6704780F31088704700000FB4084969
:1002E0001CB506AB6A4679440090059800F0BDFA4B
:1002F0000020694600F0CCFA1CBC5DF814FB00003D
:10030000A70500002DE9F04104460E4600202BE031
:10031000E1682046884748B3252802D0D4E9012166
:100320001FE0E16820460027884705001ED0A5F1A0
:100330004100192802D820354FF40067324629467B
:1003400020462760FFF742FF40B1012801D1361D4A
:10035000DEE7F61D26F007060836D9E7D4E90121C5
:1003600028469047206A401C2062D1E7206ABDE8F9
:10037000F08100002DE9F0418046002610687529C3
:10038000414614A511D0AFF30080002802DA4042A4
:1003900011A508E0D8F800108A0701D50FA502E0E2
:1003A000490704D50EA5012601E0AFF30080002423
:1003B00008F1240704E000F0CFFA30313955641C0D
:1003C0000028F8D133462A4621464046BDE8F04190
:1003D00000F0EEB9000000002D0000002B0000002E
:1003E00020000000194910B517220A6036224A6021
:1003F000174A184B002100EB104442F82140164CDC
:10040000491C372900FB0430F5DB10BD0120E9E76A
:100410000E4B30B50E4C1968586854F8215054F8FA
:100420002020491E2A4444F820204FF03604A0F131
:100430000100196002D5C3E9004003E000285860BC
:1004400000DA5C6022F0004030BD00003412002071
:10045000ECB90020E119D666CD0D0100421E12F85C
:10046000013F002BFBD111F8013B002B02F8013BAF
:10047000F9D1704740EA010310B59B070AD1042A5D
:1004800008D310C808C9121F9C42F8D020BA19BA64
:10049000401A10BD0AB9002010BDD30701D0521C6C
:1004A00005E010F8013B11F8014B1B1B07D110F8B8
:1004B000013B11F8014B1B1B01D1921EF1D11846D3
:1004C00010BD40EA0103024630B59B0710D14FF042
:1004D000013400E008C208C91D1B9D4315EAC41F72
:1004E000F8D013F0FF0102F8011B0ED01B0AF8E749
:1004F00011F8014B02F8014B002C134605D011F8FE
:10050000014B5A1C002C1C70F2D130BD10B5431C9D
:1005100004E010F8011B09B9C01A10BD8107F8D119
:100520004FF0013202C88C1A8C4314EAC211F9D080
:10053000C01A0A0601D0C01E10BD0A0401D0801ED8
:1005400010BD0902FCD0401E10BD032A40F23180CC
:1005500010F0030C00F0158011F8013BBCF1020F04
:10056000624498BF11F801CB00F8013B38BF11F885
:10057000013BA2F1040298BF00F801CB38BF00F89C
:10058000013B11F0030300F06B80083AC0F00980D2
:1005900051F8043B51F804CB40F8043B40F804CB3D
:1005A000F3E7121D5CBF51F8043B40F8043BAFF386
:1005B0000080D20724BF11F8013B11F801CB48BFDE
:1005C00011F8012B24BF00F8013B00F801CB48BF14
:1005D00000F8012B7047431A28BF9A427FF6B5AF47
:1005E000032A1044114440F2218010F0030F1EBF73
:1005F00011F8013D521E00F8013D10F0030F7FF489
:10060000F6AF083AC0F00A8051F8043D51F804CD25
:1006100040F8043D40F804CDFFF7F3BF121D5CBF66
:1006200051F8043D40F8043DAFF30080D20724BFE9
:1006300011F8013D11F801CD48BF11F8012C24BF7C
:1006400000F8013D00F801CD48BF00F8012C7047CB
:1006500002F0FF0343EA032242EA024200F01FB91C
:1006600010B5203AC0F00B80B1E81850203AA0E84D
:100670001850B1E81850A0E81850BFF4F5AF5FEA81
:10068000027C24BFB1E81850A0E8185044BF18C934
:1006900018C0BDE810405FEA827C24BF51F8043BDB
:1006A00040F8043B08BF7047D20728BF31F8023B2F
:1006B00048BF11F8012B28BF20F8023B48BF00F8C3
:1006C000012B70474FF0000200B513469446964642
:1006D000203922BFA0E80C50A0E80C50B1F1200155
:1006E000BFF4F7AF090728BFA0E80C5048BF0CC003
:1006F0005DF804EB890028BF40F8042B08BF704761
:1007000048BF20F8022B11F0804F18BF00F8012BD2
:10071000704700004FF0013C50F8042B51F8043BA7
:100720009A4221D1A2EB0C03934313EACC1317D1C5
:1007300050F8042B51F8043B9A4215D1A2EB0C035C
:10074000934313EACC130BD150F8042B51F8043B1C
:100750009A4209D1A2EB0C03934313EACC13DBD0EA
:100760004FF0000070470000D01A01BAB1FA81F1D1
:1007700001F0180122FA01F0CB40C1F12001DBB2F7
:10078000C0B2C01A2CFA01F3D11A914311EAC31175
:10079000E6D1704770477047704710B500F0E4F835
:1007A000006810BD10B5044600F0DEF8046010BD0E
:1007B0002DE9F0470D4604469246994600F124087B
:1007C0000168880604D5E06921F01001216000E08D
:1007D00001200027A84200DD471BA1697A1902EB1E
:1007E0000900081AA0612068C00602D42046AFF3B1
:1007F0000080002608E0D4E901211AF8060090479D
:10080000206A401C761C20624E45F4DB2068C0063E
:100810000AD52046AFF3008006E0D4E9012130205C
:100820009047206A401C2062381EA7F10107F4DCC3
:1008300007E0D4E9012118F805009047206A401C20
:100840002062281EA5F10105F3DC2046AFF30080ED
:1008500021680220090600D40120BDE8F0870000CD
:1008600001694A1C02610878704710B50C461946A8
:1008700090B0CDE9024200220692044A7A44CDE9C2
:10088000042001A8FFF73EFD10B010BDE1FFFFFFFF
:100890000A6802F8010B0A6070474FF00002042951
:1008A000C0F0128010F0030C3FF40EAFCCF1040C3A
:1008B000BCF1020F18BF00F8012BA8BF20F8022BD3
:1008C000A1EB0C01FFF700BF5FEAC17C24BF00F879
:1008D000012B00F8012B48BF00F8012B7047431A89
:1008E00028BF9A427FF6BCAE104410F0030F1144AB
:1008F0001EBF11F8013D521E00F8013D10F0030F1C
:100900007FF4F6AF103AC0F00A8010B531E9185004
:10091000103A20E91850BFF4F9AFBDE81040530772
:1009200024BF31E9081020E9081044BF51F8043D04
:1009300040F8043D12F0030F08BF7047D20728BFEC
:1009400031F8023D48BF11F8012C28BF20F8023DC4
:1009500048BF00F8012C70474FF00A01B0FBF1F2DC
:1009600002FB1101104670470148704770470000B4
:10097000C8BA002000487047C8BA00207546FFF783
:10098000F9FFAE4605006946534620F0070085464C
:1009900018B020B5FFF734FCBDE820404FF000064A
:1009A0004FF000074FF000084FF0000B21F0070157
:1009B000AC46ACE8C009ACE8C009ACE8C009ACE89A
:1009C000C0098D4670470446AFF300802046FFF70C
:1009D00013FC704703494FF01800ABBE704700008E
:1009E000F3FFFFFF260002007047002800DC4042B2
:1009F000704710B500220A23114610460CF0BAFDCC
:100A000008F018F8F6E710B506F09EFC042010F088
:100A10008BF903F083FEF9E77047000000B585B05D
:100A200001200CF049FB1349086003230022CDE9A3
:100A300003234FF400611048CDE9010105230F4A5B
:100A400000210F4800930CF057FC032300220B48B1
:100A5000CDE90323001D4FF48071CDE9010104238A
:100A600000F57F720021074800930CF045FC05B0AB
:100A700000BD0000000000203C140020383400209D
:100A8000070A0008F30900087047704710B50CF01A
:100A900013FE0CF0D1FBFFF7C1FF0B4C20212046C9
:100AA00002F046FF00226423114610460CF062FD5E
:100AB0002021204602F03AFF00226423114610460E
:100AC0000CF058FDEAE70000000C01407047704749
:100AD00010B50DF0F1FC02F0C1FE22F0FBFDBDE807
:100AE000104002F067B9000070B545680446014641
:100AF00028460EF0D5FD00285FD020682F4A0F2829
:100B000018D006DC0B2823D00C280FD00E284FD18C
:100B10002DE0112802D028284AD143E09268002A0B
:100B20004BD021462846BDE8704010472146284654
:100B30005268F8E7284604F06DFF406E046804F040
:100B4000C3FF002C39D02846A446BDE8704060475A
:100B5000284604F05FFF0546683004F0B9FE032123
:100B600005F16C0004F0C2FE04F0AEFF20E0E16885
:100B7000486809680D2902D0202913D105E0002812
:100B800010DD28461CF0C0FB06E0002804DD2846E6
:100B9000BDE870401CF0B8BB2846BDE8704002219B
:100BA0001CF0C7BBE06818B90021284600F0B2F974
:100BB0002046BDE870400FF069B970BDF80A00200A
:100BC0002DE9FF410AAF70CF002703958DE8D000D3
:100BD00000F003F804B0BDE8F081F0B585B00DF188
:100BE000280CBCE8F0004FF0000C8DE8F01000F08D
:100BF00025F805B0F0BDF0B5044685B010461D4699
:100C0000B4F90830668AA2690296CDE9033200275A
:100C1000CDE90017B4F90C10B4F910302944B4F937
:100C20000A50B4F90E20284400F008F8054661681F
:100C300000F09BF905B02846F0BD00002DE9FF5FEC
:100C40000546DDE911B4DDE90E780E4691469A4677
:100C500006F0CAFB4C341549CDE90214CDE9007801
:100C600053464A46314628460FF06AF8050016D02A
:100C700004F0D0FE0446102259460EF05DFF3022EB
:100C80000B4904F13400FFF7EBFC094E0C3E3068D1
:100C9000606604F019FF306841682846884708F00C
:100CA000BBF904B02846BDE8F09F0000E90A00083F
:100CB000040B0020F0B504468068804987B051F8E5
:100CC0002050606800287DD0032804D004287AD002
:100CD000102879D1AAE0E86900284FD095E80E00E5
:100CE0008DE80F0004F10C010FC908F0BFFD0026CC
:100CF00055F8260007F067FC6169E8690A1AE1689F
:100D000001442069304405F073FF6169E8690A1AFB
:100D1000E1680144A069801B05F06AFFA169E869E8
:100D20000A1A21690144E068304406F043F8A169D9
:100D3000E8690A1A216901446069801B06F03AF8E3
:100D4000761C022ED4DBA86807F03DFCA069E96997
:100D50002669431AE0684218521E3144801C06F08E
:100D600089F8A169E86962690B1A21690144101ABE
:100D7000401C921E06F07EF8EE6913E05FF000065C
:100D800055F8260007F01FFCA069831B6069821BD1
:100D900020698119E068304405F09CFF761C022E22
:100DA000EEDB0226D5E90301CDE900012169A06946
:100DB000084443106069891C821BE068304405F0D8
:100DC000B5FE02E073E012E074E0D5E90501CDE97B
:100DD0000001A36920690121184401EB60016069E9
:100DE0009B1E821BE068304405F0A0FE62E0206894
:100DF00004F010FE0546206810F0E0FB38B1A06852
:100E000008B1002006E0286F20B1012002E0686FE1
:100E100000B1022005EB8000C56E04F055FE0023F2
:100E20001A462846216805F007FB43E0206804F0D5
:100E3000F1FD866E9EB3B0F95C70A16891B3022992
:100E400033D0022100EB8101406D0C6C07F0F0FB08
:100E500004F03AFE204607F0B6FB04A806F032F98B
:100E6000BDF81010E8690144ADF81010BDF8141079
:100E7000081AADF81400BDF81200801CADF812007D
:100E8000BDF81600801EADF81600022007F062FCC7
:100E9000304604F0BFFD3A4604A905F049FC04F0D1
:100EA00013FE07E0FFE70121CCE70021CAE7206835
:100EB00010F006F807B00020F0BD00002C25070850
:100EC00070B505004FF000040BD006F08DFA2846EF
:100ED00004F0A0FD408EC0F3002404F0F5FD08F0FE
:100EE0009BF8204670BD0000044A03491160044984
:100EF0004A6A486210467047340B0020F80A002006
:100F0000040B002000294FF0100101D00EF04EBC60
:100F10000EF09EBB4FF480720029114601D00EF0F6
:100F200045BC0EF095BB00000348024941600349EF
:100F30008160704785E80108F80A00202DE3010868
:100F400008B50023009300F001F808BD70B5044611
:100F50000D4610461946049A05F050FA02462946F5
:100F60002046BDE8704000F022B8F8B504000E46F7
:100F70001CD006F039FA204604F04CFD856E009531
:100F800004F0A2FD3146684608F0C2FF60B1009847
:100F9000A84206D0204604F03DFD0099816604F089
:100FA00093FD20460FF044FC08F036F8F8BD70B50C
:100FB00005000C46164616D006F016FA284604F030
:100FC00029FD032C09D800EB840404F16C0004F023
:100FD0007FFC2846E6660FF02BFC04F075FDBDE8AB
:100FE000704008F019B870BD704770472DE9F043A4
:100FF0000646006885B018B110F0E0FA88B100200C
:101000004C494D4A4FF0010951F8205000EB800146
:1010100002EB011404EB81034FF00508996811B14C
:1010200019E00120ECE7A9696A69E26400EB400776
:10103000891F04EB870C91FBF8F204F14807CDE916
:101040000273CDE900900CF1280CCDF810C00323F9
:10105000084619F00BF8706808285CD006DC0028F8
:1010600062D004280CD0052861D104E010282BD0D0
:1010700017285CD154E02946304613F069FC56E04D
:10108000B168A869491E01EB810204EB8206801F4A
:10109000B2689AB96A69E26401EB410304EB830325
:1010A0002833CDF80090CDE9036390FBF8F2483483
:1010B000CDE901140323014618F0D8FF032211469D
:1010C000304605F0E7FB32E0306804F0A3FCB0F9ED
:1010D000544090F85670D0F83490D0F8448004F022
:1010E000F3FC68460FF000F8BDF80000A969084459
:1010F0003844ADF800004846F56907F099FA022037
:1011000007F028FB404607F05EFA2246694628466B
:1011100005F00EFB0BE02946304616F017FB06E003
:10112000A86905B0BDE8F08330680FF0C9FE002063
:10113000F7E700003C250708ECB40020044A034907
:1011400011600449CA69C86110467047C00B00208D
:10115000781000207C10002000B589B0202168465E
:10116000FFF7B0FA172001900348006880684168D3
:101170006846884709B000BD781000207CB51D4C3A
:101180000546608C216C08446084A08C616C084426
:10119000A084284605F072FF618CADF80010461857
:1011A000284608F09BFD3044401EADF8040005F0D1
:1011B000E7FFA18CADF802100844401EADF8060010
:1011C000684610F0C9F804E0284601F031FF10F03D
:1011D00051F80028F8D10A2D03D0BDF80400401CB6
:1011E0006084608C216C401A6084A08C616C401A11
:1011F000A0847CBDB0B300200A480B49038990F855
:10120000642053430B80438953434B8083895B1C89
:1012100053435B1E8B80C089401C5043401EC880D6
:1012200070470000B0B30020E009002001480068CA
:1012300070470000040C00207047704770477047EB
:101240007047704770472DE9F04105000C4634D0D7
:1012500006F0CAF8112C14D0132C0ED0A84628463C
:1012600004F0D8FB00F09FFB054604F02DFC20465F
:1012700020F02CFD0646002419E0284600F0E2FA92
:1012800017E0284600F072F913E02146404600F0CE
:101290008DFB007820F01AFDC7B204F015FCB742B0
:1012A00004D12146404600F00FFB02E0641CAC4232
:1012B000EBDBBDE8F04107F0AFBEBDE8F08170B5F3
:1012C00005000C4618D0002C16D006F08DF82846E4
:1012D00004F0A0FBC66B04F0F7FB2046FFF716F9FD
:1012E000421C2146304604F005FC28460FF0A0FAC7
:1012F000BDE8704007F090BE70BD2DE9F041456833
:101300000446284604F086FBD0F8886004F0DCFB35
:101310000EB1012700E00027214628460EF0C0F953
:10132000002877D020680F2856D006DC0B2860D024
:101330000C2843D00E282AD16EE0112839D021285C
:1013400002D0262823D116E0E068416800297EDD1E
:1013500000680D287BD130460AF003FB002806DD2B
:1013600030460AF0FEFA0146284600F0ADFA28465B
:1013700000F074F868E0E068012809D00A2802D07B
:101380000B2864D111E00A2128460FF02AFB5EE009
:1013900030460AF0E6FA002859DB30460AF0E1FA56
:1013A0000146284600F090FA4EE0284600F056F834
:1013B0004DE077BBE068007A68BB48E0E06828B1A0
:1013C000007A08B1012102E0022100E00321284651
:1013D000BDE8F0410FF005BB2E46284604F01AFB8D
:1013E000D0F88400056804F06FFB95B13046A8473B
:1013F0002DE0284604F00EFB00F13C05C06B04F024
:10140000B2FBE86C0EF080FDA86D04F031FA04F038
:101410005BFB1CE020E00FE0E0684168002916DD7E
:10142000016809290CD00A2911D0202904D02846A6
:10143000BDE8F041FFF707BF284600F0F7F806E0E7
:101440000EF0B6FEB04202D128460FF09FFC2046B7
:10145000BDE8F0410EF01ABDBDE8F08170B50500A1
:1014600016D005F0C1FF284604F0D4FA0446D0F89F
:10147000880038B10EF048FD0020C4F888002846E6
:101480000FF0D6F904F020FBBDE8704007F0C4BDB2
:1014900070BDF0B585B014461D46B0F90830468AD7
:1014A00082690296CDE903320027CDE90017B0F931
:1014B0000C10B0F91030B0F90E20B0F90A00294430
:1014C000204400F003F805B0F0BD00002DE9FF5FF7
:1014D0008046DDE90E598A4693461E46109F129CAF
:1014E00005F082FF6C341F49CDE90214CDE90059A3
:1014F0004FF0FF335A46514640460EF021FC05009E
:1015000029D004F087FA0446102211990EF014FB3A
:1015100084F88C703822144904F14C00FFF7A0F8CD
:10152000114F3F1F3868C4F88400002084F89000F1
:10153000E686284600F018FA04F0C6FA04F010FB1C
:101540000446284604F066FAC46304F0BDFA38681D
:1015500041682846884707F05FFD04B02846BDE88B
:10156000F09F0000FB120008BC10002010B50446DC
:1015700000F056F9010000D0411E2046BDE81040A1
:1015800000F0A2B970B50546006804F043FA448E35
:10159000D0F8886004F098FA06B1012604F001043E
:1015A000286810F00BF80EB1002006E00CB1012005
:1015B00003E008B1022000E003201B4951F820108D
:1015C000686858B302280CD0032802D0102828D10C
:1015D00003E0284613F0E2F923E0284617F0C8F8A4
:1015E0001FE02A69A8694FF0FF33801AA0F10802B2
:1015F00003EB6204421C6B69001B4510A3EB6206FF
:10160000C86906F0E0FF06E03219311B284605F0F4
:10161000EFFA641E6D1C002CF6DA02E028680FF069
:101620004FFC002070BD0000442507082DE9F14F54
:101630009AB01A9800287DD005F0D6FE1A9804F0CA
:10164000E9F904461A980EF0DBFE0290B4F93680F0
:1016500094F890001390E06B0F9094F88C90B4F98C
:1016600034000E90204600F09EF98246B4F88E00B9
:101670001490B4F982001590E06C1790D4E9000141
:10168000CDE91001D4F894B0002005AD04EB800141
:10169000096D45F82010401C0328F7D3002008AE40
:1016A00004EB8001C96D46F82010401C0328F7D3D5
:1016B00000200BAF04EB8001096F47F82010401C9D
:1016C0000328F7D304F000FA1A980EF017FE04F07E
:1016D000A1F9046804F0F8F92014424220B2414212
:1016E00010A806F013FD5FEA897004D5BDF842101A
:1016F000A1EB080001E0BDF84600ADF842001A98E1
:101700000EF0FCFD029A02230092CDE9018301460E
:10171000BDF94230BDF9402000200AF0A8F880460B
:101720005FEAC97009D0404613990AF050FB0121C5
:10173000404600E071E00AF06FFA002408E021461C
:101740000F9804F06AFA0146404609F063FF641CF2
:101750005445F4DB5FF00004214655F82420404650
:101760000AF084FA641C032CF6D30024214656F8B0
:10177000242040460AF0C2FB641C032CF6D300244C
:10178000214657F8242040460AF001FB641C032C34
:10179000F6D35FEA0B001CD004F03CF930F8025B92
:1017A00000240646012710E006EBE40004F00701E0
:1017B000007807FA01F1084201D0012200E000227E
:1017C000214640460AF084FA641CAC42ECDB04F08B
:1017D0007BF9404614990AF0AEFA404617990AF090
:1017E0005EFA404615990AF074FB40460FF0CEFAB7
:1017F00040461A990AF0B6FA40460E990AF004FBE0
:1018000001211A980FF0EDF81A9804F003F9C0F8C6
:10181000888004F059F907F0FFFB1BB0BDE8F08F9A
:1018200070B505004FF000040AD005F0DDFD284634
:1018300004F0F0F8B0F9344004F046F907F0ECFB9E
:10184000204670BD10B50446FFF7EAFF411C204654
:10185000BDE8104000F038B82DE9F04107000C4613
:10186000154620D0032C1ED205F0BEFD384604F0EC
:10187000D1F8D0F8886000EB8400016DA9420CD04B
:10188000056504F021F938460EF0D2FF3EB12A4634
:10189000214630460AF0EAF901E004F015F9BDE806
:1018A000F04107F0B9BBBDE8F0810000044A0349EC
:1018B000116004490A6B086310467047080C002049
:1018C000B8100020BC10002070B506000C4621D0D6
:1018D00005F08AFD304604F09DF8054600F063F8F7
:1018E00000B1401E844200DD0446B5F93400A04238
:1018F0000AD0AC8604F0E8F830460EF099FF0421D7
:1019000030460FF06EF801E004F0DEF8BDE87040FC
:1019100007F082BB70BD2DE9F04107000C4615466B
:1019200020D0032C1ED205F05FFD384604F072F87B
:10193000D0F8886000EB8400C16DA9420CD0C56569
:1019400004F0C2F838460EF073FF3EB12A46214635
:1019500030460AF0D3FA01E004F0B6F8BDE8F041F1
:1019600007F05ABBBDE8F08170B5054604F052F8A7
:101970000446B0F9380010B9E06C05F0B7FCE16A34
:10198000B4F98020096800EB42000E1820460FF0E1
:10199000D4FC044604F098F8324621462846BDE8B7
:1019A00070400FF0DEBAC06B04F02DB970B50D4673
:1019B000002404F02FF8C06B294604F02EF90546E8
:1019C00004F082F81DB1284604F024F804462046AD
:1019D00070BD00E0401E0028FCD170472DE9FC5F7F
:1019E00005461746DFF88C8038440090D8F8600030
:1019F0001C460E4601EB0409426849460098904790
:101A0000E81B0190D8F86000494642680198904769
:101A1000D8F8600006EB070B05EB0409426859464D
:101A200048469047D8F86000A6EB070A514642683E
:101A300048469047002C1AD0D8F86000371B46461D
:101A40004268394600989047306E3946426801989E
:101A50009047306E2C1B5946426820469047306EA6
:101A60005146426802B02046BDE8F05F1047BDE82D
:101A7000FC9F0000B0B300202DE9F0475FEA0009A9
:101A80000D467CD005F0B0FC484603F0C3FF90F84B
:101A90005480876D466BC46C04F016F81FB129465C
:101AA0004846B8475FE0122D1AD006DC082D42D018
:101AB000102D3BD0112D06D114E0132D22D01D2D59
:101AC00042D01E2D3CD0202D4DDBB8F1000F02D0AE
:101AD000484611F0B6FFA9B248461AF0CBFD48B30C
:101AE000611C24E036B3304603F094FF05462146DE
:101AF00007F07EF94419204607F028F901462346ED
:101B000001220FE0B6B1304603F084FF05462146BE
:101B100007F06EF94419204607F018F901462346EC
:101B20004FF0FF32484611F09AFA1AE0611E48461B
:101B300000F0DBF917E0B4B1611E484600F0D5F9BA
:101B4000484611F07EFF0EE0484603F063FFB8F10F
:101B5000010F0FD0012180F854102146484600F0B3
:101B6000C4F903F0B1FF48460EF062FEBDE8F0474D
:101B700007F052BA002180F85410F2E7FFE7BDE801
:101B8000F08770B54468054620460FF017FD0646FD
:101B9000294620460DF084FD002855D028680E28DF
:101BA0003AD004DC0B282ED00C2848D114E00F28A2
:101BB00023D0A0F58070133841D120460EF0E8FF05
:101BC000204600211CF079FF204603F023FFC06F60
:101BD00000210EF0B6FF1CE0E86860B1017A29B17F
:101BE0000168204600F0BAF8012100E002212046F9
:101BF0000EF0F7FE23E00321F9E72046BDE8704030
:101C000001211CF05ABF204603F004FF343003F0DA
:101C10005FFE03F059FF12E08EB1E86841680029C9
:101C20000DDD016809290AD00A2908D00D2906D03E
:101C30001B2904D02046BDE87040FFF71DBF284691
:101C4000BDE870400EF022B970BDF0B5044687B013
:101C5000D4E9056710461D46628A0DF1080CB4F9F7
:101C60000830ACE8CC000022CDE90012B4F90C1029
:101C7000B4F910302944B4F90A50B4F90E202844BC
:101C800000F008F8050002D0618A00F019F907B0E9
:101C90002846F0BD2DE9FF5F8046DDE91254DDE9FD
:101CA0000E67894692469B4605F09EFB0DF1040C9B
:101CB00047F4805054341A490096ACE813005B4650
:101CC0005246494640460EF03BF8060022D003F04B
:101CD000A1FE0446102211990DF02EFF1C2211497D
:101CE00004F16000FEF7BCFC012084F8550005B942
:101CF00008252DB22587002060876D1C606303F0E6
:101D0000E3FE294630461AF04FF818B930460EF077
:101D1000FBF8002607F080F904B03046BDE8F09FDC
:101D2000831B0008C40C002070B505000C46164645
:101D300013D005F059FB284603F06CFE38B1022C95
:101D400005D200EB8400466728460EF071FD03F0D3
:101D5000BBFEBDE8704007F05FB970BD2DE9F047EC
:101D60005FEA00080E4652D005F03EFB404603F005
:101D700051FE0446406B80B303F04CFE8246A06ED9
:101D800006F056FC814640460EF03AFB07465046A8
:101D900005F03AFA0546206E00F00300012816D03F
:101DA00002280DD0E16A606E09680844341A641E86
:101DB000504607F077FF0146002C0FDA002115E0AE
:101DC000781B401C00EBD070A6EB6004F0E7616E5E
:101DD000781B401A341A641CEAE712E0AC4205DCB6
:101DE00002462146504607F001FF0146404600F0FA
:101DF0007CF803F069FE484606F01AFC40460EF0F7
:101E000017FD03F061FEBDE8F04707F005B9BDE836
:101E1000F0872DE9F0415FEA00080F464ED005F04B
:101E2000E3FA404603F0F6FDB0F93860446B03F086
:101E30004BFEAFB300253CB1204603F0EBFDFEF7AF
:101E400065FB451C03F040FE384607F02BFF0446B7
:101E5000B04200DD34462146384606F0C9FF461C34
:101E6000711B40461AF0C0FC08B3404603F0D2FD97
:101E70000546406B03F0CEFD32463946FEF765FB62
:101E8000EC64B5F93800844205D195F85400012876
:101E900001D1641EEC6403F017FE03F015FE06E0AA
:101EA000FFE7342003F014FD00204087C064404663
:101EB0000EF0BEFCBDE8F04107F0AEB8BDE8F08121
:101EC00070B504000D460FD005F08EFA204603F0E1
:101ED000A1FD18B1056620460EF0AAFC03F0F4FD42
:101EE000BDE8704007F098B870BD70B50C4603F0BF
:101EF00091FD0546406BD8B103F08CFD07F0D2FE92
:101F000095F8541001B10121002C00DA002484421C
:101F100000DD0446B5F93800401AA04200DA044654
:101F2000E86CA04200D0EC640020286503F0CCFDF2
:101F3000BDE8704003F0C8BD7047704770477047F8
:101F400070477047704770472DE9F04389B00F46DE
:101F50001546984606004FF000042DD000F0B4FB63
:101F60000446304600F081FB814605F03DFA03A9A6
:101F7000304600F02DFDF80706D0BDF91C00001B0F
:101F8000401B401C822109E0B8070028BDF9180059
:101F9000284402DA40F2022100E002210096CDE955
:101FA000018123461A464946FEF70AFE04460021EF
:101FB000FEF7A8FF07F030F809B02046BDE8F0832F
:101FC00010B50523FFF7C0FF0446054A0021FEF7C0
:101FD000B7FF044920460EF028FE204610BD000041
:101FE00089440108352B02082DE9F047456804466D
:101FF0008AB0284603F00EFD00F15C00B0F8209096
:10200000D0F80C80476AC66A006808B1D0F800A012
:1020100003F05AFD05E071682046884700283BD14F
:102020003668002EF7D12068142841D009DCA0F1D1
:102030000B00072822D2DFE800F0AA3682B132B1C5
:10204000110020287AD004DC17283BD01E2815D197
:1020500048E0262839D02A2810D110E02846E66822
:1020600003F0D8FC717A39B9317A012904D130F8FA
:102070007C1F41F48071018003F026FD8EE028462C
:1020800003F0C8FCE16811B1C0F8841002E0D0F898
:102090008400E06003F018FD0AB0BDE8F087284630
:1020A000514688477AE0214628461CF0B1F9F3E70B
:1020B00004A9284600F08CFCE068059901600699A7
:1020C0004160E9E7C4F80C80E6E7E0680228E3D164
:1020D0000295E0680390272000906946A0680FF001
:1020E00041FCD9E7E068012804D00021284600F02F
:1020F0005AFBD1E738460EF001FC58B138460EF0D5
:1021000045FE38460EF0EEFA78B1012138460DF062
:102110004DFB0AE040460EF085FE0746284603F0D8
:1021200079FCC0F8807003F0CFFC0121284600F054
:102130003AFB002FB0D10020E060ADE70BE05FEA92
:1021400009702BD4E068C06840B3007A30B32846E9
:102150000EF01CFE22E0E66806B3294670680FF018
:102160001AFA20B1012128461EF00AFC16E00021CF
:1021700028461EF005FC294630680FF0FBF968B1CF
:10218000284603F047FC3168C0F8801074E7284601
:1021900003F040FC703003F09BFB6DE721462846BE
:1021A0000DF07EFA00288CD020460DF06FFE73E70C
:1021B000F0B587B014461D46B0F908200DF10C0C9F
:1021C0000C9E87694368ACE8CC00428A0023CDE9C5
:1021D00000130292B0F90C10B0F91030B0F90E20D3
:1021E000B0F90A002944204400F002F807B0F0BD1D
:1021F0002DE9F04F89B0804612A88946E0C8924682
:102200009B46189C05F0F0F86034324846F480563E
:10221000CDE90204CDE900565B46524649464046A8
:102220000DF08EFD05004FD003F0F4FB0446302284
:1022300015990DF081FC2822274904F13400FEF79E
:102240000FFA04F15C041798A06027844FF0000790
:10225000DFF8848067622761A8F10808E762D8F890
:102260000400206003F030FC04A9284600F0B0FB15
:102270001A4841F2827103970095CDE90110BDF92A
:102280001A00BDF91610BDF91820431ABDF9140043
:102290005B1C121A521C0DF053FD0446D8F80400C2
:1022A000416828468847284603F0B4FB846603F05B
:1022B0000BFC42F20400064202D128460DF080FEDB
:1022C0002846169900F032FB06F0A6FE09B0284613
:1022D000BDE8F08FE91F0008E80C0020C32C0008BF
:1022E0002DE9F04104468EB0006800F0A9F908B16C
:1022F000D24D01E0D14D2C35606813281ED00CDC86
:1023000009281FD004DC00287DD003287CD12AE1D5
:102310000C287AD01028F9D13CE1142806D01528D1
:1023200008D0162808D01A28F0D109E0E8690EB0C4
:10233000BDE8F081286AFAE7686AF8E7A86AF6E774
:102340006869F4E7206805901A200690206803F079
:1023500061FB016D05A88847064603F0B5FB022E18
:102360000EDB95E807008DE80700D4E90302334649
:10237000616907F045FAE06887196069801B2BE006
:10238000286806F020F9E168E8690A18521E2069F9
:1023900004F02EFC6269E869111A491C206904F0F6
:1023A00027FC2769E0687F1C394604F06FFC39463A
:1023B000606904F06BFC686806F005F9E06839466E
:1023C000401C04F063FC60693946401E04F05EFC6A
:1023D000E7686069BF1C801E8046286806F0F3F835
:1023E00042463946206904F003FC686806F0EBF8C1
:1023F00020694246401C394604F0FAFB686A02280C
:102400000FDDA86802E00AE1ACE0F5E006F0DBF8D9
:1024100021696A6A08468318891C5B1E4246384651
:1024200027E0296AB14226DD2069022E074600F125
:10243000020801DB374401E007F10207E06801DB35
:10244000304401E000F10200E2683B460A44A2F198
:102450000102414604F00EFD022E02DB6069821B80
:1024600001E06269921E6069E9693B46401A401CBE
:10247000414604F0FFFC022E02DB2069064401E025
:102480002669B61CA76928687F1E06F09CF83A46A4
:102490003146E06804F08EFC3A463146606904F04B
:1024A00089FCA7696868BF1E06F08DF8E0683A46A7
:1024B000401C314604F07EFC60693A46401E3146BD
:1024C00004F078FCE869022802DC286A022821DD91
:1024D000A86A022802DDA1690F1A01E0A769BF1EE0
:1024E000A86806F070F8EA69022A07DDE1683B4651
:1024F0000A44881C521E314604F0BCFC286A02289B
:1025000008DD6269E8693B46101A401C921E31469C
:1025100004F0B0FC286806F056F8D4E90520E1681C
:1025200004F066FB686806F04EF86269E168A0692D
:10253000521E491C401E04F05BFBA86A02287BDD8A
:10254000E6686169A469B61C271AA1F102087F1C1C
:10255000A41EA86806F037F823464246394630469E
:1025600004F088FC68E0E06800B2ADF80C00216976
:1025700009B2ADF80E10626912B2ADF81020A3696D
:102580001BB2ADF812302C69ED68CDE9005404F0AF
:10259000CDFA51E0E068A9690844ADF80C00206963
:1025A000ADF80E006069A969401AADF81000A06985
:1025B000ADF81200206803F02DFA0446006FC0B198
:1025C000022006F0C7F8B4F87C00C0F3C00004EBAA
:1025D0008000006C05F0F7FF606B06F029F8206FB3
:1025E00003F018FAB4F95A2003A904F0A1F803F093
:1025F0006BFA03F069FA1FE0E068ADF80C0020699F
:10260000ADF80E006069ADF81000A069ADF81200D9
:10261000A86805F0D8FF03A804F058FC0CE0206877
:1026200003F0F8F930F85A1F41F00C01018003F073
:102630004BFA20680EF044FC002078E6240D0020C0
:1026400070B505004FF000040DD004F0CDFE284613
:1026500003F0E0F9B0F87C00000700D5012403F096
:1026600033FA06F0D9FC204670BD70B505004FF076
:1026700000040FD004F0B8FE284603F0CBF9C06D7B
:1026800000218068026828469047044603F01CFA3F
:1026900006F0C2FC204670BD0148B0F92200704728
:1026A000E80C00200148006870470000E80C00209A
:1026B000022905D2034A52F821102C22FDF7D0BF7F
:1026C000704700005425070830B585B005004FF06D
:1026D000000411D004F088FE6946284600F078F91D
:1026E000284603F097F9B0F9544003F0EDF90CB91E
:1026F000BDF9004006F090FC05B0204630BDF0B5B5
:10270000054687B0006803F085F90446B0F87C0000
:10271000ED69C0F3C007206F18B103F07BF90646DE
:1027200000E00026E868009028690190A888401E13
:10273000ADF80800E889ADF80A002889401CADF81A
:102740000C00688AADF80E00BDF80000401CADF822
:102750000000BDF80200401CADF80200BDF8040006
:10276000401EADF80400606B05F062FFB4F95A300A
:1027700004AA6946304606F001FD04EB8704A06B0D
:1027800008F0BEFB206C08F0F1FB04AB6A4602A91E
:1027900030460DF001F903F097F90EB103F094F90A
:1027A00007B00020F0BD70B504000D4609D004F05C
:1027B0001BFE294620461EF0E3F8BDE8704006F0F7
:1027C0002BBC70BD70B505000C4611D004F00CFE9A
:1027D000284603F01FF9816CA14203D08464806E07
:1027E0000EF026F803F070F9BDE8704006F014BC56
:1027F00070BD00000149086070470000E80C00202F
:10280000074A0649054B1160064A083BD1695860E2
:102810001B68C2E90630084670470000180D00200A
:10282000E40C0020E80C00200249B1F92620C884FD
:1028300010467047E80C002070B504460D4604F0C1
:10284000D3FD44B1204603F0E5F8056603F03CF9FA
:1028500020460DF0EDFFBDE8704006F0DDBB000046
:102860002DE9F84380460E4604F0BEFD404603F0D5
:10287000D1F8C16D8C6800F012F9054603F024F917
:10288000404603F0C7F814490665C16503F01CF91A
:1028900022680121404690470646226803214046AF
:1028A000904707462268002140469047044640462C
:1028B00000F0D2F93B46324629464046009400F0EB
:1028C0005DF940460EF0FCFA40460DF0B1FFBDE860
:1028D000F84306F0A1BB0000180D002070B50346B8
:1028E0000D4602291FD2104C2C22194654F82500FF
:1028F000FDF7B6FE54F825100220CA69022A00DA54
:10290000C86154F825100A6A022A00DA086254F8ED
:1029100025104A6A022A00DA486254F825108A6AA9
:10292000022A00DA886270BD5425070838B5040011
:102930000D4619D004F058FD204603F06BF8006FE7
:10294000009003F0C1F82946684607F0E1FA48B163
:10295000204603F05FF80099016703F0B5F82046C0
:102960000DF066FF06F058FB38BD70B505000C464B
:1029700013D004F039FD284603F04CF8B0F95A1092
:10298000A14204D0A0F85A4028460DF051FF03F0B0
:102990009BF8BDE8704006F03FBB70BD70B5050008
:1029A0000C4614D004F020FD284603F033F8002232
:1029B00000EB8201521C0C64022AF9D303F084F864
:1029C00028460DF035FFBDE8704006F025BB70BD10
:1029D0002DE9F34F85B04FF000080C46C14605982D
:1029E00003F018F80546C06D012186680598326825
:1029F00090478346326803210598904700903268DB
:102A0000022105989047049032680021059890476C
:102A1000074628460EF091FC019028460EF094FCE3
:102A20008246688E800601D5B5F95890284600F098
:102A300036F80646E86E10B10DF0F5FC80462680AB
:102A4000A4F80280A4F804B0DDE90020801A07EBA6
:102A50000902401E9319208103EB0802E280049BC7
:102A6000AAEB0302521E6281A4F80CB02082B819AE
:102A7000E781401E608203F027F8B4F90C00029051
:102A8000B4F91000039003AA02A9059800F036F8E3
:102A90000298A0810398208207B0BDE8F08F10B59E
:102AA000014600204A8E920607D5B1F9540000284D
:102AB00003D1486B04F01EFC801C10BD70B588B0BB
:102AC0000D46044602F0A6FFC06D866802F0FCFFCA
:102AD000009435B1012D06D0022D0BD0032D04D169
:102AE0000AE0162000E014200190716868468847CB
:102AF00008B070BD1320F7E71520F5E72DE9F04782
:102B000088469146044602F085FFC16D05688E68CF
:102B100002F0DAFF32680021204690470646204640
:102B20000DF029FB26E000BF02F074FFB0F90010A1
:102B30002AB2B0F90430891A9A1AB0F90230A3EB1C
:102B40002543B34211D1806A000607D5D9F80000A9
:102B500088420ADB491EC9F8001006E0D8F80000D8
:102B6000904202DC521CC8F8002002F0ADFF204663
:102B70000DF0AAFB0400D7D1BDE8F0872DE9FF4F87
:102B800081B00F46DDF838A0019802F043FFC16D17
:102B90008D68FFF784FF044602F096FF2A68012142
:102BA0000198904700902A68032101989047834636
:102BB0002A680021019890470646BC4208D1039933
:102BC0000098884204D104998B4501D1564540D0E4
:102BD0004FF00009E41BC84601980DF0CCFA36E02E
:102BE00002F018FF0546806A010602D54FEA8050C0
:102BF00002E0810526D50006002823DB24B1224609
:102C0000114638460DF027FFA86A00060BD5049838
:102C1000A6EB0A02A0EB0B0104FB181108F1010856
:102C200038460DF0CFFEA86A80050BD503990098B1
:102C3000A6EB0A02411A04FB091109F10109384601
:102C40000DF0C0FE02F040FF38460DF03DFB0700DE
:102C5000C6D105B0BDE8F08F70B586B0064602F06B
:102C6000D9FED0E91A4502F02FFF54EA050026D01C
:102C700069463046FFF7ACFEACB1BDF90620BDF9A0
:102C8000041020460DF068FEBDF90A00BDF90610DB
:102C9000421ABDF90800BDF90410521C411A491C22
:102CA00020460EF05EF9002D09D0BDF90600BDF9F1
:102CB0000210421ABDF9041028460DF04DFE06B070
:102CC00070BD2DE9FF470446406806460DF016FB2F
:102CD000814602F09FFED0F88080876C456E02F03E
:102CE000F3FE206817285FD008DC0E283BD00F28A1
:102CF0000BD0142858D015283ED155E01E281AD0E4
:102D00001F2829D0222837D14CE06FF0704087422D
:102D100004D0384608F0F4F803F01EFA002D08D06D
:102D2000D4E902122068CDE90006CDE90212684616
:102D3000A847BDE8FF87E0680028FAD05FEA0800EE
:102D400006D0B04504D004B0BDE8F0470EF01EB880
:102D500030460EF067F81BE004B021464846BDE857
:102D6000F0470CF09DBCE0684168002904DD006874
:102D70000928EDD00A2808D0B5B1C4F8049004B0F1
:102D80002046AC46BDE8F047604730460EF074F888
:102D90000446484602F03EFEC0F88040BDE8FF47CA
:102DA00002F092BEE760C4E704B02046BDE8F047F9
:102DB0000DF06CB82DE9F04397B0012108020BF03B
:102DC00063FB01217C200BF06BFB4FF40057ADF847
:102DD000007003248DF8024010268DF80360DFF8A0
:102DE000B4806946404600F04FFD0225ADF8005022
:102DF000DFF8A4906946484600F046FD4CF2337077
:102E0000ADF800008DF8024018208DF803006946E7
:102E1000404600F039FD4FF68070ADF8000069467D
:102E2000484600F031FD8020ADF80000694640467C
:102E300000F02AFDA802ADF800006946404600F007
:102E400023FD3946404600F073FD019500200290B5
:102E500005210391049005900690E90607910890DA
:102E6000099008210A910B960C900E900F901090EB
:102E70004902119112901390149001A81590169088
:102E800008A800F01DF80121002000F007F817B095
:102E9000BDE8F08300140140001801404FF02042CB
:102EA00002EB800021B1016841F00101016070472F
:102EB0000168024A1140016070470000FEFF0F00E8
:102EC00030B5D0E901121143D0E903231A4311436D
:102ED00042690368114382691143C2691143026A5E
:102EE0001143426A1143826A1143C26A1143026B61
:102EF00011434FF0204242F823108168082906D17F
:102F0000016802EB81010B6843F040030B60416BE9
:102F1000D1E9003443EA04138C68CD68240244EA02
:102F2000054423430C6943EA04534C69896943EA25
:102F300004630B430168491C42F82130C16AB1F5B2
:102F4000804F15D1816B0068D1E9003443EA041346
:102F50008C680D69240244EA055423434C6989694D
:102F600043EA04630B4302EB8000C0F8043130BD38
:102F700000686FF0704102EB8000C0F8041130BDB2
:102F80002DE9F74F14468A4602FB04F002EBD47198
:102F900000EB61072549AAEB04080AEB040948691C
:102FA00048B1B0F906204A4500DA9146B0F902006E
:102FB000404500DD8046012526468B4616E000BFD1
:102FC000AAEB0501414510DB49450EDC05FB05F088
:102FD00006FB0602BA4201DD761EF9E7DBF8603037
:102FE000009882191B68801B98476D1CA542E7DB7F
:102FF0000025264616E000BF0AEB0501414510DB1F
:1030000049450EDC05FB05F006FB0602BA4201DD70
:10301000761EF9E7DBF86030009882191B68801B88
:1030200098476D1CA542E7DBBDE8FE8FB0B30020DA
:1030300010B504460A2811D00D2C13D004F0D4F991
:103040000948C0690168204688470848016809B1F5
:1030500020468847BDE8104005F0DEBFBDE81040BF
:1030600003F094BA10BD0000B0B30020680A00203D
:103070002DE9FF5F8046DDE90E45894692469B4675
:1030800004F5B47405F5B4754FF0FF3601274FF41D
:10309000B47003E0A4F5B474A5F5B4758442F9DA0C
:1030A000002D65DD5A2C11DA002C00DA00245A2D8F
:1030B00001DA284600E05A20CDE90040CDE9027649
:1030C0005B4652464946404611F032FA5A3D5A3C58
:1030D000002D4DDD5A2C14DA002C00DA00245A2D74
:1030E00001DA284600E05A20C4F15A01C0F15A0022
:1030F0008DE843005B46524649464046039611F030
:1031000017FA5A3D5A3C002D32DD5A2C12DA002CA7
:1031100000DA00245A2D01DA284600E05A200DF189
:10312000040C0094ACE8C1005B4652464946404658
:1031300011F0FEF95A3D5A3C002D19DD5A2C14DAD3
:10314000002C00DA00245A2D01DA284600E05A202B
:10315000C4F15A01C0F15A008DE883005B46524623
:1031600049464046039711F0E3F95A3D5A3C97E728
:10317000BDE8FF9F2DE9F0410446C56886B00F46C3
:103180009046002005F047FA064625B1287910B18F
:1031900046F0020001E026F0020005F03CFA20694A
:1031A000012558B1D4E902128DE826000395638801
:1031B0002288046841463846A04719E0E06807F0D5
:1031C000F2FC30B9E088012801D0002001E00B4872
:1031D0000068A288E388A1680095CDE90410CDE9D4
:1031E00002320195638822884146384607F068FA22
:1031F00006B03046BDE8F04105F00DBA6C10002075
:103200002DE9F0478046894640F2C32050434FF4F1
:103210007A7190FBF1F502FB02F002EBD27100EB48
:1032200061066D1C1746002349464046FEF7D6FB53
:10323000012413E004FB04F007FB0700B04206DDA5
:103240003B46224649464046FEF7C8FB7F1E3B46AA
:10325000224649464046FEF7C1FB641CAC42E9DD0C
:10326000BDE8F0871CB50024019401AC009400F087
:10327000E5F81CBD2DE9FF4F83B081460598109EEF
:10328000A0EB090400208A460090A3EB0A083568E9
:103290009B4654EA080018D02046FDF7A6FB0746D7
:1032A0004046FDF7A2FB87420BDA204644468046A3
:1032B0004846D14682460598CDF814B08346012091
:1032C0000090002C07DD204606E007B04846BDE828
:1032D000F04F00F037B96042A0420AD04846DDF80E
:1032E000149005906442C8F10008DA464FF0FF30B0
:1032F00000E0012083465048B8F1000F12D000BF13
:1033000004EBD4714FEA610501DAC5F100054A48C2
:10331000807E78B3BBF1000F02DA30682044306061
:10332000002775E000990029817E1FD011B1002788
:10333000804614E0059A07B049465046BDE8F04F74
:1033400007F020BB28466D1C1DF0FEFC30B9D8F8F4
:10335000600009EB07014268504690477F1CA74276
:10336000F0DD6D1E356007B0BDE8F08F19B10027A4
:10337000804616E018E0006E059A5146036807B0D3
:103380004846BDE8F04F184728466D1C1DF0DCFC90
:1033900030B9D8F8601009EB07004A6851469047E9
:1033A0007F1CA742F0DDDCE700260EE008FB06509C
:1033B00090FBF4F101EB0A00009949B11E4A09EBB8
:1033C0000601126E52689047761CA642EEDDCAE7EF
:1033D000194909EB0603096E4A6801461846F2E7E7
:1033E00008FB075090FBF4F101EB0A0001903168F3
:1033F00001EB0B0030601DF0A7FC40B90098A0B1B4
:103400000D4809EB0701006E4268019890477F1C48
:10341000A742E5DDBBF1000F02DA306820443060DE
:103420003168A1EB0B0030609DE7034909EB070011
:10343000096E4A680199E9E7B0B300202DE9FF471A
:1034400088463F4907460C98097E15461E460129C5
:103450001DD0781BA8EB060250EA02031CD0A1F194
:10346000010911461FF0CAF900F58060824606F096
:103470006BFE00FB09F4504606F06AFE00FB09F003
:10348000002C0BDAC4F5007189124C4209E000905F
:1034900041463846FFF7EEFEBDE8FF8704F50074AD
:1034A000A412002804DAC0F500708012404202E045
:1034B00000F500708012002C04DD611C01EBD1715D
:1034C000491003E004EBD4714910641E04EBD4727C
:1034D0005310002804DD421C02EBD272521003E0AC
:1034E00000EBD0725210401E7C18ADF8004008EB83
:1034F0000204ADF80240FC1A00EBD0704010ADF8A9
:103500000440A8EB0004EB1AADF80830301AADF80F
:103510000A006818ADF80C00B018ADF80E000023D2
:10352000ADF806401A460421684600F087F8414687
:10353000384614F019FF3146284614F015FFABE762
:10354000B0B30020064B1A7E012A05D0521E02EBB2
:10355000D272521000F006B81A6E5268104700007E
:10356000B0B300202DE9F05F0646884640F2C32044
:1035700050434FF47A7190FBF1F702FB02F002EB3B
:10358000D27100EB610B1446B118224A7F1C301B2C
:10359000126E13680A4641469847012536E000BF7F
:1035A00005FB05F004FB040159451ADDBC4217DD9B
:1035B000184B06EB0509A6EB050A1B6EA9F10102E3
:1035C00008EB04011B680AF101009847114BA9F1AF
:1035D0000102A8EB04011B6E0AF101001B68984769
:1035E000641E0C4806EB040AA6EB0409006E08EB07
:1035F000050152460368484698470648A8EB05016E
:103600005246006E0368484698476D1CBD42C7DDB0
:10361000BDE8F09FB0B3002070B50E4615460446D5
:103620004119401B02F0A8F82A4631462046FFF710
:10363000A7FCBDE8704002F013B800002DE9FF4F71
:1036400040F6FF740F46664283B081469B460021D8
:103650000BE000BF09EB8100B0F90200A04200DAE4
:103660000446B04200DD0646491CB942F2DB684818
:10367000406900280DD0B0F90620A2EB0B01B14241
:1036800000DA0E46B0F90210A1EB0B00A04200DDFB
:103690000446B6E0DFF87CA100200546CAF8000029
:1036A0008BE0781E854201DA691C00E0002109EBFD
:1036B000850C09EB8103BCF90200B3F90220A0429A
:1036C000904645D1A04517D139F92520059804EB3E
:1036D0000B0C104439F92120059953184C49984294
:1036E000096ED1F8008002DA1A46614602E002460D
:1036F00061461846C0475FE0284622460023A7F1EE
:10370000010C0AE008B1401E00E0781E09EB8001C0
:10371000B1F90210914203D15B1C6345F2DB2146F3
:10372000A14249D039F92500A1EB0402A8EB04031A
:10373000DDF814C05A4008D4354A604404EB0B014C
:10374000126E13680246984736E00EF071FB33E0C4
:10375000A04531D001DBA04203DDA0422CDBA24218
:103760002ADCE04690420ADC0146A04224DC944672
:10377000A24221DBB8F90000B3F9002009E01146AC
:10378000A24219DC8446A04216DBB3F90000B8F966
:103790000020631A121A5A43002AACEB010302DD1F
:1037A00002EB630202E0A2EB6302521CACEB0101EC
:1037B00092FBF1F10844C8E76D1CBD42FFF671AF02
:1037C0000598009004EB0B00019000208046054610
:1037D00012E01149B8F1000F31F915A008D0009995
:1037E00001EB0A0208440A49096E0B6801999847DF
:1037F00088F0010850466D1C064909688D42E8DBD7
:10380000641CB4427FF746AF07B0BDE8F08F0000FC
:10381000B0B300201C100020A4B5002010B500207B
:1038200004F0BAFE6FF07F4004F0CDFE012004F0FA
:1038300075FF002004F080FF002004F08BFF0020C3
:1038400004F0E9FE0448006804F0F2FEBDE8104010
:10385000002004F029BF0000480A002008B501211B
:103860007C200AF01DFE2020ADF8000010208DF80D
:10387000030003208DF802006946024800F004F8B6
:1038800008BD0000000C01402DE9F0410022CC7879
:1038900004F00F03E40601D58C7823430C884FF025
:1038A0000F0714F0FF0F4FF0010C1BD005680CFA46
:1038B00002F40E882640A64210D1960007FA06FEB2
:1038C00025EA0E0803FA06F545EA0805CE78282E03
:1038D00001D1446102E0482E00D10461521C082A43
:1038E000E5D305600A88FF2A1ED94568002202F147
:1038F00008060CFA06F40E882640A64210D196005F
:1039000007FA06FE25EA0E0803FA06F545EA080559
:10391000CE78282E00D14461CE78482E00D10461A3
:10392000521C082AE3D34560BDE8F081416170472D
:103930000161704773B5040017D003F055FD2046B0
:1039400002F068F8456E02F0BFF8019802F062F8E4
:10395000846002F0B9F8042201A9284602F0CAF8EE
:1039600020460CF065FF05F057FB7CBD73B50400E5
:1039700017D003F039FD204602F04CF8856E02F0B6
:10398000A3F8019802F046F8846002F09DF8042242
:1039900001A9284602F0AEF820460CF049FF05F0D8
:1039A0003BFB7CBD2DE9F04104460025D4E900072E
:1039B000B0F5407F00D10125214638460BF070FE5E
:1039C000064615B1384619F022FA002E2FD020688D
:1039D000052806D00B280ED00F2806D0262821D186
:1039E0000EE0384619F013FA1CE03846E168BDE8ED
:1039F000F0411AF041B83846BDE8F04119F0B8BCC2
:103A0000E06805280ED138460CF0B2FCA168884267
:103A100005D038460CF09CFCA168884202D1606851
:103A20001AF0A7FC2046BDE8F0410CF02FBABDE823
:103A3000F081F0B585B00DF1280CBCE8F0004FF036
:103A4000000C8DE8F01000F003F805B0F0BD0000A8
:103A50002DE9FF5F05460EA88946B0E8C0019246F1
:103A60009B46129C03F0C0FC6C341648CDE902045E
:103A70005B46524649462846CDE900670CF060F99E
:103A8000050019D002F06CF8064602F069F8074606
:103A9000284601F0BFFF04460022C4E919671199C6
:103AA0000CF04AF83022084904F13400FCF7D8FD44
:103AB000A4F8788002F008F805F0AEFA04B02846C1
:103AC000BDE8F09FA53900087C0D002013B5044621
:103AD00003F08AFC204601F09DFF04000AD0206A12
:103AE00001F098FF0146022301AA204600F0ACF93C
:103AF00001F0EAFF01F0E8FF05F08EFA1CBD0000BE
:103B00002DE9F04781460E4690461C4603F06CFCBA
:103B1000282001F092FE07001ED0700001F08DFEFB
:103B200005000CD0B8F1000F09D044B1284601F0CF
:103B300071FF62004146FCF708FD01F0C5FF384601
:103B400001F068FF074905620160074941600C30D8
:103B5000A0E8500201F0B8FF05F05EFA3846BDE873
:103B6000F0870000EDDB0108F1D3010810B5044631
:103B700003F03AFC204619F03BFCBDE8104005F08C
:103B80004BBA2DE9F0470600894629D003F02CFCFA
:103B9000304601F03FFF476E01F096FF384602F0D5
:103BA00032F80546002412E02146384602F035F886
:103BB00060B101F02FFFD0F8008001F085FFC8450B
:103BC00004D12146384601F0F4FF02E0641CAC4207
:103BD000EADB30460CF02CFEBDE8F04705F01CBADD
:103BE000BDE8F0872DE9F0470600894629D003F0AB
:103BF000FBFB304601F00EFF876E01F065FF384693
:103C000002F001F80546002412E02146384602F091
:103C100004F860B101F0FEFED0F8008001F054FF1E
:103C2000C84504D12146384601F0C3FF02E0641CB8
:103C3000AC42EADB30460CF0FBFDBDE8F04705F096
:103C4000EBB9BDE8F08700002DE9F04106460F46CC
:103C50001546984603F0C8FB302001F0EEFD040045
:103C600012D001F0D7FEC0E905678584094A4FF0FC
:103C70007E51C0F81C808162D2E90012C0E90312B3
:103C80000549016001F020FF05F0C6F92046BDE8B6
:103C9000F0810000AC0D0020B7DC010801F0E8BDA8
:103CA00070B506000D464FF000040FD003F09CFBEA
:103CB000304601F0AFFE046AAC4203D00562806872
:103CC0000CF0B6FD01F000FF05F0A6F9204670BD2E
:103CD00070B506000D464FF000040FD003F084FBD2
:103CE000304601F097FE4469AC4203D045618068DC
:103CF0000CF09EFD01F0E8FE05F08EF9204670BD47
:103D00002DE9F0410400DDF818800D4616461F46E7
:103D100013D003F069FB204601F07CFE5430A0E88C
:103D2000E00101F0D1FE204619F071F820460CF0B8
:103D30007FFDBDE8F04105F06FB9BDE8F0812DE9E8
:103D4000F04107000D4616464FF0000413D003F073
:103D50004BFB384601F05EFE042E08D200EB8600D5
:103D6000446BAC4203D0456338460CF061FD01F072
:103D7000ABFE05F051F92046BDE8F08170B50600B4
:103D80000D464FF000040FD003F02EFB304601F03B
:103D900041FE446CAC4203D0456430460CF048FD13
:103DA00001F092FE05F038F9204670BD70B50600AE
:103DB0000D464FF000040FD003F016FB304601F023
:103DC00029FE846CAC4203D0856430460CF030FD93
:103DD00001F07AFE05F020F9204670BD70B50600AE
:103DE0000D464FF000040FD003F0FEFA304601F00C
:103DF00011FE046DAC4203D00565304618F0C2FCDC
:103E000001F062FE05F008F9204670BD70B50600AD
:103E10000D464FF0000415D003F0E6FA304601F0ED
:103E2000F9FD90F86C40AC4208D00DB1012100E0E2
:103E3000002180F86C1030460CF0FAFC01F044FED2
:103E400005F0EAF8204670BD2DE9F041044680688F
:103E500017461D460E4600281ED0D4E903029042A4
:103E60000CD1521E6A4371193046FCF7B4FBE0686E
:103E70002A46401E05FB0060394606E005FB00139C
:103E8000401CE0602A4639461846FCF7A4FBA068AF
:103E9000BDE8F04118F076BCBDE8F08130B50023F4
:103EA00000E05B1CC25C002AFBD10124012203E07C
:103EB00004EB84046400521CB1FBF4F50A2DF7D224
:103EC0000025C418A5540A2309E00846B1FBF3F104
:103ED00003FB11003030A51805F8010C521E002A12
:103EE000F3D130BD10B50022002300E0521C845CE9
:103EF000002CFBD102E08454521C5B1CCC5C002CD7
:103F0000F9D10021815410BD2DE9F041002725A1F0
:103F10002EA000F0A5FC06F02FFE054606F038FEA8
:103F20000446A4F1C400032190FBF1F02C4EF06094
:103F30002C49C83D0A88521DB2EB650F03DB498846
:103F4000491D814200DA012727A003F05DF94FF0F7
:103F50000108B0EB650F05DBF068283C6230B4EB7C
:103F6000400F01DDC6F80080234804F061FB0446E1
:103F700003F0DEF8F168401C884201DAC6F80480DC
:103F8000204604F055FB384612F0F4FF01F060FBC8
:103F9000032001F0FDFB0EF0E5F9BDE8F04101F072
:103FA00005BB00004578616D706C657320666F72AB
:103FB000207468650A6175746F6D6F746976652029
:103FC000696E647573747269650000004175746F81
:103FD0006D6F746976652073616D706C6573000038
:103FE000B8000020B42303086D7365632F70696304
:103FF000747572653A0A0000ECD8020810B507A182
:104000000BA000F02DFC012000F024FA01F07CFF51
:104010000FF054FDBDE8104002F058B8416E696DD4
:10402000617465642062617220677261706800006B
:1040300042617220477261706800000010B508A1EB
:1040400015A000F00DFC00F005FC002000F002FAC5
:104050000EF072FABDE810404FF47A6000F0F4BD43
:1040600053686F77696E670A646966666572656E24
:1040700074206269746D61707320776974680A6175
:104080006E6420776974686F757420636F6D7072E9
:10409000657373696F6E00004269746D61707300BF
:1040A00010B5084C02E00A2002F002FA206A01284A
:1040B000F9D0606A012803D100206062012010BDA0
:1040C000002010BD680000202DE9F04F97B050216E
:1040D00003A8FCF7F7FA06F04FFD814606F058FDFD
:1040E0000546864986A000F0BBFB012000F0B2F92E
:1040F0006FF07F46304604F066FA844804F098FA80
:104100004FEA69010C2282A002F0F8FA834804F019
:104110008FFA2B22012182A002F0DEFA3F22012138
:1041200080A002F0D9FA5322012180A002F0D4FA33
:10413000622201217FA002F0CFFA712201217FA02B
:1041400002F0CAFA852201217EA002F0C5FA992266
:1041500001217EA002F0C0FA7E4804F069FA06F060
:1041600063FC014603A8FFF799FE7BA103A8FFF7B4
:10417000B9FE092006F070FC04465CB178A103A8E2
:10418000FFF7B0FE214603A8FFF788FE75A103A83C
:10419000FFF7A8FEA5F119020C2103A802F09CFA72
:1041A00000F06AF905464FF4FA7741F2707898E02A
:1041B00000F062F9401B4FF4FA6190FBF1F201FB51
:1041C00012014FF47A7091FBF0F06FF07C024243E1
:1041D00001EBC201B942EADCC1EB012191FBF7F12D
:1041E000C0EB0020414001EB012000EB0144A6EBB5
:1041F000040AFF22CDE9002434234A462B213C2027
:1042000002F05AFCFF22CDE9002A3E234A4635211E
:104210003C2002F051FC4FF47F4BCDE900B4482321
:104220004A463F213C2002F047FCCDE900BA522328
:104230004A4649213C2002F03FFC4FF47F0BCDE978
:1042400000B45C234A4653213C2002F035FCCDE902
:1042500000BA66234A465D213C2002F02DFC434A09
:10426000CDE9002470234A4667213C2002F024FC5B
:104270004FF6FF7BCDE900BA7A234A4671213C20F4
:1042800002F01AFCCDE900B484234A467B213C208D
:1042900002F012FC4FEA0B2BCDE900BA8E234A46FE
:1042A00085213C2002F008FCCDE900B498234A4661
:1042B0008F213C2002F000FC53464FF0FF1ACDE95D
:1042C00000A3A2234A4699213C2002F0F5FBCDE948
:1042D00000A4AC234A46A3213C2002F0EDFB02F0EF
:1042E0009DFD00F0C9F8401B404504DAFFF7D8FEF9
:1042F00000283FF45DAF17B0BDE8F08F84A5020839
:10430000436F6C6F7220626172000000ECD802088B
:10431000436F6C6F722062617273000088EB020859
:1043200052656400477265656E000000426C7565F9
:1043300000000000477265790000000059656C6C50
:104340006F7700004379616E000000004D61676582
:104350006E74610020D406082062707000000000B6
:104360002C20000020636F6C6F72730080808000CF
:10437000034901601121416005210181704700005E
:10438000F400002010B50DA114A000F069FA01207E
:1043900000F060F801F0B8FD0FF0C4FE4FF47A6051
:1043A00000F052FC01F092FE0021084601F04CFEA4
:1043B000BDE810400B4801F0D9BD0000656D57699C
:1043C0006E20737570706F7274730A736F66747792
:1043D00061726520637572736F720000437572734A
:1043E0006F72000024CC06082DE9F04104461848FD
:1043F0004FF4047140680BF0ADFE0746642C01DDFC
:104400001DF020FA0021384609F04DFD224600211A
:10441000384609F015FD02F03FFF064600F02CF883
:10442000851B642C03DD2946384609F03CFD052038
:1044300002F03EF8FFF734FEA54201D20028EDD08D
:10444000642C01DD17F08AFCBDE8F04102F0E6BC07
:10445000680000200149C968084700006800002082
:104460007047000003490989014201D001207047CB
:1044700000207047A8B2002010B5054CD4E9070110
:10448000002903D102F008FFA169401A10BD000005
:104490006800002010B506A112A000F0E1F900F0BC
:1044A000D9F917F0FBFABDE8104000F0A3B90000FD
:1044B0004F7074696D697A65642064726177696EA2
:1044C0006720726F7574696E650A666F7220647218
:1044D0006177696E672067726170682064617461DA
:1044E0000000000044726177696E67206120677286
:1044F0006170680010B5054840680CF0FDF80BF0DD
:1045000023FEBDE810400CF0C7BD0000680000208D
:1045100010B5054880680CF0EFF80BF015FEBDE80B
:1045200010400CF0B9BD00006800002070477047D3
:104530002DE9F04188B020223B496846FCF790F80D
:1045400006F01AFB054606F023FB04466E10002019
:10455000FFF780FF022004F0FDF86FF07F47384638
:1045600004F031F8314804F063F844F3191231468D
:104570002FA002F0C3F8304804F05AF804EB4400CE
:1045800000EBC400821131462CA002F0B7F8394884
:1045900004F04EF8FF2004F016F8162004FB00F19A
:1045A00088468A11314634A002F0A8F8374804F052
:1045B0003FF8212000EBA812314635A002F09EF80A
:1045C000384604F000F81C4804F032F802F066FEA9
:1045D00001466846FBF742FFC4EB4410062101EB9D
:1045E000A0123146684602F089F826206043821105
:1045F0002F480188681A41102D4802F04BF93846BF
:1046000003F0E1FF094804F013F8C4EBC40040F3E1
:10461000D902314627A002F071F841F28830FFF745
:10462000E3FE08B0BDE8F0816CA60208ECD80208F1
:10463000656D57696E000000200F0708556E69769A
:10464000657273616C206772617068696320736F53
:104650006674776172650A666F7220656D62656463
:10466000646564206170706C69636174696F6E73F6
:104670000000000020CA0608B7DCB6B7B0E6535405
:104680004D3332D1D0BEBFC6BDCCA80008DB060872
:10469000436F6D70696C6564204D61722032392002
:1046A000323031342031313A34313A333200000083
:1046B000001603087777772E6F757273746D2E6E00
:1046C0006574000010B506A110A000F0C9F8012023
:1046D000FFF7C0FE00F0BEF8BDE810400FF098BA3A
:1046E00053686F777320736F6D65206665617475AD
:1046F000726573206F660A746865204C495354567E
:104700004557207769646765740000004C697374CD
:10471000766965772064656D6F00000010B58CB018
:104720002749284803F0D2FA0BF00EFD26490CF079
:104730007CFAFCF7F9FB002101A8FDF7B9FF002482
:104740000694002101A8FEF7C9F8012101A8FDF790
:10475000AFFF0694012101A8FEF7C0F81B48FEF741
:104760004FF81B4809F04AFB1A48FCF7BDFB1A48F2
:104770000AF054F919480AF03FFA194805F0F2FE18
:10478000022003F0E7FF1748FFF7F2FD06F04CF9AF
:104790000B4C283C10280EDB0420FFF763FE50B1C1
:1047A00001F01CF9B0F5001F02DD0F48E06004E0E5
:1047B0000E48E06001E00E48E06018F0ADF9FCE75B
:1047C00090000020AD2E020805290208B3930108CD
:1047D00079DD0008B50C000819E80008F9EA0008BE
:1047E0006DA40008A8B2002021700108316F0108F3
:1047F0005571010810B505494869401C48610EF023
:1048000075FCBDE8104000F0AFB900006800002062
:1048100010B5044840680CF029FCBDE8104002F0D7
:10482000FDBA00006800002070B50546084CA0687D
:104830000CF052F8002809D04FF4B071A0680BF0CA
:1048400089FC2946BDE870400AF06BBB70BD0000D2
:1048500068000020014880680CF008BC6800002057
:104860002DE9F04107460C4606F086F9054606F0AC
:104870008FF96D104610FFF74BFEFFF7C9FF02F0EE
:10488000CDFA0120FFF7E6FD6FF07F4003F09BFEBD
:10489000022003F05FFF104803F0CAFE3C222946C5
:1048A000384601F02BFF0D4803F0C2FE02F040FC39
:1048B000321A0A322946204601F020FF002000E08B
:1048C000401C215C0029FBD100EB80000001BDE809
:1048D000F04100F0B9B90000ECD8020888EB0208FA
:1048E00010B5FFF715FE04A10FA0FFF7B9FFBDE853
:1048F00010400FF0C3B9000053686F777320736FD7
:104900006D6520776964676574730A646973706C98
:104910006179656420776974682061206E6577200D
:10492000736B696E00000000536B696E6E696E6791
:104930002064656D6F0000002DE9F04F97B02821CD
:104940006846FBF7BFFE06F017F9054606F020F9AA
:10495000044606F005F9064601F0D6FAA6420BDD3C
:104960000020ADF82800ADF82A00ADF82C50ADF8C5
:104970002E400AA803F01BFE55A161A0FFF770FFAF
:104980000026624F0DF1380A57F8260001F02EFC80
:104990004AF82600761C082EF6DBFFF76DFD169010
:1049A000002656E006F007005AF8200003F016FE35
:1049B000FBF72EFD90FBF5F105FB110005EBD57122
:1049C000A0EB610007B2ADF83070FBF721FD90FB62
:1049D000F4F104FB110004EBD471A0EB61000FFAB9
:1049E00080F8ADF83280FBF713FD90FBF5F105FB85
:1049F0001100143038440FFA80FBADF834B0FBF7E7
:104A000007FD90FBF4F104FB11001430404403B2A5
:104A1000ADF8363099465A464146384602F02AFAF1
:104A2000AB4502DB681EADF83400A14502DB601E19
:104A3000ADF83600002F02DA0020ADF83000BDF9E5
:104A40003600002802DA0020ADF8360002F0E6F960
:104A5000761CFFF711FD1699401A41F28831884201
:104A600003DAFFF71DFB00289CD0FFF7C3FE16F00A
:104A7000DCFC0646002003F09AFD0020FFF7EAFC6C
:104A80006FF07F4003F09FFD022003F063FE20489B
:104A900003F0CEFD052211461E4801F0FBFE1EA1CB
:104AA0006846FFF71FFA31466846FFF7F7F902F04C
:104AB00067FB201A42106910684601F01FFE4FF490
:104AC0007A60FFF791FC01F001FB17B0BDE8F08FB1
:104AD0004D756C7469206C6179657220636C6970C6
:104AE00070696E670A486967686C79206F707469CD
:104AF0006D697A656420647269766572730000007E
:104B000048696768207370656564000090620308F7
:104B1000ECD80208B4230308506978656C732F73CE
:104B200065633A20000000007047000010B5094995
:104B300009A0FFF795FEFFF78DFE0020FFF78AFC26
:104B400001F0E2F90FF028F901F0C0FABDE81040D9
:104B5000FFF750BE74650308547265657669657722
:104B60002064656D6F00000030B585B01421684683
:104B7000FBF7A8FD134C4FF4B07160680BF0EAFA34
:104B8000054611A16846FFF7ADF921696846491C41
:104B9000FFF784F90EA16846FFF7A4F9684661693A
:104BA000FFF77CF90BA16846FFF79CF90A484168BA
:104BB0006846491EFFF772F9694628460AF0B1F9BE
:104BC00005B030BD6800002044656D6F2000000016
:104BD0002E0000002F000000A8B2002010B505F044
:104BE000D7FF044605F0BCFFB0EB440F0EDB08A175
:104BF00011A0FFF735FE0120FFF72CFC0FF038F96C
:104C00000021BDE81040084603F05CBD10BD000067
:104C100044656D6F6E7374726174657320686F772D
:104C200020746F207573650A7669727475616C20E3
:104C300073637265656E73005653637265656E20AB
:104C400064656D6F0000000010B5FFF7CDFBBDE897
:104C50001040FFF7CFBD000010B506A113A0FFF76D
:104C6000FFFDFFF755FCFFF745FCBDE810400FF0D6
:104C7000B5B9000057617368696E67206D6163683C
:104C8000696E652073616D706C6520776974680A60
:104C9000736F6D652073707269746573206D6F76C4
:104CA000696E672061626F76650000005761736806
:104CB000696E67206D616368696E650030B591B09B
:104CC00005460C46202215496846FBF7C9FC1349E6
:104CD0002022203108A8FBF7C3FC284600F0D8F8B2
:104CE000A8682168C16261680163A16841635DF8D9
:104CF0002120C0F8DC2008AA52F82120C0F8E020CA
:104D0000490707D5D0E90021C0E90012D0E9022106
:104D1000C0E90212A189818411B030BD782407084E
:104D20002DE9F041884616461F46054600F0B0F8CA
:104D3000AC684422414604F1E400FBF791FC2846AC
:104D4000B0472846B847286980688047A062BDE818
:104D5000F081000010B5044600F09AF8A0680A49F6
:104D600000F1300001670949C166094941670949F5
:104D7000C16709498167A0F10C00418821F0030156
:104D800041800649416610BD290E0208B112020891
:104D9000F10D0208C3040208AB040208190D020851
:104DA00010B5044600F074F8A4680D4804F18804B6
:104DB0004FF01001A0630B48E0630B4820640B48E0
:104DC00060640B48E0600B482061E06AE06454F8DE
:104DD0008829204690471020A0630748E06310BD53
:104DE0001D64010815980108FD4D0008BF4E00081C
:104DF000A5040208891F0208F84F0708F8B584685F
:104E00000D461746E08C80073FD5D4F8DC302046AD
:104E100098470646D4F8E0303A4629462046984757
:104E200005462069B04201DD012000E00020A169B3
:104E3000B14201DA012100E0002108436169A94281
:104E400001DD012100E000210843E169A94201DA06
:104E5000012100E0002108430AD06068401E009054
:104E60002368D4F89C705B1E002211462046B84788
:104E7000D4F8A0302A46314620469847D4F89410FA
:104E800001B02046BDE8F0400847D4F8A030F3E771
:104E900070B50446806800280FD14FF494752846F9
:104EA00000F032FDA06048B12A46002105F0D0F89C
:104EB000A0680221C1840121016270BDFEE72DE9D5
:104EC000F84384680D461746E08C9846800740D525
:104ED000D4F8DC30204698470646D4F8E0303A460D
:104EE00029462046984705462069B04201DD012049
:104EF00000E00020A169B14201DA012100E00021B7
:104F000008436169A94201DD012100E00021084355
:104F1000E169A94201DA012100E0002108430AD039
:104F20006068401E00902368D4F89C705B1E0022CD
:104F300011462046B847D4F8A0302A4631462046CC
:104F40009847D4F8982001B041462046BDE8F04388
:104F50001047D4F8A030F2E72DE9F04FDFF824B184
:104F600091B04FF0FF35BBF922200692DBF81C30E0
:104F7000BBF924A0DC69A189884206D3E289824278
:104F800003D3461AD4F8008012E0D4E90181002945
:104F90006ED00A8890426BD34D88854268D3801AC0
:104FA000496880B201EB8000B0F90060B0F90250AE
:104FB000701C5DD0187EA27C014600FB02F9207CAB
:104FC0000B910790BBF92A70384605F0E5FFC0B297
:104FD0000E902D48A27C016806FB09800126CDE9D0
:104FE0000262CDE90401DBF81C00C17E807ECDE9C0
:104FF0000001DDE9060251460B9B05F061FB681CD0
:1050000018D047F0020005F0C7FF1F48A27C0168D6
:1050100005FB0980CDE90262CDE90401DBF81C0043
:10502000C17E807ECDE90001DDE9060251460B9B81
:1050300005F046FBDBF81C005D46417E007E8142A8
:1050400013D9022F11D087F0040005F0A5FFE869FD
:10505000027EC37E857E02FB03A1437EDDE906025C
:1050600002FB0502534405F0B5FC0E9805F094FFD1
:10507000BBF82210627C1144ABF8221011B0BDE8DD
:10508000F08F0000B0B300206C1000200348C0690E
:10509000C06909B1027C0A60407C7047B0B300204F
:1050A000022008807047C0698289914202D3C28978
:1050B0008A4210D2806880B102888A420DD8438823
:1050C0008B420AD3406800EB8100A0EB8200B0F96C
:1050D0000000002801DB012070470020704700001D
:1050E0002DE9F041204C054686B0E069B4F92A600C
:1050F0002946C06900F00DFA002832D041680088C6
:10510000281A01EBC0053046AF7805F045FF804610
:105110001648066896B100216868CDE904010422AA
:10512000012001A9009085C1E06936682A78037ED4
:10513000B4F92410B4F92200B0470BE06868CDE957
:105140000070E0692A78B4F92410037EB4F92200D3
:1051500000F026FB404605F01FFF608C697808448C
:10516000608406B0BDE8F081B0B300206C0A002076
:105170002DE9F041274D044686B0E869B5F92A606B
:105180002146C06900F090F9002840D041680088AD
:10519000201A00EB400001EB80042078401C4708F7
:1051A000304605F0F9FE80461B480668BEB1002176
:1051B000A068CDE904010422012001A9009085C165
:1051C000B5F9240094F9031094F902200144B5F9CB
:1051D00022003668104463782278B04710E0A06857
:1051E000CDE90070B5F9240094F9031094F9022078
:1051F0000144B5F9220063781044227800F0D0FA17
:10520000404605F0C9FE688C21790844688406B0E0
:10521000BDE8F081B0B300206C0A002070B50546EF
:105220000A480C462946C069C06900F072F9002896
:105230000BD0416800882A1A012000EBC200002C24
:10524000085C02D011F83210216070BDB0B30020AC
:1052500011200880704710B5C06900F05AF9002885
:1052600000D0012010BD00002DE9F0432D4C034675
:1052700087B0E069B4F92A801946C06900F049F99D
:1052800000284BD041680088181A01EBC005404641
:10529000AE7805F081FE81462348012201686868E6
:1052A000CDE90226CDE90401E069C27E817ECDE927
:1052B0000012037E2A78B4F92410B4F9220005F014
:1052C000FFF9E069467E077EBE421CD9C07E464398
:1052D0004743B8F1020F16D001F0F9FE804601F005
:1052E000C1FE03F070F9E269B4F922002978D27E98
:1052F00001FB0202B4F924108B19394405F06AFB52
:10530000404603F060F9484605F046FEE269B4F90C
:1053100022006978927E01FB0200608407B0BDE83C
:10532000F0830000B0B300206C10002030B50E4CAC
:1053300005460B46E0692946C06900F0B5F800282B
:1053400011D041680088E469281A00EB400204206B
:1053500000EB8200A47E085C6043002B03D011F8B0
:1053600022106143196030BDB0B3002003460D48E0
:1053700010B5C0690C461946C06900F095F870B1C7
:1053800041680088181A00EB400001EB8000D0E96A
:10539000001280682160C4E90120002010BD0120B6
:1053A00010BD0000B0B3002001200880704700B598
:1053B000C06900F079F8002800D0012000BD00008D
:1053C0002DE9F35F0F46002601F081FE254C834650
:1053D000608D400702D501F07AFE01E001F042FE47
:1053E00003F0F1F8E0690025B4F9229090F81980F3
:1053F000C07EB4F924A008FB00F81AE0684603F068
:10540000CBFC0646E0693146C06900F04DF880B13A
:1054100041680088301A00EB400001EB800090F9F1
:10542000021000790844E169897E4843002800DDC4
:1054300005447F1EE2D51EB1304604F04FFC054402
:105440000AEB080309EB05025B1E4846521E514653
:1054500005F0C0FA584603F0B6F803490120087079
:10546000BDE8FC9FB0B30020800A00202DE9F34185
:105470000B4D0C4F0E46B5F92A40A00709D17A68AA
:105480000098904705E0684603F086FCE9690968E2
:105490008847761EF7D5002038706C85BDE8FC8102
:1054A000B0B30020800A002006E002888A4202D8B9
:1054B00042888A4202D280680028F6D170470000F4
:1054C00030B50D4C05460B46E0692946C06900F031
:1054D00020F800280FD041680088E4692A1A0120CA
:1054E00000EBC200A47E085C6043002B03D011F8DF
:1054F00032106143196030BDB0B300200120088034
:10550000704700B5C06900F004F8002800D0012001
:1055100000BD06E002888A4202D842888A4202D24E
:1055200080680028F6D170472DE9F04100250C4C29
:105530002F460FE005EBC50000EB4006206968220E
:1055400000EB8600001D0749FBF78AF820696D1CF7
:1055500040F82670A0688542ECDBBDE8F0810000D1
:1055600024100020B0B3002070B50F490D4808602A
:10557000084604F093FC0C4D6C20143DAC68444389
:10558000204600F0C1F922460021286104F060FDA8
:1055900028690028FDD04FF0FF302860BDE870403A
:1055A00003F0B8BDDDD40108381000200249002006
:1055B00081F8650070470000B0B300202DE9FC477A
:1055C0000446DDE90A670D469046994601F00CFF56
:1055D0000BF06EFE04440BF077FE054400200BF048
:1055E000BBFE09E04B46424629462046CDE900670E
:1055F0000FF0C2F80BF03EFE0028F3D1BDE8FC47E7
:1056000003F00ABD2DE9F04104460D4616461F463B
:1056100001F0EAFE0BF04CFE04440BF055FE05448D
:105620000BF046FE06440BF04FFE074400200BF043
:1056300093FE07E03B463246294620460CF09AFA94
:105640000BF018FE0028F5D1BDE8F04103F0E4BCF2
:105650000249012081F8650070470000B0B30020C6
:1056600010B514F063FC0448016A0448016600F1B7
:105670000801416110BD0000B4090020B0B3002052
:105680002DE9FC478046894615461C4601F0ACFED4
:105690000BF00EFE47190BF017FE051900200BF05A
:1056A0005BFEE8B1104E1221707C06EB8000C06CEE
:1056B0000190C068426A01A89047040006D03B46AA
:1056C0004A46414600950198A04705E02B463A46D8
:1056D0004946404613F038FF0BF0CCFD0028E2D1DC
:1056E00003F09AFCBDE8FC87B0B300202DE9F0413F
:1056F0001D4C05460E462068002768B905F02DFAB6
:10570000E06100F001F9206058B304F1240117486A
:105710000860084604F0C2FB002D00DA0025E169AC
:10572000721B4B1E20469A4201DD6E18761EAE4259
:1057300001DA2E4601270E4C216E4A68826301620F
:1057400009490C4A34310A60216602C862C00DF072
:10575000B9FCFBF751FD04482C3060613846BDE8C8
:10576000F0810127D8E70000B409002015D4010812
:10577000B0B3002005800108044A92F8642090FB31
:10578000F2F091FBF2F1FFF7B1BF0000B0B30020DF
:10579000024981F86400FBF72FBD0000B0B3002080
:1057A000FEB50D4EDDE90845367C16F003060CD03B
:1057B000012E03D0022E0DD0032E05D1074E00BFBF
:1057C0008DE8700011F0D0FDFEBDCDE9004511F06F
:1057D00079FDFEBD024EF3E7B0B3002051B00008E2
:1057E000D1AF000870B505460C4601F0FDFD64B16F
:1057F000204600F013F806000CD000F06FF92246A6
:105800002DB12946FAF7A1FE04E0002070BD002169
:1058100004F01EFC03F000FC304670BD10B504001F
:1058200009D001F0E1FD20460CF022FD044603F012
:10583000F3FB204610BD002010BD70B5054601F0F9
:10584000D3FD2846FFF7EAFF040005D000F046F933
:105850002A46002104F0FCFB03F0DEFB204670BD6D
:10586000024A916010600120107570472C0A0020D8
:1058700070B504001CD001F0B7FD0E4DA86A10F8F9
:10588000341089B100EBC400416848680CF082FB19
:105890006869401C6861D5E90A0100EBC4025160E7
:1058A000002100F83410EC62BDE8704003F0B4BB96
:1058B00070BD0000F0090020002805D0034A116BDC
:1058C000016001B14860106370470000F0090020DA
:1058D00010B5044601F088FD2068FFF7C9FF0020DD
:1058E0002060BDE8104003F097BB000070B506468D
:1058F0000D46002405E000BF06EB8400FFF7E8FF3B
:10590000641CAC42F8DB70BD2DE9F041044616F092
:1059100029FD2048E41C24F003040068241DA04253
:1059200000D904461C4E306B054612E055F8042C95
:10593000A2420DD17DB1296809B16A684A606968DF
:1059400009B12A680A60A84220D1286830631DE0A6
:105950002D68002DEAD11AF025FE204615F024FA14
:10596000070013D07868A04210DB3844051B384686
:105970001AF0FAFDB0693946001BB061306A204464
:1059800030627868001B0CF005FB10C52846BDE8A6
:10599000F081000030B30020F009002010B5002491
:1059A00016F0E0FC0C490F2001EBC00252681AB15E
:1059B00001EBC000406808E0401EF5D508E04168F2
:1059C000A14200D90C46806810B180680028F6D149
:1059D000A4F10C0010BD000030B3002001480069A4
:1059E0000C387047F0090020002130B10449896A61
:1059F00001EBC000406841680C3908467047000060
:105A0000F009002002488168491C8160704700004D
:105A1000F00900200249CA68521CCA6000F05EB852
:105A2000F00900202DE9F04106460C460846FFF734
:105A3000F5FE050019D0C6B13046FFF7D5FFA042EC
:105A400000DA044601F0D0FC284600F047F807468B
:105A5000304600F043F8014622463846FAF775FD15
:105A60003046FFF705FF03F0D7FA2846BDE8F0817E
:105A700010B501F0B9FCFFF791FF64220849B0F5B9
:105A8000800F04D990FBF2F44868444303E049686E
:105A90004843B0FBF2F403F0BFFA204610BD00000B
:105AA000F0090020034908610020C8600120087542
:105AB000704700002C0A002002488168491E81605E
:105AC00070470000F00900200348C16809B1491E71
:105AD000C160002070470000F0090020002805D0B8
